{
  "contractName": "ERC721",
  "abi": [
    {
      "constant": true,
      "inputs": [
        {
          "name": "",
          "type": "uint256"
        }
      ],
      "name": "workflowOwner",
      "outputs": [
        {
          "name": "",
          "type": "address"
        }
      ],
      "payable": false,
      "stateMutability": "view",
      "type": "function"
    },
    {
      "constant": true,
      "inputs": [],
      "name": "totalWorkflows",
      "outputs": [
        {
          "name": "",
          "type": "uint256"
        }
      ],
      "payable": false,
      "stateMutability": "view",
      "type": "function"
    },
    {
      "constant": true,
      "inputs": [
        {
          "name": "",
          "type": "address"
        },
        {
          "name": "",
          "type": "uint256"
        }
      ],
      "name": "ownedWorkflows",
      "outputs": [
        {
          "name": "",
          "type": "uint256"
        }
      ],
      "payable": false,
      "stateMutability": "view",
      "type": "function"
    },
    {
      "anonymous": false,
      "inputs": [
        {
          "indexed": true,
          "name": "_from",
          "type": "address"
        },
        {
          "indexed": true,
          "name": "_to",
          "type": "address"
        },
        {
          "indexed": false,
          "name": "_tokenId",
          "type": "uint256"
        }
      ],
      "name": "WorkflowTransfer",
      "type": "event"
    },
    {
      "anonymous": false,
      "inputs": [
        {
          "indexed": true,
          "name": "_owner",
          "type": "address"
        },
        {
          "indexed": true,
          "name": "_approved",
          "type": "address"
        },
        {
          "indexed": false,
          "name": "_tokenId",
          "type": "uint256"
        }
      ],
      "name": "WorkflowApproval",
      "type": "event"
    },
    {
      "anonymous": false,
      "inputs": [
        {
          "indexed": true,
          "name": "_owner",
          "type": "address"
        },
        {
          "indexed": true,
          "name": "_operator",
          "type": "address"
        },
        {
          "indexed": false,
          "name": "_approved",
          "type": "bool"
        }
      ],
      "name": "WorkflowApprovalForAll",
      "type": "event"
    },
    {
      "anonymous": false,
      "inputs": [
        {
          "indexed": false,
          "name": "_tokenId",
          "type": "uint256"
        },
        {
          "indexed": false,
          "name": "_owner",
          "type": "address"
        }
      ],
      "name": "WorkflowCreated",
      "type": "event"
    },
    {
      "constant": true,
      "inputs": [],
      "name": "totalWorkflowSupply",
      "outputs": [
        {
          "name": "",
          "type": "uint256"
        }
      ],
      "payable": false,
      "stateMutability": "view",
      "type": "function"
    },
    {
      "constant": true,
      "inputs": [
        {
          "name": "_owner",
          "type": "address"
        }
      ],
      "name": "workflowBalanceOf",
      "outputs": [
        {
          "name": "",
          "type": "uint256"
        }
      ],
      "payable": false,
      "stateMutability": "view",
      "type": "function"
    },
    {
      "constant": true,
      "inputs": [
        {
          "name": "_workflowId",
          "type": "uint256"
        }
      ],
      "name": "ownerOfWorkflow",
      "outputs": [
        {
          "name": "",
          "type": "address"
        }
      ],
      "payable": false,
      "stateMutability": "view",
      "type": "function"
    },
    {
      "constant": true,
      "inputs": [
        {
          "name": "_owner",
          "type": "address"
        }
      ],
      "name": "getAllWorkflows",
      "outputs": [
        {
          "name": "",
          "type": "uint256[]"
        }
      ],
      "payable": false,
      "stateMutability": "view",
      "type": "function"
    }
  ],
  "bytecode": "0x608060405234801561001057600080fd5b50610540806100206000396000f300608060405260043610610083576000357c0100000000000000000000000000000000000000000000000000000000900463ffffffff1680635b58a534146100885780636f17a94e146100df578063972953b61461014c5780639f29487314610177578063a823d0a9146101e4578063aac99e3b1461027c578063d673a6e6146102dd575b600080fd5b34801561009457600080fd5b506100c9600480360381019080803573ffffffffffffffffffffffffffffffffffffffff169060200190929190505050610308565b6040518082815260200191505060405180910390f35b3480156100eb57600080fd5b5061010a60048036038101908080359060200190929190505050610351565b604051808273ffffffffffffffffffffffffffffffffffffffff1673ffffffffffffffffffffffffffffffffffffffff16815260200191505060405180910390f35b34801561015857600080fd5b50610161610384565b6040518082815260200191505060405180910390f35b34801561018357600080fd5b506101a26004803603810190808035906020019092919050505061038a565b604051808273ffffffffffffffffffffffffffffffffffffffff1673ffffffffffffffffffffffffffffffffffffffff16815260200191505060405180910390f35b3480156101f057600080fd5b50610225600480360381019080803573ffffffffffffffffffffffffffffffffffffffff1690602001909291905050506103c7565b6040518080602001828103825283818151815260200191508051906020019060200280838360005b8381101561026857808201518184015260208101905061024d565b505050509050019250505060405180910390f35b34801561028857600080fd5b506102c7600480360381019080803573ffffffffffffffffffffffffffffffffffffffff169060200190929190803590602001909291905050506104db565b6040518082815260200191505060405180910390f35b3480156102e957600080fd5b506102f261050b565b6040518082815260200191505060405180910390f35b6000600260008373ffffffffffffffffffffffffffffffffffffffff1673ffffffffffffffffffffffffffffffffffffffff168152602001908152602001600020549050919050565b60046020528060005260406000206000915054906101000a900473ffffffffffffffffffffffffffffffffffffffff1681565b60005481565b60006004600083815260200190815260200160002060009054906101000a900473ffffffffffffffffffffffffffffffffffffffff169050919050565b6060600060606000600260008673ffffffffffffffffffffffffffffffffffffffff1673ffffffffffffffffffffffffffffffffffffffff168152602001908152602001600020549250826040519080825280602002602001820160405280156104405781602001602082028038833980820191505090505b509150600090505b828110156104d057600160008673ffffffffffffffffffffffffffffffffffffffff1673ffffffffffffffffffffffffffffffffffffffff1681526020019081526020016000208181548110151561049c57fe5b906000526020600020015482828151811015156104b557fe5b90602001906020020181815250508080600101915050610448565b819350505050919050565b6001602052816000526040600020818154811015156104f657fe5b90600052602060002001600091509150505481565b600080549050905600a165627a7a7230582069c1ae53ea881815e7144cb1c51fc709e9d72641a05595498c51077fa7945ac80029",
  "source": "pragma solidity ^0.4.23;\n\nimport \"./ERC721Basic.sol\";\n\n/**\n * @title ERC-721 Non-Fungible Token Standard, full implementation interface\n * @dev See https://github.com/ethereum/EIPs/blob/master/EIPS/eip-721.md\n */\ncontract ERC721 is ERC721Basic {\n    uint256 public totalWorkflows;\n\n    // Array of owned workflows for a user\n    mapping(address => uint256[]) public ownedWorkflows;\n\n    // Number of workflows owned by each user\n    mapping(address => uint256) workflowAmountOwned;\n\n    //\n    mapping(uint256 => uint256) workflowIndexInOwnerArray;\n\n    // Mapping from workflow ID to owner\n    mapping(uint256 => address) public workflowOwner;\n\n    /**\n     * Override ERC721.sol\n     */\n    function totalWorkflowSupply() public view returns (uint256) {\n        return totalWorkflows;\n    }\n\n    /**\n     * Override ERC721Basic.sol\n     */\n    function workflowBalanceOf(address _owner) public view returns (uint256) {\n        return workflowAmountOwned[_owner];\n    }\n\n    /**\n     * Override ERC721Basic.sol\n     */\n    function ownerOfWorkflow(uint256 _workflowId) public view returns (address) {\n        return workflowOwner[_workflowId];\n    }\n\n    function getAllWorkflows(address _owner) public view returns (uint256[]) {\n        uint256 size = workflowAmountOwned[_owner];\n        uint256[] memory result = new uint256[](size);\n        for (uint i = 0; i < size; i++) {\n            result[i] = ownedWorkflows[_owner][i];\n        }\n        return result;\n    }\n\n    function _addTokenTo(address _owner, uint256 _workflowId) internal {\n        if (ownedWorkflows[_owner].length == workflowAmountOwned[_owner]) {\n            ownedWorkflows[_owner].push(_workflowId);\n        } else {\n            ownedWorkflows[_owner][workflowAmountOwned[_owner]] = _workflowId;\n        }\n        workflowOwner[_workflowId] = _owner;\n        workflowIndexInOwnerArray[_workflowId] = workflowAmountOwned[_owner];\n        workflowAmountOwned[_owner]++;\n    }\n}\n",
  "sourcePath": "/Users/allanjiang/Desktop/Stanford/2017-18/spring/cs359b-web-workflow-marketplace/contracts/ERC721.sol",
  "compiler": {
    "name": "solc",
    "version": "0.4.23+commit.124ca40d.Emscripten.clang"
  },
  "schemaVersion": "2.0.0",
  "updatedAt": "2018-05-13T03:55:41.227Z"
}