{
  "contractName": "ERC721",
  "abi": [
    {
      "constant": true,
      "inputs": [
        {
          "name": "",
          "type": "uint256"
        }
      ],
      "name": "existingWorkflowIds",
      "outputs": [
        {
          "name": "",
          "type": "bool"
        }
      ],
      "payable": false,
      "stateMutability": "view",
      "type": "function"
    },
    {
      "constant": true,
      "inputs": [
        {
          "name": "",
          "type": "uint256"
        }
      ],
      "name": "workflowOwner",
      "outputs": [
        {
          "name": "",
          "type": "address"
        }
      ],
      "payable": false,
      "stateMutability": "view",
      "type": "function"
    },
    {
      "constant": true,
      "inputs": [],
      "name": "totalWorkflows",
      "outputs": [
        {
          "name": "",
          "type": "uint256"
        }
      ],
      "payable": false,
      "stateMutability": "view",
      "type": "function"
    },
    {
      "constant": true,
      "inputs": [
        {
          "name": "",
          "type": "address"
        },
        {
          "name": "",
          "type": "uint256"
        }
      ],
      "name": "ownedWorkflows",
      "outputs": [
        {
          "name": "",
          "type": "uint256"
        }
      ],
      "payable": false,
      "stateMutability": "view",
      "type": "function"
    },
    {
      "anonymous": false,
      "inputs": [
        {
          "indexed": true,
          "name": "_from",
          "type": "address"
        },
        {
          "indexed": true,
          "name": "_to",
          "type": "address"
        },
        {
          "indexed": false,
          "name": "_tokenId",
          "type": "uint256"
        }
      ],
      "name": "WorkflowTransfer",
      "type": "event"
    },
    {
      "anonymous": false,
      "inputs": [
        {
          "indexed": true,
          "name": "_owner",
          "type": "address"
        },
        {
          "indexed": true,
          "name": "_approved",
          "type": "address"
        },
        {
          "indexed": false,
          "name": "_tokenId",
          "type": "uint256"
        }
      ],
      "name": "WorkflowApproval",
      "type": "event"
    },
    {
      "anonymous": false,
      "inputs": [
        {
          "indexed": true,
          "name": "_owner",
          "type": "address"
        },
        {
          "indexed": true,
          "name": "_operator",
          "type": "address"
        },
        {
          "indexed": false,
          "name": "_approved",
          "type": "bool"
        }
      ],
      "name": "WorkflowApprovalForAll",
      "type": "event"
    },
    {
      "anonymous": false,
      "inputs": [
        {
          "indexed": false,
          "name": "_tokenId",
          "type": "uint256"
        },
        {
          "indexed": false,
          "name": "_owner",
          "type": "address"
        }
      ],
      "name": "WorkflowCreated",
      "type": "event"
    },
    {
      "anonymous": false,
      "inputs": [
        {
          "indexed": false,
          "name": "_tokenId",
          "type": "uint256"
        },
        {
          "indexed": false,
          "name": "_stars",
          "type": "uint256"
        }
      ],
      "name": "WorkflowRated",
      "type": "event"
    },
    {
      "constant": true,
      "inputs": [],
      "name": "totalWorkflowSupply",
      "outputs": [
        {
          "name": "",
          "type": "uint256"
        }
      ],
      "payable": false,
      "stateMutability": "view",
      "type": "function"
    },
    {
      "constant": true,
      "inputs": [
        {
          "name": "_owner",
          "type": "address"
        }
      ],
      "name": "workflowBalanceOf",
      "outputs": [
        {
          "name": "",
          "type": "uint256"
        }
      ],
      "payable": false,
      "stateMutability": "view",
      "type": "function"
    },
    {
      "constant": true,
      "inputs": [
        {
          "name": "_workflowId",
          "type": "uint256"
        }
      ],
      "name": "ownerOfWorkflow",
      "outputs": [
        {
          "name": "",
          "type": "address"
        }
      ],
      "payable": false,
      "stateMutability": "view",
      "type": "function"
    },
    {
      "constant": true,
      "inputs": [
        {
          "name": "_owner",
          "type": "address"
        }
      ],
      "name": "getAllWorkflows",
      "outputs": [
        {
          "name": "",
          "type": "uint256[]"
        }
      ],
      "payable": false,
      "stateMutability": "view",
      "type": "function"
    }
  ],
  "bytecode": "0x608060405234801561001057600080fd5b506105e3806100206000396000f30060806040526004361061008e576000357c0100000000000000000000000000000000000000000000000000000000900463ffffffff16806303ff3900146100935780635b58a534146100d85780636f17a94e1461012f578063972953b61461019c5780639f294873146101c7578063a823d0a914610234578063aac99e3b146102cc578063d673a6e61461032d575b600080fd5b34801561009f57600080fd5b506100be60048036038101908080359060200190929190505050610358565b604051808215151515815260200191505060405180910390f35b3480156100e457600080fd5b50610119600480360381019080803573ffffffffffffffffffffffffffffffffffffffff169060200190929190505050610378565b6040518082815260200191505060405180910390f35b34801561013b57600080fd5b5061015a600480360381019080803590602001909291905050506103c1565b604051808273ffffffffffffffffffffffffffffffffffffffff1673ffffffffffffffffffffffffffffffffffffffff16815260200191505060405180910390f35b3480156101a857600080fd5b506101b16103f4565b6040518082815260200191505060405180910390f35b3480156101d357600080fd5b506101f2600480360381019080803590602001909291905050506103fa565b604051808273ffffffffffffffffffffffffffffffffffffffff1673ffffffffffffffffffffffffffffffffffffffff16815260200191505060405180910390f35b34801561024057600080fd5b50610275600480360381019080803573ffffffffffffffffffffffffffffffffffffffff16906020019092919050505061046a565b6040518080602001828103825283818151815260200191508051906020019060200280838360005b838110156102b857808201518184015260208101905061029d565b505050509050019250505060405180910390f35b3480156102d857600080fd5b50610317600480360381019080803573ffffffffffffffffffffffffffffffffffffffff1690602001909291908035906020019092919050505061057e565b6040518082815260200191505060405180910390f35b34801561033957600080fd5b506103426105ae565b6040518082815260200191505060405180910390f35b60056020528060005260406000206000915054906101000a900460ff1681565b6000600260008373ffffffffffffffffffffffffffffffffffffffff1673ffffffffffffffffffffffffffffffffffffffff168152602001908152602001600020549050919050565b60046020528060005260406000206000915054906101000a900473ffffffffffffffffffffffffffffffffffffffff1681565b60005481565b6000600115156005600084815260200190815260200160002060009054906101000a900460ff16151514151561042f57600080fd5b6004600083815260200190815260200160002060009054906101000a900473ffffffffffffffffffffffffffffffffffffffff169050919050565b6060600060606000600260008673ffffffffffffffffffffffffffffffffffffffff1673ffffffffffffffffffffffffffffffffffffffff168152602001908152602001600020549250826040519080825280602002602001820160405280156104e35781602001602082028038833980820191505090505b509150600090505b8281101561057357600160008673ffffffffffffffffffffffffffffffffffffffff1673ffffffffffffffffffffffffffffffffffffffff1681526020019081526020016000208181548110151561053f57fe5b9060005260206000200154828281518110151561055857fe5b906020019060200201818152505080806001019150506104eb565b819350505050919050565b60016020528160005260406000208181548110151561059957fe5b90600052602060002001600091509150505481565b600080549050905600a165627a7a723058204321f0cbdbbccbec626e11623adb8f2de650086a90af0cdfb9e76edee714cc620029",
  "source": "pragma solidity ^0.4.23;\n\nimport \"./ERC721Basic.sol\";\n\n/**\n * @title ERC-721 Non-Fungible Token Standard, full implementation interface\n * @dev See https://github.com/ethereum/EIPs/blob/master/EIPS/eip-721.md\n */\ncontract ERC721 is ERC721Basic {\n    uint256 public totalWorkflows;\n    \n    // Array of owned workflows for a user\n    mapping(address => uint256[]) public ownedWorkflows;\n\n    // Number of workflows owned by each user\n    mapping(address => uint256) workflowAmountOwned;\n\n    // Index of workflow in owner array\n    mapping(uint256 => uint256) workflowIndexInOwnerArray;\n\n    // Mapping from workflow ID to owner\n    mapping(uint256 => address) public workflowOwner;\n\n    // Map workflow ids to boolean value to keep track of which workflow exists\n    mapping(uint256 => bool) public existingWorkflowIds;\n\n    /**\n     * Override ERC721.sol\n     */\n    function totalWorkflowSupply() public view returns (uint256) {\n        return totalWorkflows;\n    }\n\n    /**\n     * Override ERC721Basic.sol\n     */\n    function workflowBalanceOf(address _owner) public view returns (uint256) {\n        return workflowAmountOwned[_owner];\n    }\n\n    /**\n     * Override ERC721Basic.sol\n     */\n    function ownerOfWorkflow(uint256 _workflowId) public view returns (address) {\n        // Require that _workflowId exists\n        require(existingWorkflowIds[_workflowId] == true);\n        return workflowOwner[_workflowId];\n    }\n\n    function getAllWorkflows(address _owner) public view returns (uint256[]) {\n        uint256 size = workflowAmountOwned[_owner];\n        uint256[] memory result = new uint256[](size);\n        for (uint i = 0; i < size; i++) {\n            result[i] = ownedWorkflows[_owner][i];\n        }\n        return result;\n    }\n\n    function _addTokenTo(address _owner, uint256 _workflowId) internal {\n        if (ownedWorkflows[_owner].length == workflowAmountOwned[_owner]) {\n            ownedWorkflows[_owner].push(_workflowId);\n        } else {\n            ownedWorkflows[_owner][workflowAmountOwned[_owner]] = _workflowId;\n        }\n        workflowOwner[_workflowId] = _owner;\n        workflowIndexInOwnerArray[_workflowId] = workflowAmountOwned[_owner];\n        workflowAmountOwned[_owner]++;\n    }\n}",
  "sourcePath": "/Users/allanjiang/Developer/dapps/cs359b-web-workflow-marketplace/contracts/ERC721.sol",
  "compiler": {
    "name": "solc",
    "version": "0.4.23+commit.124ca40d.Emscripten.clang"
  },
  "schemaVersion": "2.0.0",
  "updatedAt": "2018-05-14T19:42:43.975Z"
}