{
  "contractName": "Pot",
  "abi": [
    {
      "constant": true,
      "inputs": [],
      "name": "name",
      "outputs": [
        {
          "name": "",
          "type": "string"
        }
      ],
      "payable": false,
      "stateMutability": "view",
      "type": "function"
    },
    {
      "constant": false,
      "inputs": [
        {
          "name": "_spender",
          "type": "address"
        },
        {
          "name": "_value",
          "type": "uint256"
        }
      ],
      "name": "approve",
      "outputs": [
        {
          "name": "success",
          "type": "bool"
        }
      ],
      "payable": false,
      "stateMutability": "nonpayable",
      "type": "function"
    },
    {
      "constant": true,
      "inputs": [],
      "name": "totalSupply",
      "outputs": [
        {
          "name": "",
          "type": "uint256"
        }
      ],
      "payable": false,
      "stateMutability": "view",
      "type": "function"
    },
    {
      "constant": true,
      "inputs": [
        {
          "name": "",
          "type": "uint256"
        }
      ],
      "name": "betsAgainst",
      "outputs": [
        {
          "name": "",
          "type": "uint256"
        }
      ],
      "payable": false,
      "stateMutability": "view",
      "type": "function"
    },
    {
      "constant": false,
      "inputs": [
        {
          "name": "_from",
          "type": "address"
        },
        {
          "name": "_to",
          "type": "address"
        },
        {
          "name": "_value",
          "type": "uint256"
        }
      ],
      "name": "transferFrom",
      "outputs": [
        {
          "name": "success",
          "type": "bool"
        }
      ],
      "payable": false,
      "stateMutability": "nonpayable",
      "type": "function"
    },
    {
      "constant": true,
      "inputs": [],
      "name": "sumBetsFor",
      "outputs": [
        {
          "name": "",
          "type": "uint256"
        }
      ],
      "payable": false,
      "stateMutability": "view",
      "type": "function"
    },
    {
      "constant": true,
      "inputs": [
        {
          "name": "",
          "type": "address"
        }
      ],
      "name": "balances",
      "outputs": [
        {
          "name": "",
          "type": "uint256"
        }
      ],
      "payable": false,
      "stateMutability": "view",
      "type": "function"
    },
    {
      "constant": true,
      "inputs": [],
      "name": "decimals",
      "outputs": [
        {
          "name": "",
          "type": "uint8"
        }
      ],
      "payable": false,
      "stateMutability": "view",
      "type": "function"
    },
    {
      "constant": true,
      "inputs": [],
      "name": "_totalSupply",
      "outputs": [
        {
          "name": "",
          "type": "uint256"
        }
      ],
      "payable": false,
      "stateMutability": "view",
      "type": "function"
    },
    {
      "constant": true,
      "inputs": [],
      "name": "potId",
      "outputs": [
        {
          "name": "",
          "type": "uint256"
        }
      ],
      "payable": false,
      "stateMutability": "view",
      "type": "function"
    },
    {
      "constant": true,
      "inputs": [],
      "name": "starsStake",
      "outputs": [
        {
          "name": "",
          "type": "uint256"
        }
      ],
      "payable": false,
      "stateMutability": "view",
      "type": "function"
    },
    {
      "constant": true,
      "inputs": [
        {
          "name": "",
          "type": "uint256"
        }
      ],
      "name": "betsFor",
      "outputs": [
        {
          "name": "",
          "type": "uint256"
        }
      ],
      "payable": false,
      "stateMutability": "view",
      "type": "function"
    },
    {
      "constant": true,
      "inputs": [],
      "name": "result",
      "outputs": [
        {
          "name": "",
          "type": "uint8"
        }
      ],
      "payable": false,
      "stateMutability": "view",
      "type": "function"
    },
    {
      "constant": true,
      "inputs": [],
      "name": "potSize",
      "outputs": [
        {
          "name": "",
          "type": "uint256"
        }
      ],
      "payable": false,
      "stateMutability": "view",
      "type": "function"
    },
    {
      "constant": true,
      "inputs": [
        {
          "name": "_who",
          "type": "address"
        }
      ],
      "name": "balanceOf",
      "outputs": [
        {
          "name": "",
          "type": "uint256"
        }
      ],
      "payable": false,
      "stateMutability": "view",
      "type": "function"
    },
    {
      "constant": true,
      "inputs": [],
      "name": "sumBetsAgainst",
      "outputs": [
        {
          "name": "",
          "type": "uint256"
        }
      ],
      "payable": false,
      "stateMutability": "view",
      "type": "function"
    },
    {
      "constant": true,
      "inputs": [],
      "name": "symbol",
      "outputs": [
        {
          "name": "",
          "type": "string"
        }
      ],
      "payable": false,
      "stateMutability": "view",
      "type": "function"
    },
    {
      "constant": true,
      "inputs": [
        {
          "name": "",
          "type": "uint256"
        }
      ],
      "name": "bettorsAgainst",
      "outputs": [
        {
          "name": "",
          "type": "address"
        }
      ],
      "payable": false,
      "stateMutability": "view",
      "type": "function"
    },
    {
      "constant": false,
      "inputs": [
        {
          "name": "_to",
          "type": "address"
        },
        {
          "name": "_value",
          "type": "uint256"
        }
      ],
      "name": "transfer",
      "outputs": [
        {
          "name": "success",
          "type": "bool"
        }
      ],
      "payable": false,
      "stateMutability": "nonpayable",
      "type": "function"
    },
    {
      "constant": true,
      "inputs": [
        {
          "name": "_owner",
          "type": "address"
        },
        {
          "name": "_spender",
          "type": "address"
        }
      ],
      "name": "allowance",
      "outputs": [
        {
          "name": "remaining",
          "type": "uint256"
        }
      ],
      "payable": false,
      "stateMutability": "view",
      "type": "function"
    },
    {
      "constant": true,
      "inputs": [],
      "name": "workflowId",
      "outputs": [
        {
          "name": "",
          "type": "uint256"
        }
      ],
      "payable": false,
      "stateMutability": "view",
      "type": "function"
    },
    {
      "constant": true,
      "inputs": [
        {
          "name": "",
          "type": "uint256"
        }
      ],
      "name": "bettorsFor",
      "outputs": [
        {
          "name": "",
          "type": "address"
        }
      ],
      "payable": false,
      "stateMutability": "view",
      "type": "function"
    },
    {
      "inputs": [
        {
          "name": "_potId",
          "type": "uint256"
        },
        {
          "name": "_workflowId",
          "type": "uint256"
        },
        {
          "name": "_potSize",
          "type": "uint256"
        },
        {
          "name": "_starsStake",
          "type": "uint256"
        }
      ],
      "payable": false,
      "stateMutability": "nonpayable",
      "type": "constructor"
    },
    {
      "anonymous": false,
      "inputs": [
        {
          "indexed": false,
          "name": "_potId",
          "type": "uint256"
        },
        {
          "indexed": false,
          "name": "_betAmount",
          "type": "uint256"
        }
      ],
      "name": "BetPlaced",
      "type": "event"
    },
    {
      "anonymous": false,
      "inputs": [
        {
          "indexed": true,
          "name": "_address",
          "type": "address"
        },
        {
          "indexed": false,
          "name": "_balance",
          "type": "uint256"
        }
      ],
      "name": "BalanceChanged",
      "type": "event"
    },
    {
      "anonymous": false,
      "inputs": [
        {
          "indexed": true,
          "name": "_from",
          "type": "address"
        },
        {
          "indexed": true,
          "name": "_to",
          "type": "address"
        },
        {
          "indexed": false,
          "name": "_value",
          "type": "uint256"
        }
      ],
      "name": "Transfer",
      "type": "event"
    },
    {
      "anonymous": false,
      "inputs": [
        {
          "indexed": true,
          "name": "_owner",
          "type": "address"
        },
        {
          "indexed": true,
          "name": "_spender",
          "type": "address"
        },
        {
          "indexed": false,
          "name": "_value",
          "type": "uint256"
        }
      ],
      "name": "Approval",
      "type": "event"
    },
    {
      "constant": false,
      "inputs": [
        {
          "name": "bettor",
          "type": "address"
        },
        {
          "name": "_betFor",
          "type": "uint256"
        },
        {
          "name": "_betAgainst",
          "type": "uint256"
        }
      ],
      "name": "placeBet",
      "outputs": [],
      "payable": false,
      "stateMutability": "nonpayable",
      "type": "function"
    }
  ],
  "bytecode": "0x60806040526040805190810160405280600481526020017f436f696e00000000000000000000000000000000000000000000000000000000815250600090805190602001906200005192919062000148565b506040805190810160405280600d81526020017f576f726b666c6f77546f6b656e00000000000000000000000000000000000000815250600190805190602001906200009f92919062000148565b5062200b20600255348015620000b457600080fd5b50604051608080620014c983398101806040528101908080519060200190929190805190602001909291908051906020019092919080519060200190929190505050836005819055508260068190555081600781905550806008819055506000600c819055506000600e819055506000600f60006101000a81548160ff021916908360ff16021790555050505050620001f7565b828054600181600116156101000203166002900490600052602060002090601f016020900481019282601f106200018b57805160ff1916838001178555620001bc565b82800160010185558215620001bc579182015b82811115620001bb5782518255916020019190600101906200019e565b5b509050620001cb9190620001cf565b5090565b620001f491905b80821115620001f0576000816000905550600101620001d6565b5090565b90565b6112c280620002076000396000f300608060405260043610610133576000357c0100000000000000000000000000000000000000000000000000000000900463ffffffff16806306fdde0314610138578063095ea7b3146101c857806318160ddd1461022d5780631b06c4cb1461025857806323b872dd14610299578063247d139f1461031e57806327e235e314610349578063313ce567146103a05780633eaaf86b146103d15780634d8c8f71146103fc578063561a277114610427578063568ff6f114610452578063653721471461049357806368b6d55d146104c457806370a08231146104ef57806392a2605b1461054657806395d89b41146105715780639b4d83fd14610601578063a9059cbb1461066e578063dd62ed3e146106d3578063df6465d01461074a578063f231a4f614610775578063f241f9ba146107cc575b600080fd5b34801561014457600080fd5b5061014d610839565b6040518080602001828103825283818151815260200191508051906020019080838360005b8381101561018d578082015181840152602081019050610172565b50505050905090810190601f1680156101ba5780820380516001836020036101000a031916815260200191505b509250505060405180910390f35b3480156101d457600080fd5b50610213600480360381019080803573ffffffffffffffffffffffffffffffffffffffff169060200190929190803590602001909291905050506108d7565b604051808215151515815260200191505060405180910390f35b34801561023957600080fd5b506102426109c9565b6040518082815260200191505060405180910390f35b34801561026457600080fd5b50610283600480360381019080803590602001909291905050506109d3565b6040518082815260200191505060405180910390f35b3480156102a557600080fd5b50610304600480360381019080803573ffffffffffffffffffffffffffffffffffffffff169060200190929190803573ffffffffffffffffffffffffffffffffffffffff169060200190929190803590602001909291905050506109f6565b604051808215151515815260200191505060405180910390f35b34801561032a57600080fd5b50610333610c6e565b6040518082815260200191505060405180910390f35b34801561035557600080fd5b5061038a600480360381019080803573ffffffffffffffffffffffffffffffffffffffff169060200190929190505050610c74565b6040518082815260200191505060405180910390f35b3480156103ac57600080fd5b506103b5610c8c565b604051808260ff1660ff16815260200191505060405180910390f35b3480156103dd57600080fd5b506103e6610c91565b6040518082815260200191505060405180910390f35b34801561040857600080fd5b50610411610c97565b6040518082815260200191505060405180910390f35b34801561043357600080fd5b5061043c610c9d565b6040518082815260200191505060405180910390f35b34801561045e57600080fd5b5061047d60048036038101908080359060200190929190505050610ca3565b6040518082815260200191505060405180910390f35b34801561049f57600080fd5b506104a8610cc6565b604051808260ff1660ff16815260200191505060405180910390f35b3480156104d057600080fd5b506104d9610cd9565b6040518082815260200191505060405180910390f35b3480156104fb57600080fd5b50610530600480360381019080803573ffffffffffffffffffffffffffffffffffffffff169060200190929190505050610cdf565b6040518082815260200191505060405180910390f35b34801561055257600080fd5b5061055b610d28565b6040518082815260200191505060405180910390f35b34801561057d57600080fd5b50610586610d2e565b6040518080602001828103825283818151815260200191508051906020019080838360005b838110156105c65780820151818401526020810190506105ab565b50505050905090810190601f1680156105f35780820380516001836020036101000a031916815260200191505b509250505060405180910390f35b34801561060d57600080fd5b5061062c60048036038101908080359060200190929190505050610dcc565b604051808273ffffffffffffffffffffffffffffffffffffffff1673ffffffffffffffffffffffffffffffffffffffff16815260200191505060405180910390f35b34801561067a57600080fd5b506106b9600480360381019080803573ffffffffffffffffffffffffffffffffffffffff16906020019092919080359060200190929190505050610e0a565b604051808215151515815260200191505060405180910390f35b3480156106df57600080fd5b50610734600480360381019080803573ffffffffffffffffffffffffffffffffffffffff169060200190929190803573ffffffffffffffffffffffffffffffffffffffff169060200190929190505050610f6f565b6040518082815260200191505060405180910390f35b34801561075657600080fd5b5061075f610ff6565b6040518082815260200191505060405180910390f35b34801561078157600080fd5b506107ca600480360381019080803573ffffffffffffffffffffffffffffffffffffffff1690602001909291908035906020019092919080359060200190929190505050610ffc565b005b3480156107d857600080fd5b506107f760048036038101908080359060200190929190505050611258565b604051808273ffffffffffffffffffffffffffffffffffffffff1673ffffffffffffffffffffffffffffffffffffffff16815260200191505060405180910390f35b60018054600181600116156101000203166002900480601f0160208091040260200160405190810160405280929190818152602001828054600181600116156101000203166002900480156108cf5780601f106108a4576101008083540402835291602001916108cf565b820191906000526020600020905b8154815290600101906020018083116108b257829003601f168201915b505050505081565b600081600460003373ffffffffffffffffffffffffffffffffffffffff1673ffffffffffffffffffffffffffffffffffffffff16815260200190815260200160002060008573ffffffffffffffffffffffffffffffffffffffff1673ffffffffffffffffffffffffffffffffffffffff168152602001908152602001600020819055508273ffffffffffffffffffffffffffffffffffffffff163373ffffffffffffffffffffffffffffffffffffffff167f8c5be1e5ebec7d5bd14f71427d1e84f3dd0314c0f7b2291e5b200ac8c7c3b925846040518082815260200191505060405180910390a36001905092915050565b6000600254905090565b600d818154811015156109e257fe5b906000526020600020016000915090505481565b600081600460008673ffffffffffffffffffffffffffffffffffffffff1673ffffffffffffffffffffffffffffffffffffffff16815260200190815260200160002060003373ffffffffffffffffffffffffffffffffffffffff1673ffffffffffffffffffffffffffffffffffffffff1681526020019081526020016000205410158015610ac3575081600360008673ffffffffffffffffffffffffffffffffffffffff1673ffffffffffffffffffffffffffffffffffffffff1681526020019081526020016000205410155b8015610acf5750600082115b1515610ada57600080fd5b81600360008673ffffffffffffffffffffffffffffffffffffffff1673ffffffffffffffffffffffffffffffffffffffff1681526020019081526020016000206000828254039250508190555081600360008573ffffffffffffffffffffffffffffffffffffffff1673ffffffffffffffffffffffffffffffffffffffff1681526020019081526020016000206000828254019250508190555081600460008673ffffffffffffffffffffffffffffffffffffffff1673ffffffffffffffffffffffffffffffffffffffff16815260200190815260200160002060003373ffffffffffffffffffffffffffffffffffffffff1673ffffffffffffffffffffffffffffffffffffffff168152602001908152602001600020600082825403925050819055508273ffffffffffffffffffffffffffffffffffffffff168473ffffffffffffffffffffffffffffffffffffffff167fddf252ad1be2c89b69c2b068fc378daa952ba7f163c4a11628f55a4df523b3ef846040518082815260200191505060405180910390a3600190509392505050565b600c5481565b60036020528060005260406000206000915090505481565b601281565b60025481565b60055481565b60085481565b600b81815481101515610cb257fe5b906000526020600020016000915090505481565b600f60009054906101000a900460ff1681565b60075481565b6000600360008373ffffffffffffffffffffffffffffffffffffffff1673ffffffffffffffffffffffffffffffffffffffff168152602001908152602001600020549050919050565b600e5481565b60008054600181600116156101000203166002900480601f016020809104026020016040519081016040528092919081815260200182805460018160011615610100020316600290048015610dc45780601f10610d9957610100808354040283529160200191610dc4565b820191906000526020600020905b815481529060010190602001808311610da757829003601f168201915b505050505081565b600a81815481101515610ddb57fe5b906000526020600020016000915054906101000a900473ffffffffffffffffffffffffffffffffffffffff1681565b600081600360003373ffffffffffffffffffffffffffffffffffffffff1673ffffffffffffffffffffffffffffffffffffffff1681526020019081526020016000205410158015610e5b5750600082115b1515610e6657600080fd5b81600360003373ffffffffffffffffffffffffffffffffffffffff1673ffffffffffffffffffffffffffffffffffffffff1681526020019081526020016000206000828254039250508190555081600360008573ffffffffffffffffffffffffffffffffffffffff1673ffffffffffffffffffffffffffffffffffffffff168152602001908152602001600020600082825401925050819055508273ffffffffffffffffffffffffffffffffffffffff163373ffffffffffffffffffffffffffffffffffffffff167fddf252ad1be2c89b69c2b068fc378daa952ba7f163c4a11628f55a4df523b3ef846040518082815260200191505060405180910390a36001905092915050565b6000600460008473ffffffffffffffffffffffffffffffffffffffff1673ffffffffffffffffffffffffffffffffffffffff16815260200190815260200160002060008373ffffffffffffffffffffffffffffffffffffffff1673ffffffffffffffffffffffffffffffffffffffff16815260200190815260200160002054905092915050565b60065481565b60008183011415801561102157506000600f60009054906101000a900460ff1660ff16145b151561102c57600080fd5b600754600e54600c548385010101111515156110d6576040517f08c379a00000000000000000000000000000000000000000000000000000000081526004018080602001828103825260238152602001807f5468652062657420657863656564732072656d61696e696e6720706f7420736981526020017f7a6521000000000000000000000000000000000000000000000000000000000081525060400191505060405180910390fd5b600082111561119b5781600c6000828254019250508190555060098390806001815401808255809150509060018203906000526020600020016000909192909190916101000a81548173ffffffffffffffffffffffffffffffffffffffff021916908373ffffffffffffffffffffffffffffffffffffffff160217905550507fac7ba36fe6c4c7a9dd581814563bf9c3e83cbf25f9971fe6378954bce56ab45660055483604051808381526020018281526020019250505060405180910390a1611253565b80600e60008282540192505081905550600a8390806001815401808255809150509060018203906000526020600020016000909192909190916101000a81548173ffffffffffffffffffffffffffffffffffffffff021916908373ffffffffffffffffffffffffffffffffffffffff160217905550507fac7ba36fe6c4c7a9dd581814563bf9c3e83cbf25f9971fe6378954bce56ab45660055482604051808381526020018281526020019250505060405180910390a15b505050565b60098181548110151561126757fe5b906000526020600020016000915054906101000a900473ffffffffffffffffffffffffffffffffffffffff16815600a165627a7a7230582045f156f0825c1035ed3d02152c3929cbe07f269a5c548c7381c09a2c775e12770029",
  "source": "pragma solidity ^0.4.23;\n\nimport \"./Workflows.sol\";\nimport \"./WorkflowToken.sol\";\n\ncontract Pot is WorkflowToken {\n    uint256 public potId;\n    uint256 public workflowId;\n    uint256 public potSize;\n    uint256 public starsStake;\n    address[] public bettorsFor;\n    address[] public bettorsAgainst;\n    uint256[] public betsFor;\n    uint256 public sumBetsFor;\n    uint256[] public betsAgainst;\n    uint256 public sumBetsAgainst;\n    // result can be either 0 (Still accepting bets), 1 (For side won), 2 (Against side won), or 3 (Draw)\n    uint8 public result;\n\n    event BetPlaced(uint256 _potId, uint256 _betAmount);\n\n    constructor(uint256 _potId, uint256 _workflowId, uint256 _potSize, uint256 _starsStake) public {\n        potId = _potId;\n        workflowId = _workflowId;\n        potSize = _potSize;\n        starsStake = _starsStake;\n        sumBetsFor = 0;\n        sumBetsAgainst = 0;\n        result = 0;\n    }\n\n    function placeBet(address bettor, uint256 _betFor, uint256 _betAgainst) public {\n        // Check that the betAmount is not 0 and the pot is still open\n        require(_betFor + _betAgainst != 0 && result == 0);\n\n        // Check if the bet is valid\n        require(_betFor + _betAgainst + sumBetsFor + sumBetsAgainst <= potSize, \"The bet exceeds remaining pot size!\");\n\n        if (_betFor > 0) {\n            sumBetsFor += _betFor;\n            bettorsFor.push(bettor);\n            emit BetPlaced(potId, _betFor);\n        } else {\n            sumBetsAgainst += _betAgainst;\n            bettorsAgainst.push(bettor);\n            emit BetPlaced(potId, _betAgainst);\n        }   \n    }\n\n    // TODO: Complete this function to close the pot\n    //function awardWinners(address[] _winners, uint256[] _bets, uint256 _potSize, uint256 sumWinningBets) public {\n    //    uint256 numWinners = _bets.length;\n    //    for (uint256 i = 0; i < numWinners; i++) {\n    //        uint256 award = _potSize * _bets[i] / sumWinningBets;\n    //        transfer(_winners[i], award);\n    //    }\n    //}\n\n    // TODO: Complete this function to close the pot\n    //function closePot() public {\n    //    if (sumBetsFor > sumBetsAgainst) {\n            // awardWinners(bettorsFor, betsFor, potSize, sumBetsFor);\n    //        result = 1;\n    //    } else if (sumBetsFor < sumBetsAgainst) {\n            // awardWinners(bettorsAgainst, betsAgainst, potSize, sumBetsAgainst);\n    //        result = 2;\n    //    } else {\n            // uint256 numBettorsFor = betsFor.length;\n            // for (uint256 i = 0; i < numBettorsFor; i++) {\n            //    transfer(bettorsFor[i], betsFor[i]);\n            // }\n            // uint256 numBettorsAgainst = betsAgainst.length;\n            // for (uint256 j = 0; j < numBettorsAgainst; j++) {\n            //    transfer(bettorsAgainst[j], betsAgainst[j]);\n            //}\n    //        result = 3;\n    //    }\n    //}\n}\n\ncontract Reputation is Workflows, WorkflowToken {\n    // Map potIds to Pot contracts\n    mapping(uint256 => Pot) public pots;\n\n    // Map potIds to addresses of Pot contracts\n    mapping(uint256 => address) public potAddresses;\n\n    // Number of total pots\n    uint256 public totalPots;\n\n    // Map workflow ids to boolean value to keep track of which workflow exists\n    mapping(uint256 => bool) public existingPotIds;\n    uint256[] public potIds;\n\n    // Events\n    event PotCreated(address indexed _address, uint256 _workflowID, uint256 _potSize);\n\n    function createPot(uint256 _workflowId, uint256 _potSize, uint256 _starsStake) \n        public returns (bool success) {\n        // Require that the workflowId is owned by msg.sender\n        require(workflowOwner[_workflowId] == msg.sender);\n        // Require that the workflow has enough stars to stake\n        require(workflows[_workflowId].totalStars >= _starsStake);\n\n        // Create a new pot\n        uint256 _potId = totalPots;\n        pots[_potId] = new Pot(_potId, _workflowId, _potSize, _starsStake);\n        existingPotIds[_potId] = true;\n        potIds.push(_potId);\n        totalPots++;\n\n        emit PotCreated(msg.sender, _workflowId, _potSize);\n        return true;\n    }\n\n    function seePotDetails(uint256 _potId) public view\n        returns (uint256, uint256, uint256, uint256, uint256, uint8) {\n        // Require that the pot exists\n        require(existingPotIds[_potId] == true);\n\n        return (_potId, pots[_potId].workflowId(), pots[_potId].potSize(), pots[_potId].sumBetsFor(), \n            pots[_potId].sumBetsAgainst(), pots[_potId].result());\n    }\n\n    function sendBet(uint256 _potId, uint256 _betFor, uint256 _betAgainst) public returns (bool success) {\n        // Require that either _betFor or _betAgainst has to be 0\n        require(_betFor == 0 || _betAgainst == 0);\n        // Check that the betAmount is not 0 and the pot is still open\n        require(_betFor + _betAgainst != 0 && existingPotIds[_potId] == true && pots[_potId].result() == 0);\n        // Check that msg.sender has enough fund\n        require(balances[msg.sender] >= _betFor + _betAgainst);\n        \n        Pot pot = Pot(address(pots[_potId]));\n\n        // Send the money to Contract Pot\n        if (_betFor > 0) {\n            require(balances[msg.sender] >= _betFor);\n            // Call the placeBet function in Contract Pot\n            pot.placeBet(msg.sender, _betFor, _betAgainst);\n            transfer(address(pots[_potId]), _betFor);\n        } else {\n            require(balances[msg.sender] >= _betAgainst);\n            // Call the placeBet function in Contract Pot\n            pot.placeBet(msg.sender, _betFor, _betAgainst);\n            transfer(address(pots[_potId]), _betAgainst);\n        }\n        \n        // TODO: Return money to bettors once the pot reaches its limit\n\n        return true;\n    }\n\n    function getAllPotsOnMarket() public view returns (uint256[]) {\n        return potIds;\n    }\n\n}",
  "sourcePath": "/Users/allanjiang/Developer/dapps/cs359b-web-workflow-marketplace/contracts/Reputation.sol",
  "compiler": {
    "name": "solc",
    "version": "0.4.23+commit.124ca40d.Emscripten.clang"
  },
  "schemaVersion": "2.0.0",
  "updatedAt": "2018-05-14T18:26:26.590Z"
}