{
  "contractName": "Reputation",
  "abi": [
    {
      "constant": true,
      "inputs": [
        {
          "name": "",
          "type": "address"
        },
        {
          "name": "",
          "type": "uint256"
        }
      ],
      "name": "ratingAccounts",
      "outputs": [
        {
          "name": "from",
          "type": "address"
        },
        {
          "name": "ratingNumber",
          "type": "uint256"
        }
      ],
      "payable": false,
      "stateMutability": "view",
      "type": "function"
    },
    {
      "constant": true,
      "inputs": [
        {
          "name": "",
          "type": "address"
        },
        {
          "name": "",
          "type": "uint256"
        }
      ],
      "name": "workflowAccounts",
      "outputs": [
        {
          "name": "name",
          "type": "string"
        },
        {
          "name": "numExe",
          "type": "uint256"
        },
        {
          "name": "numSuccess",
          "type": "uint256"
        }
      ],
      "payable": false,
      "stateMutability": "view",
      "type": "function"
    },
    {
      "constant": true,
      "inputs": [
        {
          "name": "",
          "type": "address"
        }
      ],
      "name": "balances",
      "outputs": [
        {
          "name": "",
          "type": "uint256"
        }
      ],
      "payable": false,
      "stateMutability": "view",
      "type": "function"
    },
    {
      "constant": true,
      "inputs": [
        {
          "name": "",
          "type": "address"
        },
        {
          "name": "",
          "type": "uint256"
        }
      ],
      "name": "potAccounts",
      "outputs": [
        {
          "name": "workflow",
          "type": "uint256"
        },
        {
          "name": "potSize",
          "type": "uint256"
        },
        {
          "name": "betFor",
          "type": "uint256"
        },
        {
          "name": "betAgainst",
          "type": "uint256"
        }
      ],
      "payable": false,
      "stateMutability": "view",
      "type": "function"
    },
    {
      "inputs": [],
      "payable": false,
      "stateMutability": "nonpayable",
      "type": "constructor"
    },
    {
      "anonymous": false,
      "inputs": [
        {
          "indexed": true,
          "name": "_address",
          "type": "address"
        },
        {
          "indexed": false,
          "name": "_success",
          "type": "bool"
        }
      ],
      "name": "CreatorRatingChanged",
      "type": "event"
    },
    {
      "anonymous": false,
      "inputs": [
        {
          "indexed": true,
          "name": "_address",
          "type": "address"
        },
        {
          "indexed": false,
          "name": "_workflowID",
          "type": "uint256"
        },
        {
          "indexed": false,
          "name": "_success",
          "type": "bool"
        }
      ],
      "name": "WorkflowRatingChanged",
      "type": "event"
    },
    {
      "anonymous": false,
      "inputs": [
        {
          "indexed": true,
          "name": "_address",
          "type": "address"
        },
        {
          "indexed": false,
          "name": "_workflowID",
          "type": "uint256"
        },
        {
          "indexed": false,
          "name": "_potSize",
          "type": "uint256"
        }
      ],
      "name": "PotCreated",
      "type": "event"
    },
    {
      "anonymous": false,
      "inputs": [
        {
          "indexed": true,
          "name": "_address",
          "type": "address"
        },
        {
          "indexed": false,
          "name": "_betFor",
          "type": "uint256"
        },
        {
          "indexed": false,
          "name": "_betAgainst",
          "type": "uint256"
        }
      ],
      "name": "BetPlaced",
      "type": "event"
    },
    {
      "constant": false,
      "inputs": [
        {
          "name": "_to",
          "type": "address"
        },
        {
          "name": "_value",
          "type": "uint256"
        }
      ],
      "name": "rateCreator",
      "outputs": [
        {
          "name": "success",
          "type": "bool"
        }
      ],
      "payable": false,
      "stateMutability": "nonpayable",
      "type": "function"
    },
    {
      "constant": false,
      "inputs": [
        {
          "name": "_to",
          "type": "address"
        },
        {
          "name": "_workflowID",
          "type": "uint256"
        },
        {
          "name": "_value",
          "type": "uint256"
        }
      ],
      "name": "rateWorkflow",
      "outputs": [
        {
          "name": "success",
          "type": "bool"
        }
      ],
      "payable": false,
      "stateMutability": "nonpayable",
      "type": "function"
    },
    {
      "constant": false,
      "inputs": [
        {
          "name": "_workflowID",
          "type": "uint256"
        },
        {
          "name": "_potSize",
          "type": "uint256"
        }
      ],
      "name": "createPot",
      "outputs": [
        {
          "name": "success",
          "type": "bool"
        }
      ],
      "payable": false,
      "stateMutability": "nonpayable",
      "type": "function"
    },
    {
      "constant": false,
      "inputs": [
        {
          "name": "_potOwner",
          "type": "address"
        },
        {
          "name": "_potID",
          "type": "uint256"
        },
        {
          "name": "_betFor",
          "type": "uint256"
        },
        {
          "name": "_betAgainst",
          "type": "uint256"
        }
      ],
      "name": "bet",
      "outputs": [
        {
          "name": "success",
          "type": "bool"
        }
      ],
      "payable": false,
      "stateMutability": "nonpayable",
      "type": "function"
    }
  ],
  "bytecode": "0x608060405234801561001057600080fd5b50336000806101000a81548173ffffffffffffffffffffffffffffffffffffffff021916908373ffffffffffffffffffffffffffffffffffffffff160217905550611271806100606000396000f30060806040526004361061008e576000357c0100000000000000000000000000000000000000000000000000000000900463ffffffff16806301f72f9b146100935780632691c8821461012757806327e235e3146101fb5780635001042714610252578063858f91fd146102cb57806389e3019114610330578063b3cf3dfa1461039f578063ba8db666146103ee575b600080fd5b34801561009f57600080fd5b506100de600480360381019080803573ffffffffffffffffffffffffffffffffffffffff16906020019092919080359060200190929190505050610464565b604051808373ffffffffffffffffffffffffffffffffffffffff1673ffffffffffffffffffffffffffffffffffffffff1681526020018281526020019250505060405180910390f35b34801561013357600080fd5b50610172600480360381019080803573ffffffffffffffffffffffffffffffffffffffff169060200190929190803590602001909291905050506104c4565b6040518080602001848152602001838152602001828103825285818151815260200191508051906020019080838360005b838110156101be5780820151818401526020810190506101a3565b50505050905090810190601f1680156101eb5780820380516001836020036101000a031916815260200191505b5094505050505060405180910390f35b34801561020757600080fd5b5061023c600480360381019080803573ffffffffffffffffffffffffffffffffffffffff1690602001909291905050506105a2565b6040518082815260200191505060405180910390f35b34801561025e57600080fd5b506102b1600480360381019080803573ffffffffffffffffffffffffffffffffffffffff1690602001909291908035906020019092919080359060200190929190803590602001909291905050506105ba565b604051808215151515815260200191505060405180910390f35b3480156102d757600080fd5b50610316600480360381019080803573ffffffffffffffffffffffffffffffffffffffff16906020019092919080359060200190929190505050610a32565b604051808215151515815260200191505060405180910390f35b34801561033c57600080fd5b50610385600480360381019080803573ffffffffffffffffffffffffffffffffffffffff1690602001909291908035906020019092919080359060200190929190505050610c44565b604051808215151515815260200191505060405180910390f35b3480156103ab57600080fd5b506103d46004803603810190808035906020019092919080359060200190929190505050610eda565b604051808215151515815260200191505060405180910390f35b3480156103fa57600080fd5b50610439600480360381019080803573ffffffffffffffffffffffffffffffffffffffff169060200190929190803590602001909291905050506110cc565b6040518085815260200184815260200183815260200182815260200194505050505060405180910390f35b60016020528160005260406000208181548110151561047f57fe5b9060005260206000209060020201600091509150508060000160009054906101000a900473ffffffffffffffffffffffffffffffffffffffff16908060010154905082565b6002602052816000526040600020818154811015156104df57fe5b906000526020600020906004020160009150915050806000018054600181600116156101000203166002900480601f01602080910402602001604051908101604052809291908181526020018280546001816001161561010002031660029004801561058c5780601f106105615761010080835404028352916020019161058c565b820191906000526020600020905b81548152906001019060200180831161056f57829003601f168201915b5050505050908060010154908060020154905083565b60036020528060005260406000206000915090505481565b6000600460008673ffffffffffffffffffffffffffffffffffffffff1673ffffffffffffffffffffffffffffffffffffffff1681526020019081526020016000208481548110151561060857fe5b906000526020600020906005020160010154600460008773ffffffffffffffffffffffffffffffffffffffff1673ffffffffffffffffffffffffffffffffffffffff1681526020019081526020016000208581548110151561066657fe5b906000526020600020906005020160040154600460008873ffffffffffffffffffffffffffffffffffffffff1673ffffffffffffffffffffffffffffffffffffffff168152602001908152602001600020868154811015156106c457fe5b906000526020600020906005020160030154011015156106e357600080fd5b600083101580156106f5575060008210155b801561070357506000828401115b151561070e57600080fd5b600460008673ffffffffffffffffffffffffffffffffffffffff1673ffffffffffffffffffffffffffffffffffffffff1681526020019081526020016000208481548110151561075a57fe5b906000526020600020906005020160010154600460008773ffffffffffffffffffffffffffffffffffffffff1673ffffffffffffffffffffffffffffffffffffffff168152602001908152602001600020858154811015156107b857fe5b906000526020600020906005020160040154600460008873ffffffffffffffffffffffffffffffffffffffff1673ffffffffffffffffffffffffffffffffffffffff1681526020019081526020016000208681548110151561081657fe5b90600052602060002090600502016003015484860101011115151561083a57600080fd5b82600460008773ffffffffffffffffffffffffffffffffffffffff1673ffffffffffffffffffffffffffffffffffffffff1681526020019081526020016000208581548110151561088757fe5b90600052602060002090600502016003016000828254019250508190555081600460008773ffffffffffffffffffffffffffffffffffffffff1673ffffffffffffffffffffffffffffffffffffffff168152602001908152602001600020858154811015156108f257fe5b906000526020600020906005020160030160008282540192505081905550600460008673ffffffffffffffffffffffffffffffffffffffff1673ffffffffffffffffffffffffffffffffffffffff1681526020019081526020016000208481548110151561095c57fe5b90600052602060002090600502016002013390806001815401808255809150509060018203906000526020600020016000909192909190916101000a81548173ffffffffffffffffffffffffffffffffffffffff021916908373ffffffffffffffffffffffffffffffffffffffff160217905550508473ffffffffffffffffffffffffffffffffffffffff167e1ecf1d0c4d22f324b3ecb9cdf0e5f772bc74ac104e6626f4b3845433d031058484604051808381526020018281526020019250505060405180910390a260019050949350505050565b6000610a3c611118565b8373ffffffffffffffffffffffffffffffffffffffff163373ffffffffffffffffffffffffffffffffffffffff1614151515610a7757600080fd5b6000600260008673ffffffffffffffffffffffffffffffffffffffff1673ffffffffffffffffffffffffffffffffffffffff16815260200190815260200160002080549050111515610ac857600080fd5b60058311158015610ada575060008310155b1515610ae557600080fd5b33816000019073ffffffffffffffffffffffffffffffffffffffff16908173ffffffffffffffffffffffffffffffffffffffff168152505082816020018181525050600160008573ffffffffffffffffffffffffffffffffffffffff1673ffffffffffffffffffffffffffffffffffffffff168152602001908152602001600020819080600181540180825580915050906001820390600052602060002090600202016000909192909190915060008201518160000160006101000a81548173ffffffffffffffffffffffffffffffffffffffff021916908373ffffffffffffffffffffffffffffffffffffffff160217905550602082015181600101555050508373ffffffffffffffffffffffffffffffffffffffff167f205ad2fe850192e1c60431841c7690c83d0f46f4623803315544bfaa0f5a67b06001604051808215151515815260200191505060405180910390a2600191505092915050565b6000610c4e611118565b8473ffffffffffffffffffffffffffffffffffffffff163373ffffffffffffffffffffffffffffffffffffffff1614151515610c8957600080fd5b6000600260008773ffffffffffffffffffffffffffffffffffffffff1673ffffffffffffffffffffffffffffffffffffffff16815260200190815260200160002080549050111515610cda57600080fd5b600260008673ffffffffffffffffffffffffffffffffffffffff1673ffffffffffffffffffffffffffffffffffffffff1681526020019081526020016000208054905084108015610d2c575060008410155b1515610d3757600080fd5b60058311158015610d49575060008310155b1515610d5457600080fd5b33816000019073ffffffffffffffffffffffffffffffffffffffff16908173ffffffffffffffffffffffffffffffffffffffff168152505082816020018181525050600260008673ffffffffffffffffffffffffffffffffffffffff1673ffffffffffffffffffffffffffffffffffffffff16815260200190815260200160002084815481101515610de257fe5b9060005260206000209060040201600301819080600181540180825580915050906001820390600052602060002090600202016000909192909190915060008201518160000160006101000a81548173ffffffffffffffffffffffffffffffffffffffff021916908373ffffffffffffffffffffffffffffffffffffffff160217905550602082015181600101555050508473ffffffffffffffffffffffffffffffffffffffff167f0b2e786461c68324cbc73c7f16efee82ba071bbdedfe554c677032254721a6ca85600160405180838152602001821515151581526020019250505060405180910390a260019150509392505050565b6000610ee4611148565b6000600260003373ffffffffffffffffffffffffffffffffffffffff1673ffffffffffffffffffffffffffffffffffffffff16815260200190815260200160002080549050111515610f3557600080fd5b600260003373ffffffffffffffffffffffffffffffffffffffff1673ffffffffffffffffffffffffffffffffffffffff1681526020019081526020016000208054905084108015610f87575060008410155b1515610f9257600080fd5b838160000181815250508281602001818152505060008160600181815250506000816080018181525050600460003373ffffffffffffffffffffffffffffffffffffffff1673ffffffffffffffffffffffffffffffffffffffff168152602001908152602001600020819080600181540180825580915050906001820390600052602060002090600502016000909192909190915060008201518160000155602082015181600101556040820151816002019080519060200190611057929190611178565b5060608201518160030155608082015181600401555050503373ffffffffffffffffffffffffffffffffffffffff167ff615a4f86e7672d1d9169781ec31297de88207d3083e615062f01087c93f8b3b8585604051808381526020018281526020019250505060405180910390a25092915050565b6004602052816000526040600020818154811015156110e757fe5b9060005260206000209060050201600091509150508060000154908060010154908060030154908060040154905084565b6040805190810160405280600073ffffffffffffffffffffffffffffffffffffffff168152602001600081525090565b60a06040519081016040528060008152602001600081526020016060815260200160008152602001600081525090565b8280548282559060005260206000209081019282156111f1579160200282015b828111156111f05782518260006101000a81548173ffffffffffffffffffffffffffffffffffffffff021916908373ffffffffffffffffffffffffffffffffffffffff16021790555091602001919060010190611198565b5b5090506111fe9190611202565b5090565b61124291905b8082111561123e57600081816101000a81549073ffffffffffffffffffffffffffffffffffffffff021916905550600101611208565b5090565b905600a165627a7a723058201c5358310ca90d9cd6ff01c38c853f68377e2660684c4b15d711f2d71dbc77d50029",
  "source": "pragma solidity ^0.4.21;\n\n/// @title ERC-721 Non-Fungible Token Standard\n/// @dev See https://github.com/ethereum/EIPs/blob/master/EIPS/eip-721.md\n///  Note: the ERC-165 identifier for this interface is 0x80ac58cd\ncontract ERC721Basic /* is ERC165 */ {\n    /// @dev This emits when ownership of any NFT changes by any mechanism.\n    ///  This event emits when NFTs are created (`from` == 0) and destroyed\n    ///  (`to` == 0). Exception: during contract creation, any number of NFTs\n    ///  may be created and assigned without emitting Transfer. At the time of\n    ///  any transfer, the approved address for that NFT (if any) is reset to none.\n    event WorkflowTransfer(address indexed _from, address indexed _to, uint256 _tokenId);\n\n    /// @dev This emits when the approved address for an NFT is changed or\n    ///  reaffirmed. The zero address indicates there is no approved address.\n    ///  When a Transfer event emits, this also indicates that the approved\n    ///  address for that NFT (if any) is reset to none.\n    event WorkflowApproval(address indexed _owner, address indexed _approved, uint256 _tokenId);\n\n    /// @dev This emits when an operator is enabled or disabled for an owner.\n    ///  The operator can manage all NFTs of the owner.\n    event WorkflowApprovalForAll(address indexed _owner, address indexed _operator, bool _approved);\n\n    event WorkflowCreated(uint256 _tokenId, address _owner);\n\n    /// @notice Count NFTs tracked by this contract\n    /// @return A count of valid NFTs tracked by this contract, where each one of\n    ///  them has an assigned and queryable owner not equal to the zero address\n    function totalWorkflowSupply() public view returns (uint256);\n\n    /// @notice Count all NFTs assigned to an owner\n    /// @dev NFTs assigned to the zero address are considered invalid, and this\n    ///  function throws for queries about the zero address.\n    /// @param _owner An address for whom to query the balance\n    /// @return The number of NFTs owned by `_owner`, possibly zero\n    function workflowBalanceOf(address _owner) public view returns (uint256);\n\n    /// @notice Find the owner of an NFT\n    /// @dev NFTs assigned to zero address are considered invalid, and queries\n    ///  about them do throw.\n    /// @param _tokenId The identifier for an NFT\n    /// @return The address of the owner of the NFT\n    /// function ownerOfWorkflow(uint256 _tokenId) public view returns (address);\n\n    // @notice Transfers the ownership of an NFT to an address\n    ///function transferWorkflow(address _to, uint256 _tokenId) public view returns(bool);\n\n    /// @notice Transfer ownership of an NFT -- THE CALLER IS RESPONSIBLE\n    ///  TO CONFIRM THAT `_to` IS CAPABLE OF RECEIVING NFTS OR ELSE\n    ///  THEY MAY BE PERMANENTLY LOST\n    /// @dev Throws unless `msg.sender` is the current owner, an authorized\n    ///  operator, or the approved address for this NFT. Throws if `_from` is\n    ///  not the current owner. Throws if `_to` is the zero address. Throws if\n    ///  `_tokenId` is not a valid NFT.\n    /// @param _from The current owner of the NFT\n    /// @param _to The new owner\n    /// @param _tokenId The NFT to transfer\n    /// function transferWorkflowFrom(address _from, address _to, uint256 _tokenId) external payable;\n\n    /// @notice Set or reaffirm the approved address for an NFT\n    /// @dev The zero address indicates there is no approved address.\n    /// @dev Throws unless `msg.sender` is the current NFT owner, or an authorized\n    ///  operator of the current owner.\n    /// @param _approved The new approved NFT controller\n    /// @param _tokenId The NFT to approve\n    /// function approveWorkflow(address _approved, uint256 _tokenId) public payable;\n}\n\n/**\n * @title ERC20 interface\n * @dev see https://github.com/ethereum/EIPs/issues/20\n */\ncontract ERC20 {\n    function totalSupply() public view returns (uint256);\n\n    function balanceOf(address _who) public view returns (uint256);\n    function transfer(address _to, uint256 _value) public returns (bool);\n\n    function allowance(address _owner, address _spender) public view returns (uint256);\n    function transferFrom(address _from, address _to, uint256 _value) public returns (bool);\n    function approve(address _spender, uint256 _value) public returns (bool);\n\n    event Transfer(address indexed _from, address indexed _to, uint256 _value);\n    event Approval(address indexed _owner, address indexed _spender, uint256 _value);\n}\n\n\n/**\n * @title ERC-721 Non-Fungible Token Standard, full implementation interface\n * @dev See https://github.com/ethereum/EIPs/blob/master/EIPS/eip-721.md\n */\ncontract ERC721 is ERC721Basic {\n    uint256 public totalWorkflows;\n\n    // Array of owned workflows for a user\n    mapping(address => uint256[]) public ownedWorkflows;\n\n    // Number of workflows owned by each user\n    mapping(address => uint256) workflowAmountOwned;\n\n    //\n    mapping(uint256 => uint256) workflowIndexInOwnerArray;\n\n    // Mapping from workflow ID to owner\n    mapping(uint256 => address) public workflowOwner;\n\n    /**\n     * Override ERC721.sol\n     */\n    function totalWorkflowSupply() public view returns (uint256) {\n        return totalWorkflows;\n    }\n\n    /**\n     * Override ERC721Basic.sol\n     */\n    function workflowBalanceOf(address _owner) public view returns (uint256) {\n        return workflowAmountOwned[_owner];\n    }\n\n    /**\n     * Override ERC721Basic.sol\n     */\n    function ownerOfWorkflow(uint256 _workflowId) public view returns (address) {\n        return workflowOwner[_workflowId];\n    }\n\n    function getAllWorkflows(address _owner) public view returns (uint256[]) {\n        uint256 size = workflowAmountOwned[_owner];\n        uint256[] memory result = new uint256[](size);\n        for (uint i = 0; i < size; i++) {\n            result[i] = ownedWorkflows[_owner][i];\n        }\n        return result;\n    }\n\n    function _addTokenTo(address _owner, uint256 _workflowId) internal {\n        if (ownedWorkflows[_owner].length == workflowAmountOwned[_owner]) {\n            ownedWorkflows[_owner].push(_workflowId);\n        } else {\n            ownedWorkflows[_owner][workflowAmountOwned[_owner]] = _workflowId;\n        }\n        workflowOwner[_workflowId] = _owner;\n        workflowIndexInOwnerArray[_workflowId] = workflowAmountOwned[_owner];\n        workflowAmountOwned[_owner]++;\n    }\n}\n\n\ncontract Migrations {\n    address public owner;\n    uint public last_completed_migration;\n\n    modifier restricted() {\n        if (msg.sender == owner) _;\n    }\n\n    function Migrations() public {\n        owner = msg.sender;\n    }\n\n    function setCompleted(uint completed) public restricted {\n        last_completed_migration = completed;\n    }\n\n    function upgrade(address new_address) public restricted {\n        Migrations upgraded = Migrations(new_address);\n        upgraded.setCompleted(last_completed_migration);\n    }\n}\n\ncontract Channel {\n\n}\n\ncontract Reputation {\n    struct Workflow {\n        string name;\n        uint256 numExe;\n        uint256 numSuccess;\n        Rating[] workflowRatings;\n    }\n\n    struct Rating {\n        address from;\n        uint256 ratingNumber;\n    }\n\n    struct Pot {\n        uint256 workflow;\n        uint256 potSize;\n        address[] bettors;\n        uint256 betFor;\n        uint256 betAgainst;\n    }\n\n    address creator;\n    mapping (address => Rating[]) public ratingAccounts;\n    mapping (address => Workflow[]) public workflowAccounts;\n    mapping (address => uint256) public balances;\n    mapping (address => Pot[]) public potAccounts;\n    event CreatorRatingChanged(address indexed _address, bool _success);\n    event WorkflowRatingChanged(address indexed _address, uint256 _workflowID, bool _success);\n    event PotCreated(address indexed _address, uint256 _workflowID, uint256 _potSize);\n    event BetPlaced(address indexed _address, uint256 _betFor, uint256 _betAgainst);\n\n    function Reputation() public {\n        creator = msg.sender;\n    }\n\n    function rateCreator(address _to, uint256 _value) public returns (bool success) {\n        // the message sender cannot rate itself\n        require(msg.sender != _to);\n        // the person being rated must authored contracts\n        require(workflowAccounts[_to].length > 0);\n        // the rating has to be between 0 and 5\n        require(_value <= 5 && _value >= 0);\n\n        Rating memory newRating;\n        newRating.from = msg.sender;\n        newRating.ratingNumber = _value;\n\n        ratingAccounts[_to].push(newRating);\n        emit CreatorRatingChanged(_to, true);\n\n        return true;\n    }\n\n    function rateWorkflow(address _to, uint256 _workflowID, uint256 _value) public returns (bool success) {\n         // the message sender cannot rate itself\n        require(msg.sender != _to);\n        // the workflowID is within bound\n        require(workflowAccounts[_to].length > 0);\n        require(_workflowID < workflowAccounts[_to].length && _workflowID >= 0);\n        // the rating has to be between 0 and 5\n        require(_value <= 5 && _value >= 0);\n\n        Rating memory newRating;\n        newRating.from = msg.sender;\n        newRating.ratingNumber = _value;\n\n        workflowAccounts[_to][_workflowID].workflowRatings.push(newRating);\n        emit WorkflowRatingChanged(_to, _workflowID, true);\n        return true;\n    }\n\n    function createPot(uint256 _workflowID, uint256 _potSize) public returns (bool success) {\n        // the workflowID is within bound\n        require(workflowAccounts[msg.sender].length > 0);\n        require(_workflowID < workflowAccounts[msg.sender].length && _workflowID >= 0);\n\n        Pot memory newPot;\n        newPot.workflow = _workflowID;\n        newPot.potSize = _potSize;\n        newPot.betFor = 0;\n        newPot.betAgainst = 0;\n\n        potAccounts[msg.sender].push(newPot);\n        emit PotCreated(msg.sender, _workflowID, _potSize);\n    }\n\n    function bet(address _potOwner, uint256 _potID, uint256 _betFor, uint256 _betAgainst) public returns (bool success) {\n        // Check if the pot size has been reached\n        require(potAccounts[_potOwner][_potID].betFor + potAccounts[_potOwner][_potID].betAgainst < potAccounts[_potOwner][_potID].potSize);\n\n        // Check if the bet is valid\n        require(_betFor >= 0 && _betAgainst >= 0 && _betFor + _betAgainst > 0);\n        require(_betFor + _betAgainst + potAccounts[_potOwner][_potID].betFor + potAccounts[_potOwner][_potID].betAgainst <= potAccounts[_potOwner][_potID].potSize);\n\n        potAccounts[_potOwner][_potID].betFor += _betFor;\n        potAccounts[_potOwner][_potID].betFor += _betAgainst;\n        potAccounts[_potOwner][_potID].bettors.push(msg.sender);\n\n        emit BetPlaced(_potOwner, _betFor, _betAgainst);\n        return true;\n    }\n\n    // function betResult: TBD\n}\n// Credit: https://github.com/alex-miller-0/eth-dev-101/blob/master/truffle/contracts/TokenChannelsV2.sol\n/**\n * Version two of the TokenChannels contract\n * Adds nonces to the messages as well as the notion of a challenge period.\n * Either party may challenge the closing channel if they have a message with\n * a higher nonce than the one currently recorded in the channel.\n */\n\ncontract TokenChannels {\n\n  //============================================================================\n  // GLOBAL VARIABLES\n  //============================================================================\n\n  // Only one channel may be open for any two participants at any one time\n  struct Channel {\n    address sender;\n    address recipient;\n    address token;\n    uint deposit;\n    uint challenge;\n    uint nonce;\n    uint closeTime;\n    uint value;\n  }\n  mapping (address => uint) balances;\n\n  mapping (bytes32 => Channel) channels;\n  mapping (address => mapping(address => bytes32)) active_ids;\n\n\n  //============================================================================\n  // STATE TRANSITION FUNCTIONS\n  //============================================================================\n\n  /**\n   * Open a channel with a recipient. A non-zero message value must be included.\n   *\n   * address token    Address of token contract\n   * address to       Address of recipient\n   * uint amount      Number of token quanta to send\n   */\n  function OpenChannel(address token, address to, uint amount, uint challenge) public {\n    // Sanity checks\n    require(amount != 0);\n    require(to != msg.sender);\n    require(active_ids[msg.sender][to] == bytes32(0));\n\n    // Create a channel\n    bytes32 id = keccak256(msg.sender, to, now);\n\n    // Initialize the channel\n    Channel memory _channel;\n    _channel.deposit = amount;\n    _channel.sender = msg.sender;\n    _channel.recipient = to;\n    _channel.token = token;\n    _channel.challenge = challenge;\n\n    // Make the deposit\n    ERC20 t = ERC20(token);\n    require(t.transferFrom(msg.sender, address(this), amount));\n\n    channels[id] = _channel;\n\n    // Add it to the lookup table\n    active_ids[msg.sender][to] = id;\n  }\n\n\n  /**\n   * Close a channel at any time. May only be called by recipient.\n   * The \"value\" is sent to the recipient and the remainder is refunded to the sender.\n   *\n   * bytes32  h         [ id, msg_hash, r, s ]\n   * uint8    v         Component of signature of \"h\" coming from sender\n   * uint     value     Amount of wei sent\n   * uint     nonce     Number to be hashed with the value to form the message\n   */\n  function CloseChannel(bytes32[4] h, uint8 v, uint256 value, uint256 nonce) public {\n    // h[0]    Channel id\n    // h[1]    Hash of (id, value)\n    // h[2]    r of signature\n    // h[3]    s of signature\n\n    // Grab the channel in question\n    require(channels[h[0]].deposit != 0);\n    Channel memory _channel;\n    _channel = channels[h[0]];\n\n    // Only the recipient can close a channel\n    require(msg.sender == _channel.recipient);\n\n    address signer = ecrecover(h[1], v, h[2], h[3]);\n    require(signer == _channel.sender);\n\n    // Make sure the hash provided is of the channel id and the amount sent\n    bytes32 proof = keccak256(h[0], value, nonce);\n\n    // Ensure the proof matches, send the value, send the remainder, and delete the channel\n    require(proof == h[1]);\n    require(value <= _channel.deposit);\n\n    if (_channel.challenge == 0) {\n      // If there's no challenge period, close out the channel immediately.\n\n      // Pay recipient and refund sender the remainder\n      ERC20 t = ERC20(channels[h[0]].token);\n      require(t.transfer(channels[h[0]].recipient, channels[h[0]].value));\n      require(t.transfer(channels[h[0]].sender, channels[h[0]].deposit-channels[h[0]].value));\n\n      // Delete the channel\n      delete active_ids[channels[h[0]].sender][channels[h[0]].recipient];\n      delete channels[h[0]];\n    } else {\n      // Copy the data to the state and allow challenges\n\n      _channel.nonce = nonce;\n      _channel.value = value;\n      _channel.closeTime = now;\n      channels[h[0]] = _channel;\n    }\n  }\n\n\n  /**\n   * During the challenge period, either party may submit a proof that contains\n   * a higher nonce.\n   *\n   * bytes32  h         [ id, msg_hash, r, s ]\n   * uint8    v         Component of signature of \"h\" coming from sender\n   * uint     value     Amount of wei sent\n   * uint     nonce     Number to be hashed with the value to form the message\n   */\n  function Challenge(bytes32[4] h, uint8 v, uint256 value, uint256 nonce) public {\n    // Grab the channel in question\n    require(channels[h[0]].deposit != 0);\n    Channel memory _channel;\n    _channel = channels[h[0]];\n\n    // Make sure we're still in the challenge period\n    require(_channel.closeTime + _channel.challenge > now);\n\n    // Make sure the nonce is higher\n    require(_channel.nonce < nonce);\n\n    require(msg.sender == _channel.sender || msg.sender == _channel.recipient);\n\n    address signer = ecrecover(h[1], v, h[2], h[3]);\n    require(signer == _channel.sender);\n\n    // Make sure the hash provided is of the channel id and the amount sent\n    bytes32 proof = keccak256(h[0], value, nonce);\n\n    // Ensure the proof matches, send the value, send the remainder, and delete the channel\n    require(proof == h[1]);\n    require(value <= _channel.deposit);\n\n    // Pay recipient and refund sender the remainder\n    ERC20 t = ERC20(_channel.token);\n    require(t.transfer(_channel.recipient, value));\n    require(t.transfer(_channel.sender, _channel.deposit-value));\n\n    // Copy data to the state\n    _channel.value = value;\n    _channel.nonce = nonce;\n    channels[h[0]] = _channel;\n  }\n\n\n  /**\n   * Once past its challenge period, close a channel and disperse the funds.\n   * Anyone can do this.\n   *\n   * bytes32  id    Channel id\n   */\n  function Finalize(bytes32 id) public {\n    // Grab the channel in question\n    require(channels[id].deposit != 0);\n\n    // Make sure we're past the challenge period\n    require(channels[id].closeTime + channels[id].challenge <= now);\n\n    // Pay recipient and refund sender the remainder\n    ERC20 t = ERC20(channels[id].token);\n    require(t.transfer(channels[id].recipient, channels[id].value));\n    require(t.transfer(channels[id].sender, channels[id].deposit-channels[id].value));\n\n    // Delete the channel\n    delete active_ids[channels[id].sender][channels[id].recipient];\n    delete channels[id];\n  }\n\n\n\n  //============================================================================\n  // CONSTANT FUNCTIONS\n  //============================================================================\n\n  /**\n  * Verify that a message sent will allow the channel to close.\n  * Parameters are the same as for CloseChannel\n   */\n  function VerifyMsg(bytes32[4] h, uint8 v, uint256 value) public constant returns (bool) {\n    // h[0]    Channel id\n    // h[1]    Hash of (id, value)\n    // h[2]    r of signature\n    // h[3]    s of signature\n\n    // Grab the channel in question\n    if (channels[h[0]].deposit == 0) { return false; }\n    Channel memory _channel;\n    _channel = channels[h[0]];\n\n    // https://ethereum.stackexchange.com/a/15911/1391\n    // TODO put this logic into JS\n    address signer = ecrecover(h[1], v, h[2], h[3]);\n    if (signer != _channel.sender) { return false; }\n\n    // Make sure the hash provided is of the channel id and the amount sent\n    bytes32 proof = keccak256(h[0], value);\n    // Ensure the proof matches, send the value, send the remainder, and delete the channel\n    if (proof != h[1]) { return false; }\n    else if (value > _channel.deposit) { return false; }\n\n    return true;\n  }\n\n  // GETTERS\n\n  function GetChannelId(address from, address to) public constant returns (bytes32) {\n    return active_ids[from][to];\n  }\n\n  function GetDeposit(bytes32 id) public constant returns (uint) {\n    return channels[id].deposit;\n  }\n\n  function GetSender(bytes32 id) public constant returns (address) {\n    return channels[id].sender;\n  }\n\n  function GetRecipient(bytes32 id) public constant returns (address) {\n    return channels[id].recipient;\n  }\n\n  function GetToken(bytes32 id) public constant returns (address) {\n    return channels[id].token;\n  }\n\n  // Returns true if this is an active channel\n  function DoesChannelExist(bytes32 id) public constant returns (bool) {\n    return channels[id].token != address(0);\n  }\n  // Returns true if the channel is closed (or if the channel doesn't exist)\n  function IsChannelClosed(bytes32 id) public constant returns (bool) {\n    return channels[id].closeTime != 0;\n  }\n\n  // This will return 0 unless the channel is currently in the challenge period\n  function ChallengeRemaining(bytes32 id) public constant returns (uint) {\n    if (channels[id].closeTime == 0) { return 0; }\n    else if (channels[id].closeTime + channels[id].challenge < now) { return 0; }\n    else { return (channels[id].closeTime + channels[id].challenge) - now; }\n  }\n\n}\n\ncontract WorkflowToken is ERC20 {\n    using SafeMath for uint256;\n    string public symbol = \"Coin\";\n    string public name = \"WorkflowToken\";\n    uint256 public _totalSupply = 2100000;\n    uint8 public constant decimals = 18;\n\n    mapping(address => uint256) public balances;\n    // Which address is allowed to make transfer from the account of another address,\n    // and the amount allowed\n    mapping(address => mapping(address => uint256)) allowed;\n\n    event BalanceChanged(address indexed _address, uint256 _balance);\n    \n    function totalSupply() public view returns (uint256) {\n        return _totalSupply;\n    }\n\n    function balanceOf(address _who) public view returns (uint256) {\n        return balances[_who];\n    }\n\n    function transfer(address _to, uint256 _value) public returns (bool success) {\n        require(\n            balances[msg.sender] >= _value &&\n            _value > 0);\n        balances[msg.sender] -= _value;\n        balances[_to] += _value;\n        emit Transfer(msg.sender, _to, _value);\n        return true;\n    }\n\n    function allowance(address _owner, address _spender) public view returns (uint256 remaining) {\n        return allowed[_owner][_spender];\n    }\n\n    function transferFrom(address _from, address _to, uint256 _value) public returns (bool success) {\n        // Check if the message sender can spend _value from the _from account\n        require(\n            allowed[_from][msg.sender] >= _value && \n            balances[_from] >= _value && \n            _value > 0\n        );\n        balances[_from] -= _value;\n        balances[_to] += _value;\n        // Reduce the allowance\n        allowed[_from][msg.sender] -= _value;\n        emit Transfer(_from, _to, _value);\n        return true;\n    }\n\n    function approve(address _spender, uint256 _value) public returns (bool success) {\n        allowed[msg.sender][_spender] = _value;\n        emit Approval(msg.sender, _spender, _value);\n        return true;\n    }\n}\n\n\ncontract WorkflowMarket is WorkflowToken {\n    address creator;\n    event RatingChanged(address indexed _address, uint256 _thumbsup);\n\n    constructor() public {\n        balances[msg.sender] = _totalSupply;        // Give the creator initially all the tokens\n        creator = msg.sender; // Set the creator of the contract\n    }\n\n    function mint(uint256 _amount) public returns (bool success) {\n        // Check if the caller of mint is the creator\n        require(creator == msg.sender, \"Only the creator of the contract can use Mint!\");\n        _totalSupply += _amount;\n        balances[creator] += _amount;\n\n        emit BalanceChanged(creator, balances[creator]);\n        return true;\n    }\n}\n\n\nlibrary SafeMath {\n    function mul(uint256 a, uint256 b) internal pure returns (uint256) {\n        uint256 c = a * b;\n        assert(a == 0 || c / a == b);\n        return c;\n    }\n\n    function div(uint256 a, uint256 b) internal pure returns (uint256) {\n        // assert(b > 0); // Solidity automatically throws when dividing by 0\n        uint256 c = a / b;\n        // assert(a == b * c + a % b); // There is no case in which this doesn't hold\n        return c;\n    }\n\n    function sub(uint256 a, uint256 b) internal pure returns (uint256) {\n        assert(b <= a);\n        return a - b;\n    }\n\n    function add(uint256 a, uint256 b) internal pure returns (uint256) {\n        uint256 c = a + b;\n        assert(c >= a);\n        return c;\n    }\n}\n\n\ncontract Workflows is ERC721 {\n    string public name = \"Automated Workflow\";\n    string public symbol = \"Workflow\";\n\n    struct Rating {\n        uint256 stars; //from 1 to 5\n        string review;\n        address reviewer;\n    }\n\n    struct Workflow {\n        string name;\n        address author;\n        string tag;\n        uint256 price;\n        Rating[] oneStars;\n        Rating[] twoStars;\n        Rating[] threeStars;\n        Rating[] fourStars;\n        Rating[] fiveStars;\n    }\n\n    // Map workflow ids to Workflow struct containing the workflow's data\n    mapping (uint256 => Workflow) public workflows;\n\n    uint256[] public existingIds;\n\n    function createWorkflow(string _name, address _author, string _tag, uint256 _price) public {\n        uint256 _workflowId = totalWorkflows + 1;\n        _createWorkflow(_name, _author, _tag, _price, _workflowId);\n    }\n\n    function _createWorkflow(string _name, address _author, string _tag, uint256 _price, uint256 _workflowId) internal {\n        _addTokenTo(_author, _workflowId);\n        totalWorkflows++;\n        existingIds.push(_workflowId);\n        workflows[_workflowId].name = _name;\n        workflows[_workflowId].author = _author;\n        workflows[_workflowId].tag = _tag;\n        workflows[_workflowId].price = _price;\n\n        emit WorkflowCreated(_workflowId, _author);\n    }\n}\n",
  "sourcePath": "/Users/allanjiang/Developer/dapps/cs359b-web-workflow-marketplace/contracts/all.sol",
  "compiler": {
    "name": "solc",
    "version": "0.4.23+commit.124ca40d.Emscripten.clang"
  },
  "schemaVersion": "2.0.0",
  "updatedAt": "2018-05-14T18:26:26.702Z"
}