{
  "contractName": "Reputation",
  "abi": [
    {
      "constant": true,
      "inputs": [
        {
          "name": "",
          "type": "address"
        },
        {
          "name": "",
          "type": "uint256"
        }
      ],
      "name": "ratingAccounts",
      "outputs": [
        {
          "name": "from",
          "type": "address"
        },
        {
          "name": "ratingNumber",
          "type": "uint256"
        }
      ],
      "payable": false,
      "stateMutability": "view",
      "type": "function"
    },
    {
      "constant": true,
      "inputs": [
        {
          "name": "",
          "type": "address"
        },
        {
          "name": "",
          "type": "uint256"
        }
      ],
      "name": "workflowAccounts",
      "outputs": [
        {
          "name": "name",
          "type": "string"
        },
        {
          "name": "numExe",
          "type": "uint256"
        },
        {
          "name": "numSuccess",
          "type": "uint256"
        }
      ],
      "payable": false,
      "stateMutability": "view",
      "type": "function"
    },
    {
      "constant": true,
      "inputs": [
        {
          "name": "",
          "type": "address"
        }
      ],
      "name": "balances",
      "outputs": [
        {
          "name": "",
          "type": "uint256"
        }
      ],
      "payable": false,
      "stateMutability": "view",
      "type": "function"
    },
    {
      "constant": true,
      "inputs": [
        {
          "name": "",
          "type": "address"
        },
        {
          "name": "",
          "type": "uint256"
        }
      ],
      "name": "potAccounts",
      "outputs": [
        {
          "name": "workflow",
          "type": "uint256"
        },
        {
          "name": "potSize",
          "type": "uint256"
        },
        {
          "name": "betFor",
          "type": "uint256"
        },
        {
          "name": "betAgainst",
          "type": "uint256"
        }
      ],
      "payable": false,
      "stateMutability": "view",
      "type": "function"
    },
    {
      "inputs": [],
      "payable": false,
      "stateMutability": "nonpayable",
      "type": "constructor"
    },
    {
      "anonymous": false,
      "inputs": [
        {
          "indexed": true,
          "name": "_address",
          "type": "address"
        },
        {
          "indexed": false,
          "name": "_success",
          "type": "bool"
        }
      ],
      "name": "CreatorRatingChanged",
      "type": "event"
    },
    {
      "anonymous": false,
      "inputs": [
        {
          "indexed": true,
          "name": "_address",
          "type": "address"
        },
        {
          "indexed": false,
          "name": "_workflowID",
          "type": "uint256"
        },
        {
          "indexed": false,
          "name": "_success",
          "type": "bool"
        }
      ],
      "name": "WorkflowRatingChanged",
      "type": "event"
    },
    {
      "anonymous": false,
      "inputs": [
        {
          "indexed": true,
          "name": "_address",
          "type": "address"
        },
        {
          "indexed": false,
          "name": "_workflowID",
          "type": "uint256"
        },
        {
          "indexed": false,
          "name": "_potSize",
          "type": "uint256"
        }
      ],
      "name": "PotCreated",
      "type": "event"
    },
    {
      "anonymous": false,
      "inputs": [
        {
          "indexed": true,
          "name": "_address",
          "type": "address"
        },
        {
          "indexed": false,
          "name": "_betFor",
          "type": "uint256"
        },
        {
          "indexed": false,
          "name": "_betAgainst",
          "type": "uint256"
        }
      ],
      "name": "BetPlaced",
      "type": "event"
    },
    {
      "constant": false,
      "inputs": [
        {
          "name": "_to",
          "type": "address"
        },
        {
          "name": "_value",
          "type": "uint256"
        }
      ],
      "name": "rateCreator",
      "outputs": [
        {
          "name": "success",
          "type": "bool"
        }
      ],
      "payable": false,
      "stateMutability": "nonpayable",
      "type": "function"
    },
    {
      "constant": false,
      "inputs": [
        {
          "name": "_to",
          "type": "address"
        },
        {
          "name": "_workflowID",
          "type": "uint256"
        },
        {
          "name": "_value",
          "type": "uint256"
        }
      ],
      "name": "rateWorkflow",
      "outputs": [
        {
          "name": "success",
          "type": "bool"
        }
      ],
      "payable": false,
      "stateMutability": "nonpayable",
      "type": "function"
    },
    {
      "constant": false,
      "inputs": [
        {
          "name": "_workflowID",
          "type": "uint256"
        },
        {
          "name": "_potSize",
          "type": "uint256"
        }
      ],
      "name": "createPot",
      "outputs": [
        {
          "name": "success",
          "type": "bool"
        }
      ],
      "payable": false,
      "stateMutability": "nonpayable",
      "type": "function"
    },
    {
      "constant": false,
      "inputs": [
        {
          "name": "_potOwner",
          "type": "address"
        },
        {
          "name": "_potID",
          "type": "uint256"
        },
        {
          "name": "_betFor",
          "type": "uint256"
        },
        {
          "name": "_betAgainst",
          "type": "uint256"
        }
      ],
      "name": "bet",
      "outputs": [
        {
          "name": "success",
          "type": "bool"
        }
      ],
      "payable": false,
      "stateMutability": "nonpayable",
      "type": "function"
    }
  ],
  "bytecode": "0x608060405234801561001057600080fd5b50336000806101000a81548173ffffffffffffffffffffffffffffffffffffffff021916908373ffffffffffffffffffffffffffffffffffffffff160217905550611271806100606000396000f30060806040526004361061008e576000357c0100000000000000000000000000000000000000000000000000000000900463ffffffff16806301f72f9b146100935780632691c8821461012757806327e235e3146101fb5780635001042714610252578063858f91fd146102cb57806389e3019114610330578063b3cf3dfa1461039f578063ba8db666146103ee575b600080fd5b34801561009f57600080fd5b506100de600480360381019080803573ffffffffffffffffffffffffffffffffffffffff16906020019092919080359060200190929190505050610464565b604051808373ffffffffffffffffffffffffffffffffffffffff1673ffffffffffffffffffffffffffffffffffffffff1681526020018281526020019250505060405180910390f35b34801561013357600080fd5b50610172600480360381019080803573ffffffffffffffffffffffffffffffffffffffff169060200190929190803590602001909291905050506104c4565b6040518080602001848152602001838152602001828103825285818151815260200191508051906020019080838360005b838110156101be5780820151818401526020810190506101a3565b50505050905090810190601f1680156101eb5780820380516001836020036101000a031916815260200191505b5094505050505060405180910390f35b34801561020757600080fd5b5061023c600480360381019080803573ffffffffffffffffffffffffffffffffffffffff1690602001909291905050506105a2565b6040518082815260200191505060405180910390f35b34801561025e57600080fd5b506102b1600480360381019080803573ffffffffffffffffffffffffffffffffffffffff1690602001909291908035906020019092919080359060200190929190803590602001909291905050506105ba565b604051808215151515815260200191505060405180910390f35b3480156102d757600080fd5b50610316600480360381019080803573ffffffffffffffffffffffffffffffffffffffff16906020019092919080359060200190929190505050610a32565b604051808215151515815260200191505060405180910390f35b34801561033c57600080fd5b50610385600480360381019080803573ffffffffffffffffffffffffffffffffffffffff1690602001909291908035906020019092919080359060200190929190505050610c44565b604051808215151515815260200191505060405180910390f35b3480156103ab57600080fd5b506103d46004803603810190808035906020019092919080359060200190929190505050610eda565b604051808215151515815260200191505060405180910390f35b3480156103fa57600080fd5b50610439600480360381019080803573ffffffffffffffffffffffffffffffffffffffff169060200190929190803590602001909291905050506110cc565b6040518085815260200184815260200183815260200182815260200194505050505060405180910390f35b60016020528160005260406000208181548110151561047f57fe5b9060005260206000209060020201600091509150508060000160009054906101000a900473ffffffffffffffffffffffffffffffffffffffff16908060010154905082565b6002602052816000526040600020818154811015156104df57fe5b906000526020600020906004020160009150915050806000018054600181600116156101000203166002900480601f01602080910402602001604051908101604052809291908181526020018280546001816001161561010002031660029004801561058c5780601f106105615761010080835404028352916020019161058c565b820191906000526020600020905b81548152906001019060200180831161056f57829003601f168201915b5050505050908060010154908060020154905083565b60036020528060005260406000206000915090505481565b6000600460008673ffffffffffffffffffffffffffffffffffffffff1673ffffffffffffffffffffffffffffffffffffffff1681526020019081526020016000208481548110151561060857fe5b906000526020600020906005020160010154600460008773ffffffffffffffffffffffffffffffffffffffff1673ffffffffffffffffffffffffffffffffffffffff1681526020019081526020016000208581548110151561066657fe5b906000526020600020906005020160040154600460008873ffffffffffffffffffffffffffffffffffffffff1673ffffffffffffffffffffffffffffffffffffffff168152602001908152602001600020868154811015156106c457fe5b906000526020600020906005020160030154011015156106e357600080fd5b600083101580156106f5575060008210155b801561070357506000828401115b151561070e57600080fd5b600460008673ffffffffffffffffffffffffffffffffffffffff1673ffffffffffffffffffffffffffffffffffffffff1681526020019081526020016000208481548110151561075a57fe5b906000526020600020906005020160010154600460008773ffffffffffffffffffffffffffffffffffffffff1673ffffffffffffffffffffffffffffffffffffffff168152602001908152602001600020858154811015156107b857fe5b906000526020600020906005020160040154600460008873ffffffffffffffffffffffffffffffffffffffff1673ffffffffffffffffffffffffffffffffffffffff1681526020019081526020016000208681548110151561081657fe5b90600052602060002090600502016003015484860101011115151561083a57600080fd5b82600460008773ffffffffffffffffffffffffffffffffffffffff1673ffffffffffffffffffffffffffffffffffffffff1681526020019081526020016000208581548110151561088757fe5b90600052602060002090600502016003016000828254019250508190555081600460008773ffffffffffffffffffffffffffffffffffffffff1673ffffffffffffffffffffffffffffffffffffffff168152602001908152602001600020858154811015156108f257fe5b906000526020600020906005020160030160008282540192505081905550600460008673ffffffffffffffffffffffffffffffffffffffff1673ffffffffffffffffffffffffffffffffffffffff1681526020019081526020016000208481548110151561095c57fe5b90600052602060002090600502016002013390806001815401808255809150509060018203906000526020600020016000909192909190916101000a81548173ffffffffffffffffffffffffffffffffffffffff021916908373ffffffffffffffffffffffffffffffffffffffff160217905550508473ffffffffffffffffffffffffffffffffffffffff167e1ecf1d0c4d22f324b3ecb9cdf0e5f772bc74ac104e6626f4b3845433d031058484604051808381526020018281526020019250505060405180910390a260019050949350505050565b6000610a3c611118565b8373ffffffffffffffffffffffffffffffffffffffff163373ffffffffffffffffffffffffffffffffffffffff1614151515610a7757600080fd5b6000600260008673ffffffffffffffffffffffffffffffffffffffff1673ffffffffffffffffffffffffffffffffffffffff16815260200190815260200160002080549050111515610ac857600080fd5b60058311158015610ada575060008310155b1515610ae557600080fd5b33816000019073ffffffffffffffffffffffffffffffffffffffff16908173ffffffffffffffffffffffffffffffffffffffff168152505082816020018181525050600160008573ffffffffffffffffffffffffffffffffffffffff1673ffffffffffffffffffffffffffffffffffffffff168152602001908152602001600020819080600181540180825580915050906001820390600052602060002090600202016000909192909190915060008201518160000160006101000a81548173ffffffffffffffffffffffffffffffffffffffff021916908373ffffffffffffffffffffffffffffffffffffffff160217905550602082015181600101555050508373ffffffffffffffffffffffffffffffffffffffff167f205ad2fe850192e1c60431841c7690c83d0f46f4623803315544bfaa0f5a67b06001604051808215151515815260200191505060405180910390a2600191505092915050565b6000610c4e611118565b8473ffffffffffffffffffffffffffffffffffffffff163373ffffffffffffffffffffffffffffffffffffffff1614151515610c8957600080fd5b6000600260008773ffffffffffffffffffffffffffffffffffffffff1673ffffffffffffffffffffffffffffffffffffffff16815260200190815260200160002080549050111515610cda57600080fd5b600260008673ffffffffffffffffffffffffffffffffffffffff1673ffffffffffffffffffffffffffffffffffffffff1681526020019081526020016000208054905084108015610d2c575060008410155b1515610d3757600080fd5b60058311158015610d49575060008310155b1515610d5457600080fd5b33816000019073ffffffffffffffffffffffffffffffffffffffff16908173ffffffffffffffffffffffffffffffffffffffff168152505082816020018181525050600260008673ffffffffffffffffffffffffffffffffffffffff1673ffffffffffffffffffffffffffffffffffffffff16815260200190815260200160002084815481101515610de257fe5b9060005260206000209060040201600301819080600181540180825580915050906001820390600052602060002090600202016000909192909190915060008201518160000160006101000a81548173ffffffffffffffffffffffffffffffffffffffff021916908373ffffffffffffffffffffffffffffffffffffffff160217905550602082015181600101555050508473ffffffffffffffffffffffffffffffffffffffff167f0b2e786461c68324cbc73c7f16efee82ba071bbdedfe554c677032254721a6ca85600160405180838152602001821515151581526020019250505060405180910390a260019150509392505050565b6000610ee4611148565b6000600260003373ffffffffffffffffffffffffffffffffffffffff1673ffffffffffffffffffffffffffffffffffffffff16815260200190815260200160002080549050111515610f3557600080fd5b600260003373ffffffffffffffffffffffffffffffffffffffff1673ffffffffffffffffffffffffffffffffffffffff1681526020019081526020016000208054905084108015610f87575060008410155b1515610f9257600080fd5b838160000181815250508281602001818152505060008160600181815250506000816080018181525050600460003373ffffffffffffffffffffffffffffffffffffffff1673ffffffffffffffffffffffffffffffffffffffff168152602001908152602001600020819080600181540180825580915050906001820390600052602060002090600502016000909192909190915060008201518160000155602082015181600101556040820151816002019080519060200190611057929190611178565b5060608201518160030155608082015181600401555050503373ffffffffffffffffffffffffffffffffffffffff167ff615a4f86e7672d1d9169781ec31297de88207d3083e615062f01087c93f8b3b8585604051808381526020018281526020019250505060405180910390a25092915050565b6004602052816000526040600020818154811015156110e757fe5b9060005260206000209060050201600091509150508060000154908060010154908060030154908060040154905084565b6040805190810160405280600073ffffffffffffffffffffffffffffffffffffffff168152602001600081525090565b60a06040519081016040528060008152602001600081526020016060815260200160008152602001600081525090565b8280548282559060005260206000209081019282156111f1579160200282015b828111156111f05782518260006101000a81548173ffffffffffffffffffffffffffffffffffffffff021916908373ffffffffffffffffffffffffffffffffffffffff16021790555091602001919060010190611198565b5b5090506111fe9190611202565b5090565b61124291905b8082111561123e57600081816101000a81549073ffffffffffffffffffffffffffffffffffffffff021916905550600101611208565b5090565b905600a165627a7a723058204bb936ec74bcd60ce2cfe754fa05e36f0d8e46777bac006530075baf36791c710029",
  "source": "pragma solidity ^0.4.21;\n\ncontract Reputation {\n    struct Workflow {\n        string name;\n        uint256 numExe;\n        uint256 numSuccess;\n        Rating[] workflowRatings;\n    }\n\n    struct Rating {\n        address from;\n        uint256 ratingNumber;\n    }\n\n    struct Pot {\n        uint256 workflow;\n        uint256 potSize;\n        address[] bettors;\n        uint256 betFor;\n        uint256 betAgainst;\n    }\n\n    address creator;\n    mapping (address => Rating[]) public ratingAccounts;\n    mapping (address => Workflow[]) public workflowAccounts;\n    mapping (address => uint256) public balances;\n    mapping (address => Pot[]) public potAccounts;\n    event CreatorRatingChanged(address indexed _address, bool _success);\n    event WorkflowRatingChanged(address indexed _address, uint256 _workflowID, bool _success);\n    event PotCreated(address indexed _address, uint256 _workflowID, uint256 _potSize);\n    event BetPlaced(address indexed _address, uint256 _betFor, uint256 _betAgainst);\n\n    function Reputation() public {\n        creator = msg.sender;\n    }\n\n    function rateCreator(address _to, uint256 _value) public returns (bool success) {\n        // the message sender cannot rate itself\n        require(msg.sender != _to);\n        // the person being rated must authored contracts\n        require(workflowAccounts[_to].length > 0);\n        // the rating has to be between 0 and 5\n        require(_value <= 5 && _value >= 0);\n\n        Rating memory newRating;\n        newRating.from = msg.sender;\n        newRating.ratingNumber = _value;\n\n        ratingAccounts[_to].push(newRating);\n        emit CreatorRatingChanged(_to, true);\n\n        return true;\n    }\n\n    function rateWorkflow(address _to, uint256 _workflowID, uint256 _value) public returns (bool success) {\n         // the message sender cannot rate itself\n        require(msg.sender != _to);\n        // the workflowID is within bound\n        require(workflowAccounts[_to].length > 0);\n        require(_workflowID < workflowAccounts[_to].length && _workflowID >= 0);\n        // the rating has to be between 0 and 5\n        require(_value <= 5 && _value >= 0);\n\n        Rating memory newRating;\n        newRating.from = msg.sender;\n        newRating.ratingNumber = _value;\n\n        workflowAccounts[_to][_workflowID].workflowRatings.push(newRating);\n        emit WorkflowRatingChanged(_to, _workflowID, true);\n        return true;\n    }\n\n    function createPot(uint256 _workflowID, uint256 _potSize) public returns (bool success) {\n        // the workflowID is within bound\n        require(workflowAccounts[msg.sender].length > 0);\n        require(_workflowID < workflowAccounts[msg.sender].length && _workflowID >= 0);\n\n        Pot memory newPot;\n        newPot.workflow = _workflowID;\n        newPot.potSize = _potSize;\n        newPot.betFor = 0;\n        newPot.betAgainst = 0;\n\n        potAccounts[msg.sender].push(newPot);\n        emit PotCreated(msg.sender, _workflowID, _potSize);\n    }\n\n    function bet(address _potOwner, uint256 _potID, uint256 _betFor, uint256 _betAgainst) public returns (bool success) {\n        // Check if the pot size has been reached\n        require(potAccounts[_potOwner][_potID].betFor + potAccounts[_potOwner][_potID].betAgainst < potAccounts[_potOwner][_potID].potSize);\n\n        // Check if the bet is valid\n        require(_betFor >= 0 && _betAgainst >= 0 && _betFor + _betAgainst > 0);\n        require(_betFor + _betAgainst + potAccounts[_potOwner][_potID].betFor + potAccounts[_potOwner][_potID].betAgainst <= potAccounts[_potOwner][_potID].potSize);\n\n        potAccounts[_potOwner][_potID].betFor += _betFor;\n        potAccounts[_potOwner][_potID].betFor += _betAgainst;\n        potAccounts[_potOwner][_potID].bettors.push(msg.sender);\n\n        emit BetPlaced(_potOwner, _betFor, _betAgainst);\n        return true;\n    }\n\n    // function betResult: TBD\n}\n",
  "sourcePath": "/Users/allanjiang/Desktop/Stanford/2017-18/spring/cs359b-web-workflow-marketplace/contracts/Reputation.sol",
  "compiler": {
    "name": "solc",
    "version": "0.4.23+commit.124ca40d.Emscripten.clang"
  },
  "schemaVersion": "2.0.0",
  "updatedAt": "2018-05-13T03:20:23.763Z"
}