{
  "contractName": "SimpleChannel",
  "abi": [
    {
      "constant": false,
      "inputs": [
        {
          "name": "to",
          "type": "address"
        },
        {
          "name": "timeout",
          "type": "uint256"
        }
      ],
      "name": "OpenChannel",
      "outputs": [
        {
          "name": "",
          "type": "bytes32"
        }
      ],
      "payable": true,
      "stateMutability": "payable",
      "type": "function"
    },
    {
      "constant": false,
      "inputs": [
        {
          "name": "id",
          "type": "bytes32"
        },
        {
          "name": "h",
          "type": "bytes32"
        },
        {
          "name": "v",
          "type": "uint8"
        },
        {
          "name": "r",
          "type": "bytes32"
        },
        {
          "name": "s",
          "type": "bytes32"
        },
        {
          "name": "value",
          "type": "uint256"
        }
      ],
      "name": "CloseChannel",
      "outputs": [],
      "payable": false,
      "stateMutability": "nonpayable",
      "type": "function"
    },
    {
      "constant": false,
      "inputs": [
        {
          "name": "id",
          "type": "bytes32"
        }
      ],
      "name": "ChannelTimeout",
      "outputs": [],
      "payable": false,
      "stateMutability": "nonpayable",
      "type": "function"
    },
    {
      "constant": true,
      "inputs": [
        {
          "name": "id",
          "type": "bytes32"
        }
      ],
      "name": "GetSender",
      "outputs": [
        {
          "name": "",
          "type": "address"
        }
      ],
      "payable": false,
      "stateMutability": "view",
      "type": "function"
    },
    {
      "constant": true,
      "inputs": [
        {
          "name": "id",
          "type": "bytes32"
        }
      ],
      "name": "GetRecipient",
      "outputs": [
        {
          "name": "",
          "type": "address"
        }
      ],
      "payable": false,
      "stateMutability": "view",
      "type": "function"
    },
    {
      "constant": true,
      "inputs": [
        {
          "name": "id",
          "type": "bytes32"
        }
      ],
      "name": "DoesChannelExist",
      "outputs": [
        {
          "name": "",
          "type": "bool"
        }
      ],
      "payable": false,
      "stateMutability": "view",
      "type": "function"
    }
  ],
  "bytecode": "0x608060405234801561001057600080fd5b50610bd0806100206000396000f300608060405260043610610078576000357c0100000000000000000000000000000000000000000000000000000000900463ffffffff1680633bb02d291461007d5780634ec9a10d146100d9578063864c99071461010a5780639ce9a59714610153578063b9251b5f146101c5578063ff8635bb14610236575b600080fd5b6100bb600480360381019080803573ffffffffffffffffffffffffffffffffffffffff169060200190929190803590602001909291905050506102a7565b60405180826000191660001916815260200191505060405180910390f35b3480156100e557600080fd5b5061010860048036038101908080356000191690602001909291905050506104da565b005b34801561011657600080fd5b506101396004803603810190808035600019169060200190929190505050610622565b604051808215151515815260200191505060405180910390f35b34801561015f57600080fd5b506101c360048036038101908080356000191690602001909291908035600019169060200190929190803560ff1690602001909291908035600019169060200190929190803560001916906020019092919080359060200190929190505050610698565b005b3480156101d157600080fd5b506101f46004803603810190808035600019169060200190929190505050610ac1565b604051808273ffffffffffffffffffffffffffffffffffffffff1673ffffffffffffffffffffffffffffffffffffffff16815260200191505060405180910390f35b34801561024257600080fd5b506102656004803603810190808035600019169060200190929190505050610b08565b604051808273ffffffffffffffffffffffffffffffffffffffff1673ffffffffffffffffffffffffffffffffffffffff16815260200191505060405180910390f35b6000806102b2610b4f565b3373ffffffffffffffffffffffffffffffffffffffff168573ffffffffffffffffffffffffffffffffffffffff16141515156102ed57600080fd5b338542604051808473ffffffffffffffffffffffffffffffffffffffff1673ffffffffffffffffffffffffffffffffffffffff166c010000000000000000000000000281526014018373ffffffffffffffffffffffffffffffffffffffff1673ffffffffffffffffffffffffffffffffffffffff166c0100000000000000000000000002815260140182815260200193505050506040518091039020915084816020019073ffffffffffffffffffffffffffffffffffffffff16908173ffffffffffffffffffffffffffffffffffffffff168152505033816000019073ffffffffffffffffffffffffffffffffffffffff16908173ffffffffffffffffffffffffffffffffffffffff1681525050428160400181815250508381606001818152505080600080846000191660001916815260200190815260200160002060008201518160000160006101000a81548173ffffffffffffffffffffffffffffffffffffffff021916908373ffffffffffffffffffffffffffffffffffffffff16021790555060208201518160010160006101000a81548173ffffffffffffffffffffffffffffffffffffffff021916908373ffffffffffffffffffffffffffffffffffffffff1602179055506040820151816002015560608201518160030155905050819250505092915050565b6104e2610b4f565b60008060006104f085610622565b15156104fb57600080fd5b6000808660001916600019168152602001908152602001600020608060405190810160405290816000820160009054906101000a900473ffffffffffffffffffffffffffffffffffffffff1673ffffffffffffffffffffffffffffffffffffffff1673ffffffffffffffffffffffffffffffffffffffff1681526020016001820160009054906101000a900473ffffffffffffffffffffffffffffffffffffffff1673ffffffffffffffffffffffffffffffffffffffff1673ffffffffffffffffffffffffffffffffffffffff168152602001600282015481526020016003820154815250509350836040015192508360600151915083600001519050428284011115151561060957600080fd5b8073ffffffffffffffffffffffffffffffffffffffff16ff5b60008073ffffffffffffffffffffffffffffffffffffffff16600080846000191660001916815260200190815260200160002060000160009054906101000a900473ffffffffffffffffffffffffffffffffffffffff1673ffffffffffffffffffffffffffffffffffffffff1614159050919050565b6000806106a3610b4f565b60008060006106b18c610622565b15156106bc57600080fd5b6000808d60001916600019168152602001908152602001600020608060405190810160405290816000820160009054906101000a900473ffffffffffffffffffffffffffffffffffffffff1673ffffffffffffffffffffffffffffffffffffffff1673ffffffffffffffffffffffffffffffffffffffff1681526020016001820160009054906101000a900473ffffffffffffffffffffffffffffffffffffffff1673ffffffffffffffffffffffffffffffffffffffff1673ffffffffffffffffffffffffffffffffffffffff1681526020016002820154815260200160038201548152505093508360000151925083602001519150600160008d60001916600019168152602001908152602001600020905060018b8b8b8b604051600081526020016040526040518085600019166000191681526020018460ff1660ff1681526020018360001916600019168152602001826000191660001916815260200194505050505060206040516020810390808403906000865af1158015610846573d6000803e3d6000fd5b5050506020604051035195508273ffffffffffffffffffffffffffffffffffffffff168673ffffffffffffffffffffffffffffffffffffffff1614806108b757508173ffffffffffffffffffffffffffffffffffffffff168673ffffffffffffffffffffffffffffffffffffffff16145b15156108c257600080fd5b3087604051808373ffffffffffffffffffffffffffffffffffffffff1673ffffffffffffffffffffffffffffffffffffffff166c0100000000000000000000000002815260140182815260200192505050604051809103902094508a60001916856000191614151561093357600080fd5b6000816000876000191660001916815260200190815260200160002060009054906101000a900473ffffffffffffffffffffffffffffffffffffffff1673ffffffffffffffffffffffffffffffffffffffff1614156109ea5785816000876000191660001916815260200190815260200160002060006101000a81548173ffffffffffffffffffffffffffffffffffffffff021916908373ffffffffffffffffffffffffffffffffffffffff160217905550610ab3565b8573ffffffffffffffffffffffffffffffffffffffff16816000876000191660001916815260200190815260200160002060009054906101000a900473ffffffffffffffffffffffffffffffffffffffff1673ffffffffffffffffffffffffffffffffffffffff16141515610ab2578173ffffffffffffffffffffffffffffffffffffffff166108fc889081150290604051600060405180830381858888f193505050501515610a9957600080fd5b8273ffffffffffffffffffffffffffffffffffffffff16ff5b5b505050505050505050505050565b6000806000836000191660001916815260200190815260200160002060000160009054906101000a900473ffffffffffffffffffffffffffffffffffffffff169050919050565b6000806000836000191660001916815260200190815260200160002060010160009054906101000a900473ffffffffffffffffffffffffffffffffffffffff169050919050565b608060405190810160405280600073ffffffffffffffffffffffffffffffffffffffff168152602001600073ffffffffffffffffffffffffffffffffffffffff168152602001600081526020016000815250905600a165627a7a7230582076fdc15455ecafcf5db96597ba204cc8f04d3e35838a81fd54e0d5dfadff9f430029",
  "source": "pragma solidity ^0.4.23;\n\ncontract SimpleChannel {\n\n  // // Only one channel may be open for any two participants at any one time\n  struct Channel {\n    address sender;\n    address recipient;\n    uint startDate;\n    uint timeout;\n  }\n  mapping (bytes32 => Channel) channels;\n  mapping (bytes32 => mapping (bytes32 => address)) all_signatures;\n  mapping (address => mapping(address => bytes32)) active_ids;\n\n  function OpenChannel(address to, uint timeout) payable public returns (bytes32) {\n    require(to != msg.sender);\n\n    // Create a channel\n    bytes32 id = keccak256(msg.sender, to, now);\n\n    // Initialize the channel\n    Channel memory _channel;\n    _channel.recipient = to;\n    _channel.sender = msg.sender;\n    _channel.startDate = now;\n    _channel.timeout = timeout;\n\n    channels[id] = _channel;\n    return id;\n  }\n\n  // https://ethereum.stackexchange.com/questions/1777/workflow-on-signing-a-string-with-private-key-followed-by-signature-verificatio\n  // usage: Alice needs to call CloseChannel twice for multi-sig\n  // once with Bob's signed pair and once with her own.\n  function CloseChannel(bytes32 id, bytes32 h, uint8 v, bytes32 r, bytes32 s, uint value) public {\n\n    address signer;\n    bytes32 proof;\n    require(DoesChannelExist(id));\n    Channel memory channel = channels[id];\n    address channelSender = channel.sender;\n    address channelRecipient = channel.recipient;\n    mapping (bytes32 => address) signatures = all_signatures[id];\n\n    // get signer from signature\n    signer = ecrecover(h, v, r, s);\n\n    // require signature from valid party\n    require(signer == channelSender || signer == channelRecipient);\n\n    proof = keccak256(this, value);\n\n    // signature is valid but doesn't match the data provided\n    require(proof == h);\n\n    if (signatures[proof] == 0)\n      signatures[proof] = signer;\n    else if (signatures[proof] != signer) {\n      // channel completed, both signatures provided\n      require(channelRecipient.send(value));\n      selfdestruct(channelSender);\n    }\n\n  }\n\n  function ChannelTimeout(bytes32 id) public {\n    require(DoesChannelExist(id));\n    Channel memory channel = channels[id];\n    uint startDate = channel.startDate;\n    uint channelTimeout = channel.timeout;\n    address channelSender = channel.sender;\n\n    require(startDate + channelTimeout <= now);\n\n    selfdestruct(channelSender);\n  }\n\n  // function GetChannelId(address from, address to) public constant returns (bytes32) {\n  //   return active_ids[from][to];\n  // }\n\n  function GetSender(bytes32 id) public constant returns (address) {\n    return channels[id].sender;\n  }\n\n  function GetRecipient(bytes32 id) public constant returns (address) {\n    return channels[id].recipient;\n  }\n\n  // Returns true if this is an active channel\n  function DoesChannelExist(bytes32 id) public constant returns (bool) {\n    return channels[id].sender != address(0);\n  }\n\n\n\n\n\n\n\n\n\n\n//   // old single channel version...\n//   address public channelSender;     // sending money\n//   address public channelRecipient;  // receiving money\n//   uint public startDate;\n//   uint public channelTimeout;\n//   mapping (bytes32 => address) signatures;\n//\n//\n//   constructor (address to, uint timeout) payable public {\n//     channelRecipient = to;\n//     channelSender = msg.sender;\n//     startDate = now;\n//     channelTimeout = timeout;\n//   }\n//\n//   // https://ethereum.stackexchange.com/questions/1777/workflow-on-signing-a-string-with-private-key-followed-by-signature-verificatio\n//   // usage: Alice needs to call CloseChannel twice for multi-sig\n//   // once with Bob's signed pair and once with her own.\n//   function CloseChannelOld(bytes32 h, uint8 v, bytes32 r, bytes32 s, uint value) public {\n//\n//     address signer;\n//     bytes32 proof;\n//\n//     // get signer from signature\n//     signer = ecrecover(h, v, r, s);\n//\n//     // require signature from valid party\n//     require(signer == channelSender || signer == channelRecipient);\n//\n//     proof = keccak256(this, value);\n//\n//     // signature is valid but doesn't match the data provided\n//     require(proof == h);\n//\n//     if (signatures[proof] == 0)\n//       signatures[proof] = signer;\n//     else if (signatures[proof] != signer) {\n//       // channel completed, both signatures provided\n//       require(channelRecipient.send(value));\n//       selfdestruct(channelSender);\n//     }\n//\n//   }\n//\n//   function ChannelTimeoutOld() public {\n//     require(startDate + channelTimeout <= now);\n//\n//     selfdestruct(channelSender);\n//   }\n\n}\n\n// asthma patients: pollen hurts.\n\n// live demo for pollen\n\n// then, some larger use cases. e.g. marketing automation...\n\n// you can send money to a contract before it's created...\n// send eth to any address you want. contract addrs are really predictable.\n\n\n// expensive to create contracts\n// just have 1 contract that\n// keeps track of multiple channels\n\n// method: 721 non fungible token\n// mapping for all channels, and a array with all channel ids\n// record the demo\n\n",
  "sourcePath": "/Users/allanjiang/Developer/dapps/cs359b-web-workflow-marketplace/contracts/SimpleChannel.sol",
  "compiler": {
    "name": "solc",
    "version": "0.4.23+commit.124ca40d.Emscripten.clang"
  },
  "schemaVersion": "2.0.0",
  "updatedAt": "2018-06-05T04:22:25.126Z"
}