{
  "contractName": "SimpleChannel",
  "abi": [
    {
      "constant": false,
      "inputs": [
        {
          "name": "to",
          "type": "address"
        },
        {
          "name": "timeout",
          "type": "uint256"
        }
      ],
      "name": "OpenChannel",
      "outputs": [
        {
          "name": "",
          "type": "bytes32"
        }
      ],
      "payable": true,
      "stateMutability": "payable",
      "type": "function"
    },
    {
      "constant": false,
      "inputs": [
        {
          "name": "id",
          "type": "bytes32"
        },
        {
          "name": "h",
          "type": "bytes32"
        },
        {
          "name": "v",
          "type": "uint8"
        },
        {
          "name": "r",
          "type": "bytes32"
        },
        {
          "name": "s",
          "type": "bytes32"
        },
        {
          "name": "value",
          "type": "uint256"
        }
      ],
      "name": "CloseChannel",
      "outputs": [],
      "payable": false,
      "stateMutability": "nonpayable",
      "type": "function"
    },
    {
      "constant": false,
      "inputs": [
        {
          "name": "id",
          "type": "bytes32"
        }
      ],
      "name": "ChannelTimeout",
      "outputs": [],
      "payable": false,
      "stateMutability": "nonpayable",
      "type": "function"
    },
    {
      "constant": true,
      "inputs": [
        {
          "name": "from",
          "type": "address"
        },
        {
          "name": "to",
          "type": "address"
        }
      ],
      "name": "GetChannelId",
      "outputs": [
        {
          "name": "",
          "type": "bytes32"
        }
      ],
      "payable": false,
      "stateMutability": "view",
      "type": "function"
    },
    {
      "constant": true,
      "inputs": [
        {
          "name": "id",
          "type": "bytes32"
        }
      ],
      "name": "GetDeposit",
      "outputs": [
        {
          "name": "",
          "type": "uint256"
        }
      ],
      "payable": false,
      "stateMutability": "view",
      "type": "function"
    },
    {
      "constant": true,
      "inputs": [
        {
          "name": "id",
          "type": "bytes32"
        }
      ],
      "name": "GetSender",
      "outputs": [
        {
          "name": "",
          "type": "address"
        }
      ],
      "payable": false,
      "stateMutability": "view",
      "type": "function"
    },
    {
      "constant": true,
      "inputs": [
        {
          "name": "id",
          "type": "bytes32"
        }
      ],
      "name": "GetRecipient",
      "outputs": [
        {
          "name": "",
          "type": "address"
        }
      ],
      "payable": false,
      "stateMutability": "view",
      "type": "function"
    },
    {
      "constant": true,
      "inputs": [
        {
          "name": "id",
          "type": "bytes32"
        }
      ],
      "name": "DoesChannelExist",
      "outputs": [
        {
          "name": "",
          "type": "bool"
        }
      ],
      "payable": false,
      "stateMutability": "view",
      "type": "function"
    }
  ],
  "bytecode": "0x608060405234801561001057600080fd5b5061117f806100206000396000f30060806040526004361061008e576000357c0100000000000000000000000000000000000000000000000000000000900463ffffffff1680632460ee73146100935780632f748d7b146101125780633bb02d29146101575780634ec9a10d146101b3578063864c9907146101e45780639ce9a5971461022d578063b9251b5f1461029f578063ff8635bb14610310575b600080fd5b34801561009f57600080fd5b506100f4600480360381019080803573ffffffffffffffffffffffffffffffffffffffff169060200190929190803573ffffffffffffffffffffffffffffffffffffffff169060200190929190505050610381565b60405180826000191660001916815260200191505060405180910390f35b34801561011e57600080fd5b506101416004803603810190808035600019169060200190929190505050610408565b6040518082815260200191505060405180910390f35b610195600480360381019080803573ffffffffffffffffffffffffffffffffffffffff1690602001909291908035906020019092919050505061042f565b60405180826000191660001916815260200191505060405180910390f35b3480156101bf57600080fd5b506101e26004803603810190808035600019169060200190929190505050610791565b005b3480156101f057600080fd5b506102136004803603810190808035600019169060200190929190505050610915565b604051808215151515815260200191505060405180910390f35b34801561023957600080fd5b5061029d60048036038101908080356000191690602001909291908035600019169060200190929190803560ff169060200190929190803560001916906020019092919080356000191690602001909291908035906020019092919050505061098b565b005b3480156102ab57600080fd5b506102ce6004803603810190808035600019169060200190929190505050611069565b604051808273ffffffffffffffffffffffffffffffffffffffff1673ffffffffffffffffffffffffffffffffffffffff16815260200191505060405180910390f35b34801561031c57600080fd5b5061033f60048036038101908080356000191690602001909291905050506110b0565b604051808273ffffffffffffffffffffffffffffffffffffffff1673ffffffffffffffffffffffffffffffffffffffff16815260200191505060405180910390f35b6000600260008473ffffffffffffffffffffffffffffffffffffffff1673ffffffffffffffffffffffffffffffffffffffff16815260200190815260200160002060008373ffffffffffffffffffffffffffffffffffffffff1673ffffffffffffffffffffffffffffffffffffffff16815260200190815260200160002054905092915050565b60008060008360001916600019168152602001908152602001600020600201549050919050565b60008061043a6110f7565b3373ffffffffffffffffffffffffffffffffffffffff168573ffffffffffffffffffffffffffffffffffffffff161415151561047557600080fd5b600060010260001916600260003373ffffffffffffffffffffffffffffffffffffffff1673ffffffffffffffffffffffffffffffffffffffff16815260200190815260200160002060008773ffffffffffffffffffffffffffffffffffffffff1673ffffffffffffffffffffffffffffffffffffffff168152602001908152602001600020546000191614151561050b57600080fd5b338542604051808473ffffffffffffffffffffffffffffffffffffffff1673ffffffffffffffffffffffffffffffffffffffff166c010000000000000000000000000281526014018373ffffffffffffffffffffffffffffffffffffffff1673ffffffffffffffffffffffffffffffffffffffff166c0100000000000000000000000002815260140182815260200193505050506040518091039020915084816020019073ffffffffffffffffffffffffffffffffffffffff16908173ffffffffffffffffffffffffffffffffffffffff168152505033816000019073ffffffffffffffffffffffffffffffffffffffff16908173ffffffffffffffffffffffffffffffffffffffff168152505034816040018181525050428160600181815250508381608001818152505080600080846000191660001916815260200190815260200160002060008201518160000160006101000a81548173ffffffffffffffffffffffffffffffffffffffff021916908373ffffffffffffffffffffffffffffffffffffffff16021790555060208201518160010160006101000a81548173ffffffffffffffffffffffffffffffffffffffff021916908373ffffffffffffffffffffffffffffffffffffffff16021790555060408201518160020155606082015181600301556080820151816004015590505081600260003373ffffffffffffffffffffffffffffffffffffffff1673ffffffffffffffffffffffffffffffffffffffff16815260200190815260200160002060008773ffffffffffffffffffffffffffffffffffffffff1673ffffffffffffffffffffffffffffffffffffffff1681526020019081526020016000208160001916905550819250505092915050565b6107996110f7565b60008060006107a785610915565b15156107b257600080fd5b600080866000191660001916815260200190815260200160002060a060405190810160405290816000820160009054906101000a900473ffffffffffffffffffffffffffffffffffffffff1673ffffffffffffffffffffffffffffffffffffffff1673ffffffffffffffffffffffffffffffffffffffff1681526020016001820160009054906101000a900473ffffffffffffffffffffffffffffffffffffffff1673ffffffffffffffffffffffffffffffffffffffff1673ffffffffffffffffffffffffffffffffffffffff1681526020016002820154815260200160038201548152602001600482015481525050935083606001519250836080015191508360000151905042828401111515156108ca57600080fd5b8073ffffffffffffffffffffffffffffffffffffffff166108fc85604001519081150290604051600060405180830381858888f19350505050151561090e57600080fd5b5050505050565b60008073ffffffffffffffffffffffffffffffffffffffff16600080846000191660001916815260200190815260200160002060000160009054906101000a900473ffffffffffffffffffffffffffffffffffffffff1673ffffffffffffffffffffffffffffffffffffffff1614159050919050565b6000806109966110f7565b60008060006109a48c610915565b15156109af57600080fd5b6000808d6000191660001916815260200190815260200160002060a060405190810160405290816000820160009054906101000a900473ffffffffffffffffffffffffffffffffffffffff1673ffffffffffffffffffffffffffffffffffffffff1673ffffffffffffffffffffffffffffffffffffffff1681526020016001820160009054906101000a900473ffffffffffffffffffffffffffffffffffffffff1673ffffffffffffffffffffffffffffffffffffffff1673ffffffffffffffffffffffffffffffffffffffff168152602001600282015481526020016003820154815260200160048201548152505093508360000151925083602001519150600160008d60001916600019168152602001908152602001600020905060018b8b8b8b604051600081526020016040526040518085600019166000191681526020018460ff1660ff1681526020018360001916600019168152602001826000191660001916815260200194505050505060206040516020810390808403906000865af1158015610b43573d6000803e3d6000fd5b5050506020604051035195508273ffffffffffffffffffffffffffffffffffffffff168673ffffffffffffffffffffffffffffffffffffffff161480610bb457508173ffffffffffffffffffffffffffffffffffffffff168673ffffffffffffffffffffffffffffffffffffffff16145b1515610bbf57600080fd5b3087604051808373ffffffffffffffffffffffffffffffffffffffff1673ffffffffffffffffffffffffffffffffffffffff166c0100000000000000000000000002815260140182815260200192505050604051809103902094508a600019168560001916141515610c3057600080fd5b6000816000876000191660001916815260200190815260200160002060009054906101000a900473ffffffffffffffffffffffffffffffffffffffff1673ffffffffffffffffffffffffffffffffffffffff161415610ce75785816000876000191660001916815260200190815260200160002060006101000a81548173ffffffffffffffffffffffffffffffffffffffff021916908373ffffffffffffffffffffffffffffffffffffffff16021790555061105b565b8573ffffffffffffffffffffffffffffffffffffffff16816000876000191660001916815260200190815260200160002060009054906101000a900473ffffffffffffffffffffffffffffffffffffffff1673ffffffffffffffffffffffffffffffffffffffff1614151561105a5786846040015110151515610d6957600080fd5b8173ffffffffffffffffffffffffffffffffffffffff166108fc889081150290604051600060405180830381858888f193505050501515610da957600080fd5b8273ffffffffffffffffffffffffffffffffffffffff166108fc888660400151039081150290604051600060405180830381858888f193505050501515610def57600080fd5b600260008060008e6000602081101515610e0557fe5b1a7f0100000000000000000000000000000000000000000000000000000000000000027effffffffffffffffffffffffffffffffffffffffffffffffffffffffffffff191660001916815260200190815260200160002060000160009054906101000a900473ffffffffffffffffffffffffffffffffffffffff1673ffffffffffffffffffffffffffffffffffffffff1673ffffffffffffffffffffffffffffffffffffffff16815260200190815260200160002060008060008e6000602081101515610ece57fe5b1a7f0100000000000000000000000000000000000000000000000000000000000000027effffffffffffffffffffffffffffffffffffffffffffffffffffffffffffff191660001916815260200190815260200160002060010160009054906101000a900473ffffffffffffffffffffffffffffffffffffffff1673ffffffffffffffffffffffffffffffffffffffff1673ffffffffffffffffffffffffffffffffffffffff168152602001908152602001600020600090556000808c6000602081101515610f9957fe5b1a7f0100000000000000000000000000000000000000000000000000000000000000027effffffffffffffffffffffffffffffffffffffffffffffffffffffffffffff1916600019168152602001908152602001600020600080820160006101000a81549073ffffffffffffffffffffffffffffffffffffffff02191690556001820160006101000a81549073ffffffffffffffffffffffffffffffffffffffff021916905560028201600090556003820160009055600482016000905550505b5b505050505050505050505050565b6000806000836000191660001916815260200190815260200160002060000160009054906101000a900473ffffffffffffffffffffffffffffffffffffffff169050919050565b6000806000836000191660001916815260200190815260200160002060010160009054906101000a900473ffffffffffffffffffffffffffffffffffffffff169050919050565b60a060405190810160405280600073ffffffffffffffffffffffffffffffffffffffff168152602001600073ffffffffffffffffffffffffffffffffffffffff16815260200160008152602001600081526020016000815250905600a165627a7a7230582080811c6cc143a15d9237be1d11e1dccc80871358f7a4d403b63e5daeb89a89da0029",
  "source": "pragma solidity ^0.4.23;\n\ncontract SimpleChannel {\n\n  // // Only one channel may be open for any two participants at any one time\n  struct Channel {\n    address sender;\n    address recipient;\n    uint deposit;\n    uint startDate;\n    uint timeout;\n  }\n  mapping (bytes32 => Channel) channels;\n  mapping (bytes32 => mapping (bytes32 => address)) all_signatures;\n  mapping (address => mapping(address => bytes32)) active_ids;\n\n  function OpenChannel(address to, uint timeout) payable public returns (bytes32) {\n    require(to != msg.sender);\n    require(active_ids[msg.sender][to] == bytes32(0));\n\n    // Create a channel\n    bytes32 id = keccak256(msg.sender, to, now);\n\n    // Initialize the channel\n    Channel memory _channel;\n    _channel.recipient = to;\n    _channel.sender = msg.sender;\n    _channel.deposit = msg.value;\n    _channel.startDate = now;\n    _channel.timeout = timeout;\n\n    channels[id] = _channel;\n    active_ids[msg.sender][to] = id;\n    return id;\n  }\n\n  // https://ethereum.stackexchange.com/questions/1777/workflow-on-signing-a-string-with-private-key-followed-by-signature-verificatio\n  // usage: Alice needs to call CloseChannel twice for multi-sig\n  // once with Bob's signed pair and once with her own.\n  function CloseChannel(bytes32 id, bytes32 h, uint8 v, bytes32 r, bytes32 s, uint value) public {\n\n    address signer;\n    bytes32 proof;\n    require(DoesChannelExist(id));\n    Channel memory channel = channels[id];\n    address channelSender = channel.sender;\n    address channelRecipient = channel.recipient;\n    mapping (bytes32 => address) signatures = all_signatures[id];\n\n    // get signer from signature\n    signer = ecrecover(h, v, r, s);\n\n    // require signature from valid party\n    require(signer == channelSender || signer == channelRecipient);\n\n    proof = keccak256(this, value);\n\n    // signature is valid but doesn't match the data provided\n    require(proof == h);\n\n    if (signatures[proof] == 0)\n      signatures[proof] = signer;\n    else if (signatures[proof] != signer) {\n      // channel completed, both signatures provided\n      require(channel.deposit >= value);\n      require(channelRecipient.send(value));\n      // selfdestruct(channelSender);\n      require(channelSender.send(channel.deposit - value));\n      delete active_ids[channels[h[0]].sender][channels[h[0]].recipient];\n      delete channels[h[0]];\n    }\n\n  }\n\n  function ChannelTimeout(bytes32 id) public {\n    require(DoesChannelExist(id));\n    Channel memory channel = channels[id];\n    uint startDate = channel.startDate;\n    uint channelTimeout = channel.timeout;\n    address channelSender = channel.sender;\n\n    require(startDate + channelTimeout <= now);\n\n    require(channelSender.send(channel.deposit));\n    // selfdestruct(channelSender);\n  }\n\n  function GetChannelId(address from, address to) public constant returns (bytes32) {\n    return active_ids[from][to];\n  }\n\n  function GetDeposit(bytes32 id) public constant returns (uint) {\n    return channels[id].deposit;\n  }\n\n  function GetSender(bytes32 id) public constant returns (address) {\n    return channels[id].sender;\n  }\n\n  function GetRecipient(bytes32 id) public constant returns (address) {\n    return channels[id].recipient;\n  }\n\n  // Returns true if this is an active channel\n  function DoesChannelExist(bytes32 id) public constant returns (bool) {\n    return channels[id].sender != address(0);\n  }\n\n\n\n\n\n\n\n\n\n\n//   // old single channel version...\n//   address public channelSender;     // sending money\n//   address public channelRecipient;  // receiving money\n//   uint public startDate;\n//   uint public channelTimeout;\n//   mapping (bytes32 => address) signatures;\n//\n//\n//   constructor (address to, uint timeout) payable public {\n//     channelRecipient = to;\n//     channelSender = msg.sender;\n//     startDate = now;\n//     channelTimeout = timeout;\n//   }\n//\n//   // https://ethereum.stackexchange.com/questions/1777/workflow-on-signing-a-string-with-private-key-followed-by-signature-verificatio\n//   // usage: Alice needs to call CloseChannel twice for multi-sig\n//   // once with Bob's signed pair and once with her own.\n//   function CloseChannelOld(bytes32 h, uint8 v, bytes32 r, bytes32 s, uint value) public {\n//\n//     address signer;\n//     bytes32 proof;\n//\n//     // get signer from signature\n//     signer = ecrecover(h, v, r, s);\n//\n//     // require signature from valid party\n//     require(signer == channelSender || signer == channelRecipient);\n//\n//     proof = keccak256(this, value);\n//\n//     // signature is valid but doesn't match the data provided\n//     require(proof == h);\n//\n//     if (signatures[proof] == 0)\n//       signatures[proof] = signer;\n//     else if (signatures[proof] != signer) {\n//       // channel completed, both signatures provided\n//       require(channelRecipient.send(value));\n//       selfdestruct(channelSender);\n//     }\n//\n//   }\n//\n//   function ChannelTimeoutOld() public {\n//     require(startDate + channelTimeout <= now);\n//\n//     selfdestruct(channelSender);\n//   }\n\n}\n\n// asthma patients: pollen hurts.\n\n// live demo for pollen\n\n// then, some larger use cases. e.g. marketing automation...\n\n// you can send money to a contract before it's created...\n// send eth to any address you want. contract addrs are really predictable.\n\n\n// expensive to create contracts\n// just have 1 contract that\n// keeps track of multiple channels\n\n// method: 721 non fungible token\n// mapping for all channels, and a array with all channel ids\n// record the demo\n\n",
  "sourcePath": "/Users/allanjiang/Developer/dapps/cs359b-web-workflow-marketplace/contracts/SimpleChannel.sol",
  "compiler": {
    "name": "solc",
    "version": "0.4.23+commit.124ca40d.Emscripten.clang"
  },
  "schemaVersion": "2.0.0",
  "updatedAt": "2018-06-05T07:23:29.866Z"
}