{
  "contractName": "SimpleChannel",
  "abi": [
    {
      "constant": false,
      "inputs": [
        {
          "name": "to",
          "type": "address"
        },
        {
          "name": "timeout",
          "type": "uint256"
        }
      ],
      "name": "OpenChannel",
      "outputs": [
        {
          "name": "",
          "type": "bytes32"
        }
      ],
      "payable": true,
      "stateMutability": "payable",
      "type": "function"
    },
    {
      "constant": false,
      "inputs": [
        {
          "name": "id",
          "type": "bytes32"
        },
        {
          "name": "h",
          "type": "bytes32"
        },
        {
          "name": "v",
          "type": "uint8"
        },
        {
          "name": "r",
          "type": "bytes32"
        },
        {
          "name": "s",
          "type": "bytes32"
        },
        {
          "name": "value",
          "type": "uint256"
        }
      ],
      "name": "CloseChannel",
      "outputs": [],
      "payable": false,
      "stateMutability": "nonpayable",
      "type": "function"
    },
    {
      "constant": false,
      "inputs": [
        {
          "name": "id",
          "type": "bytes32"
        }
      ],
      "name": "ChannelTimeout",
      "outputs": [],
      "payable": false,
      "stateMutability": "nonpayable",
      "type": "function"
    },
    {
      "constant": true,
      "inputs": [
        {
          "name": "from",
          "type": "address"
        },
        {
          "name": "to",
          "type": "address"
        }
      ],
      "name": "GetChannelId",
      "outputs": [
        {
          "name": "",
          "type": "bytes32"
        }
      ],
      "payable": false,
      "stateMutability": "view",
      "type": "function"
    },
    {
      "constant": true,
      "inputs": [
        {
          "name": "id",
          "type": "bytes32"
        }
      ],
      "name": "GetDeposit",
      "outputs": [
        {
          "name": "",
          "type": "uint256"
        }
      ],
      "payable": false,
      "stateMutability": "view",
      "type": "function"
    },
    {
      "constant": true,
      "inputs": [
        {
          "name": "id",
          "type": "bytes32"
        }
      ],
      "name": "GetSender",
      "outputs": [
        {
          "name": "",
          "type": "address"
        }
      ],
      "payable": false,
      "stateMutability": "view",
      "type": "function"
    },
    {
      "constant": true,
      "inputs": [
        {
          "name": "id",
          "type": "bytes32"
        }
      ],
      "name": "GetRecipient",
      "outputs": [
        {
          "name": "",
          "type": "address"
        }
      ],
      "payable": false,
      "stateMutability": "view",
      "type": "function"
    },
    {
      "constant": true,
      "inputs": [
        {
          "name": "id",
          "type": "bytes32"
        }
      ],
      "name": "DoesChannelExist",
      "outputs": [
        {
          "name": "",
          "type": "bool"
        }
      ],
      "payable": false,
      "stateMutability": "view",
      "type": "function"
    },
    {
      "constant": true,
      "inputs": [
        {
          "name": "from",
          "type": "bytes32"
        },
        {
          "name": "to",
          "type": "uint256"
        }
      ],
      "name": "Keccak2",
      "outputs": [
        {
          "name": "",
          "type": "bytes32"
        }
      ],
      "payable": false,
      "stateMutability": "pure",
      "type": "function"
    },
    {
      "constant": true,
      "inputs": [
        {
          "name": "from",
          "type": "bytes32"
        }
      ],
      "name": "Keccak1",
      "outputs": [
        {
          "name": "",
          "type": "bytes32"
        }
      ],
      "payable": false,
      "stateMutability": "pure",
      "type": "function"
    },
    {
      "constant": true,
      "inputs": [
        {
          "name": "from",
          "type": "bytes32"
        }
      ],
      "name": "Sha3",
      "outputs": [
        {
          "name": "",
          "type": "bytes32"
        }
      ],
      "payable": false,
      "stateMutability": "pure",
      "type": "function"
    },
    {
      "constant": true,
      "inputs": [
        {
          "name": "id",
          "type": "bytes32"
        },
        {
          "name": "value",
          "type": "uint256"
        },
        {
          "name": "h",
          "type": "bytes32"
        }
      ],
      "name": "Test",
      "outputs": [
        {
          "name": "",
          "type": "bool"
        }
      ],
      "payable": false,
      "stateMutability": "pure",
      "type": "function"
    }
  ],
  "bytecode": "0x608060405234801561001057600080fd5b506110e2806100206000396000f3006080604052600436106100ba576000357c0100000000000000000000000000000000000000000000000000000000900463ffffffff1680632460ee73146100bf5780632f748d7b1461013e5780633bb02d29146101835780634ec9a10d146101df578063864c9907146102105780639ce9a59714610259578063a7255c1f146102cb578063b9251b5f14610318578063e9f64b2614610389578063f05127f2146103ea578063fb7ba96e14610437578063ff8635bb1461048e575b600080fd5b3480156100cb57600080fd5b50610120600480360381019080803573ffffffffffffffffffffffffffffffffffffffff169060200190929190803573ffffffffffffffffffffffffffffffffffffffff1690602001909291905050506104ff565b60405180826000191660001916815260200191505060405180910390f35b34801561014a57600080fd5b5061016d6004803603810190808035600019169060200190929190505050610586565b6040518082815260200191505060405180910390f35b6101c1600480360381019080803573ffffffffffffffffffffffffffffffffffffffff169060200190929190803590602001909291905050506105ad565b60405180826000191660001916815260200191505060405180910390f35b3480156101eb57600080fd5b5061020e600480360381019080803560001916906020019092919050505061090f565b005b34801561021c57600080fd5b5061023f6004803603810190808035600019169060200190929190505050610a93565b604051808215151515815260200191505060405180910390f35b34801561026557600080fd5b506102c960048036038101908080356000191690602001909291908035600019169060200190929190803560ff1690602001909291908035600019169060200190929190803560001916906020019092919080359060200190929190505050610b09565b005b3480156102d757600080fd5b506102fa6004803603810190808035600019169060200190929190505050610f0e565b60405180826000191660001916815260200191505060405180910390f35b34801561032457600080fd5b506103476004803603810190808035600019169060200190929190505050610f35565b604051808273ffffffffffffffffffffffffffffffffffffffff1673ffffffffffffffffffffffffffffffffffffffff16815260200191505060405180910390f35b34801561039557600080fd5b506103d06004803603810190808035600019169060200190929190803590602001909291908035600019169060200190929190505050610f7c565b604051808215151515815260200191505060405180910390f35b3480156103f657600080fd5b506104196004803603810190808035600019169060200190929190505050610fbc565b60405180826000191660001916815260200191505060405180910390f35b34801561044357600080fd5b50610470600480360381019080803560001916906020019092919080359060200190929190505050610fe3565b60405180826000191660001916815260200191505060405180910390f35b34801561049a57600080fd5b506104bd6004803603810190808035600019169060200190929190505050611013565b604051808273ffffffffffffffffffffffffffffffffffffffff1673ffffffffffffffffffffffffffffffffffffffff16815260200191505060405180910390f35b6000600160008473ffffffffffffffffffffffffffffffffffffffff1673ffffffffffffffffffffffffffffffffffffffff16815260200190815260200160002060008373ffffffffffffffffffffffffffffffffffffffff1673ffffffffffffffffffffffffffffffffffffffff16815260200190815260200160002054905092915050565b60008060008360001916600019168152602001908152602001600020600201549050919050565b6000806105b861105a565b3373ffffffffffffffffffffffffffffffffffffffff168573ffffffffffffffffffffffffffffffffffffffff16141515156105f357600080fd5b600060010260001916600160003373ffffffffffffffffffffffffffffffffffffffff1673ffffffffffffffffffffffffffffffffffffffff16815260200190815260200160002060008773ffffffffffffffffffffffffffffffffffffffff1673ffffffffffffffffffffffffffffffffffffffff168152602001908152602001600020546000191614151561068957600080fd5b338542604051808473ffffffffffffffffffffffffffffffffffffffff1673ffffffffffffffffffffffffffffffffffffffff166c010000000000000000000000000281526014018373ffffffffffffffffffffffffffffffffffffffff1673ffffffffffffffffffffffffffffffffffffffff166c0100000000000000000000000002815260140182815260200193505050506040518091039020915084816020019073ffffffffffffffffffffffffffffffffffffffff16908173ffffffffffffffffffffffffffffffffffffffff168152505033816000019073ffffffffffffffffffffffffffffffffffffffff16908173ffffffffffffffffffffffffffffffffffffffff168152505034816040018181525050428160600181815250508381608001818152505080600080846000191660001916815260200190815260200160002060008201518160000160006101000a81548173ffffffffffffffffffffffffffffffffffffffff021916908373ffffffffffffffffffffffffffffffffffffffff16021790555060208201518160010160006101000a81548173ffffffffffffffffffffffffffffffffffffffff021916908373ffffffffffffffffffffffffffffffffffffffff16021790555060408201518160020155606082015181600301556080820151816004015590505081600160003373ffffffffffffffffffffffffffffffffffffffff1673ffffffffffffffffffffffffffffffffffffffff16815260200190815260200160002060008773ffffffffffffffffffffffffffffffffffffffff1673ffffffffffffffffffffffffffffffffffffffff1681526020019081526020016000208160001916905550819250505092915050565b61091761105a565b600080600061092585610a93565b151561093057600080fd5b600080866000191660001916815260200190815260200160002060a060405190810160405290816000820160009054906101000a900473ffffffffffffffffffffffffffffffffffffffff1673ffffffffffffffffffffffffffffffffffffffff1673ffffffffffffffffffffffffffffffffffffffff1681526020016001820160009054906101000a900473ffffffffffffffffffffffffffffffffffffffff1673ffffffffffffffffffffffffffffffffffffffff1673ffffffffffffffffffffffffffffffffffffffff168152602001600282015481526020016003820154815260200160048201548152505093508360600151925083608001519150836000015190504282840111151515610a4857600080fd5b8073ffffffffffffffffffffffffffffffffffffffff166108fc85604001519081150290604051600060405180830381858888f193505050501515610a8c57600080fd5b5050505050565b60008073ffffffffffffffffffffffffffffffffffffffff16600080846000191660001916815260200190815260200160002060000160009054906101000a900473ffffffffffffffffffffffffffffffffffffffff1673ffffffffffffffffffffffffffffffffffffffff1614159050919050565b610b1161105a565b600080610b1d89610a93565b1515610b2857600080fd5b6000808a6000191660001916815260200190815260200160002060a060405190810160405290816000820160009054906101000a900473ffffffffffffffffffffffffffffffffffffffff1673ffffffffffffffffffffffffffffffffffffffff1673ffffffffffffffffffffffffffffffffffffffff1681526020016001820160009054906101000a900473ffffffffffffffffffffffffffffffffffffffff1673ffffffffffffffffffffffffffffffffffffffff1673ffffffffffffffffffffffffffffffffffffffff16815260200160028201548152602001600382015481526020016004820154815250509250826020015173ffffffffffffffffffffffffffffffffffffffff163373ffffffffffffffffffffffffffffffffffffffff16141515610c5857600080fd5b600188888888604051600081526020016040526040518085600019166000191681526020018460ff1660ff1681526020018360001916600019168152602001826000191660001916815260200194505050505060206040516020810390808403906000865af1158015610ccf573d6000803e3d6000fd5b505050602060405103519150826000015173ffffffffffffffffffffffffffffffffffffffff168273ffffffffffffffffffffffffffffffffffffffff16141515610d1957600080fd5b8884604051808360001916600019168152602001828152602001925050506040518091039020905087600019168160001916141515610d5757600080fd5b83836040015110151515610d6a57600080fd5b826020015173ffffffffffffffffffffffffffffffffffffffff166108fc859081150290604051600060405180830381858888f193505050501515610dae57600080fd5b826000015173ffffffffffffffffffffffffffffffffffffffff166108fc858560400151039081150290604051600060405180830381858888f193505050501515610df857600080fd5b60016000846000015173ffffffffffffffffffffffffffffffffffffffff1673ffffffffffffffffffffffffffffffffffffffff1681526020019081526020016000206000846020015173ffffffffffffffffffffffffffffffffffffffff1673ffffffffffffffffffffffffffffffffffffffff168152602001908152602001600020600090556000808a60001916600019168152602001908152602001600020600080820160006101000a81549073ffffffffffffffffffffffffffffffffffffffff02191690556001820160006101000a81549073ffffffffffffffffffffffffffffffffffffffff02191690556002820160009055600382016000905560048201600090555050505050505050505050565b60008160405180826000191660001916815260200191505060405180910390209050919050565b6000806000836000191660001916815260200190815260200160002060000160009054906101000a900473ffffffffffffffffffffffffffffffffffffffff169050919050565b6000808484604051808360001916600019168152602001828152602001925050506040518091039020905082600019168160001916149150509392505050565b60008160405180826000191660001916815260200191505060405180910390209050919050565b60008282604051808360001916600019168152602001828152602001925050506040518091039020905092915050565b6000806000836000191660001916815260200190815260200160002060010160009054906101000a900473ffffffffffffffffffffffffffffffffffffffff169050919050565b60a060405190810160405280600073ffffffffffffffffffffffffffffffffffffffff168152602001600073ffffffffffffffffffffffffffffffffffffffff16815260200160008152602001600081526020016000815250905600a165627a7a72305820670649c380036d3cf39589b5ea9cb0e68da9051954fa3b23705aec184c06a5cf0029",
  "source": "pragma solidity ^0.4.23;\n\ncontract SimpleChannel {\n\n  // // Only one channel may be open for any two participants at any one time\n  struct Channel {\n    address sender;\n    address recipient;\n    uint deposit;\n    uint startDate;\n    uint timeout;\n  }\n  mapping (bytes32 => Channel) channels;\n  mapping (address => mapping(address => bytes32)) active_ids;\n\n  function OpenChannel(address to, uint timeout) payable public returns (bytes32) {\n    require(to != msg.sender);\n    require(active_ids[msg.sender][to] == bytes32(0));\n\n    // Create a channel\n    bytes32 id = keccak256(msg.sender, to, now);\n\n    // Initialize the channel\n    Channel memory _channel;\n    _channel.recipient = to;\n    _channel.sender = msg.sender;\n    _channel.deposit = msg.value;\n    _channel.startDate = now;\n    _channel.timeout = timeout;\n\n    channels[id] = _channel;\n    active_ids[msg.sender][to] = id;\n    return id;\n  }\n\n  // https://ethereum.stackexchange.com/questions/1777/workflow-on-signing-a-string-with-private-key-followed-by-signature-verificatio\n  // usage: Alice needs to call CloseChannel twice for multi-sig\n  // once with Bob's signed pair and once with her own.\n  function CloseChannel(bytes32 id, bytes32 h,\n                        uint8 v, bytes32 r, bytes32 s,\n                        uint value) public {\n\n    require(DoesChannelExist(id));\n    Channel memory channel = channels[id];\n\n    // Only the recipient can close a channel\n    require(msg.sender == channel.recipient);\n\n    // Only the sender's signature can unlock the channel\n    address signer = ecrecover(h, v, r, s);\n    require(signer == channel.sender);\n\n    // Make sure signed hash matches the channel and amount\n    bytes32 proof = keccak256(id, value);\n    require(proof == h);\n\n    // Disburse money, delete the channel\n    require(channel.deposit >= value);\n    require(channel.recipient.send(value));\n    require(channel.sender.send(channel.deposit - value));\n    delete active_ids[channel.sender][channel.recipient];\n    delete channels[id];\n  }\n\n\n  function ChannelTimeout(bytes32 id) public {\n    require(DoesChannelExist(id));\n    Channel memory channel = channels[id];\n    uint startDate = channel.startDate;\n    uint channelTimeout = channel.timeout;\n    address channelSender = channel.sender;\n\n    require(startDate + channelTimeout <= now);\n\n    require(channelSender.send(channel.deposit));\n  }\n\n  function GetChannelId(address from, address to) public constant returns (bytes32) {\n    return active_ids[from][to];\n  }\n\n  function GetDeposit(bytes32 id) public constant returns (uint) {\n    return channels[id].deposit;\n  }\n\n  function GetSender(bytes32 id) public constant returns (address) {\n    return channels[id].sender;\n  }\n\n  function GetRecipient(bytes32 id) public constant returns (address) {\n    return channels[id].recipient;\n  }\n\n  // Returns true if this is an active channel\n  function DoesChannelExist(bytes32 id) public constant returns (bool) {\n    return channels[id].sender != address(0);\n  }\n\n\n  function Keccak2(bytes32 from, uint to) public pure returns (bytes32) {\n    return keccak256(from,to);\n  }\n  function Keccak1(bytes32 from) public pure returns (bytes32) {\n    return keccak256(from);\n  }\n  function Sha3(bytes32 from) public pure returns (bytes32) {\n    return sha3(from);\n  }\n  function Test(bytes32 id, uint value, bytes32 h) public pure returns (bool) {\n    bytes32 proof = keccak256(id, value);\n    return proof == h;\n  }\n\n\n\n\n\n\n\n\n\n//   // old single channel version...\n//   address public channelSender;     // sending money\n//   address public channelRecipient;  // receiving money\n//   uint public startDate;\n//   uint public channelTimeout;\n//   mapping (bytes32 => address) signatures;\n//\n//\n//   constructor (address to, uint timeout) payable public {\n//     channelRecipient = to;\n//     channelSender = msg.sender;\n//     startDate = now;\n//     channelTimeout = timeout;\n//   }\n//\n//   // https://ethereum.stackexchange.com/questions/1777/workflow-on-signing-a-string-with-private-key-followed-by-signature-verificatio\n//   // usage: Alice needs to call CloseChannel twice for multi-sig\n//   // once with Bob's signed pair and once with her own.\n//   function CloseChannelOld(bytes32 h, uint8 v, bytes32 r, bytes32 s, uint value) public {\n//\n//     address signer;\n//     bytes32 proof;\n//\n//     // get signer from signature\n//     signer = ecrecover(h, v, r, s);\n//\n//     // require signature from valid party\n//     require(signer == channelSender || signer == channelRecipient);\n//\n//     proof = keccak256(this, value);\n//\n//     // signature is valid but doesn't match the data provided\n//     require(proof == h);\n//\n//     if (signatures[proof] == 0)\n//       signatures[proof] = signer;\n//     else if (signatures[proof] != signer) {\n//       // channel completed, both signatures provided\n//       require(channelRecipient.send(value));\n//       selfdestruct(channelSender);\n//     }\n//\n//   }\n//\n//   function ChannelTimeoutOld() public {\n//     require(startDate + channelTimeout <= now);\n//\n//     selfdestruct(channelSender);\n//   }\n\n}\n\n// asthma patients: pollen hurts.\n\n// live demo for pollen\n\n// then, some larger use cases. e.g. marketing automation...\n\n// you can send money to a contract before it's created...\n// send eth to any address you want. contract addrs are really predictable.\n\n\n// expensive to create contracts\n// just have 1 contract that\n// keeps track of multiple channels\n\n// method: 721 non fungible token\n// mapping for all channels, and a array with all channel ids\n// record the demo\n\n",
  "sourcePath": "/home/longtran/Stanford/2017-2018/CS359B/cs359b-web-workflow-marketplace/contracts/SimpleChannel.sol",
  "compiler": {
    "name": "solc",
    "version": "0.4.23+commit.124ca40d.Emscripten.clang"
  },
  "schemaVersion": "2.0.0",
  "updatedAt": "2018-06-06T07:25:54.671Z"
}