{
  "contractName": "SimpleChannel",
  "abi": [
    {
      "constant": true,
      "inputs": [],
      "name": "channelRecipient",
      "outputs": [
        {
          "name": "",
          "type": "address"
        }
      ],
      "payable": false,
      "stateMutability": "view",
      "type": "function"
    },
    {
      "constant": true,
      "inputs": [],
      "name": "channelSender",
      "outputs": [
        {
          "name": "",
          "type": "address"
        }
      ],
      "payable": false,
      "stateMutability": "view",
      "type": "function"
    },
    {
      "constant": true,
      "inputs": [],
      "name": "startDate",
      "outputs": [
        {
          "name": "",
          "type": "uint256"
        }
      ],
      "payable": false,
      "stateMutability": "view",
      "type": "function"
    },
    {
      "constant": true,
      "inputs": [],
      "name": "channelTimeout",
      "outputs": [
        {
          "name": "",
          "type": "uint256"
        }
      ],
      "payable": false,
      "stateMutability": "view",
      "type": "function"
    },
    {
      "inputs": [
        {
          "name": "to",
          "type": "address"
        },
        {
          "name": "timeout",
          "type": "uint256"
        }
      ],
      "payable": true,
      "stateMutability": "payable",
      "type": "constructor"
    },
    {
      "constant": false,
      "inputs": [
        {
          "name": "h",
          "type": "bytes32"
        },
        {
          "name": "v",
          "type": "uint8"
        },
        {
          "name": "r",
          "type": "bytes32"
        },
        {
          "name": "s",
          "type": "bytes32"
        },
        {
          "name": "value",
          "type": "uint256"
        }
      ],
      "name": "CloseChannelOld",
      "outputs": [],
      "payable": false,
      "stateMutability": "nonpayable",
      "type": "function"
    },
    {
      "constant": false,
      "inputs": [],
      "name": "ChannelTimeoutOld",
      "outputs": [],
      "payable": false,
      "stateMutability": "nonpayable",
      "type": "function"
    }
  ],
  "bytecode": "0x6080604052604051604080610717833981018060405281019080805190602001909291908051906020019092919050505081600160006101000a81548173ffffffffffffffffffffffffffffffffffffffff021916908373ffffffffffffffffffffffffffffffffffffffff160217905550336000806101000a81548173ffffffffffffffffffffffffffffffffffffffff021916908373ffffffffffffffffffffffffffffffffffffffff16021790555042600281905550806003819055505050610647806100d06000396000f300608060405260043610610078576000357c0100000000000000000000000000000000000000000000000000000000900463ffffffff16806304758e791461007d578063075aa0c4146100d45780630b97bc861461012b5780632ef2d55e1461015657806342609afe14610181578063fc45a412146101e5575b600080fd5b34801561008957600080fd5b506100926101fc565b604051808273ffffffffffffffffffffffffffffffffffffffff1673ffffffffffffffffffffffffffffffffffffffff16815260200191505060405180910390f35b3480156100e057600080fd5b506100e9610222565b604051808273ffffffffffffffffffffffffffffffffffffffff1673ffffffffffffffffffffffffffffffffffffffff16815260200191505060405180910390f35b34801561013757600080fd5b50610140610247565b6040518082815260200191505060405180910390f35b34801561016257600080fd5b5061016b61024d565b6040518082815260200191505060405180910390f35b34801561018d57600080fd5b506101e36004803603810190808035600019169060200190929190803560ff1690602001909291908035600019169060200190929190803560001916906020019092919080359060200190929190505050610253565b005b3480156101f157600080fd5b506101fa6105cc565b005b600160009054906101000a900473ffffffffffffffffffffffffffffffffffffffff1681565b6000809054906101000a900473ffffffffffffffffffffffffffffffffffffffff1681565b60025481565b60035481565b600080600187878787604051600081526020016040526040518085600019166000191681526020018460ff1660ff1681526020018360001916600019168152602001826000191660001916815260200194505050505060206040516020810390808403906000865af11580156102cd573d6000803e3d6000fd5b5050506020604051035191506000809054906101000a900473ffffffffffffffffffffffffffffffffffffffff1673ffffffffffffffffffffffffffffffffffffffff168273ffffffffffffffffffffffffffffffffffffffff1614806103815750600160009054906101000a900473ffffffffffffffffffffffffffffffffffffffff1673ffffffffffffffffffffffffffffffffffffffff168273ffffffffffffffffffffffffffffffffffffffff16145b151561038c57600080fd5b3083604051808373ffffffffffffffffffffffffffffffffffffffff1673ffffffffffffffffffffffffffffffffffffffff166c010000000000000000000000000281526014018281526020019250505060405180910390209050866000191681600019161415156103fd57600080fd5b600060046000836000191660001916815260200190815260200160002060009054906101000a900473ffffffffffffffffffffffffffffffffffffffff1673ffffffffffffffffffffffffffffffffffffffff1614156104b6578160046000836000191660001916815260200190815260200160002060006101000a81548173ffffffffffffffffffffffffffffffffffffffff021916908373ffffffffffffffffffffffffffffffffffffffff1602179055506105c3565b8173ffffffffffffffffffffffffffffffffffffffff1660046000836000191660001916815260200190815260200160002060009054906101000a900473ffffffffffffffffffffffffffffffffffffffff1673ffffffffffffffffffffffffffffffffffffffff161415156105c257600160009054906101000a900473ffffffffffffffffffffffffffffffffffffffff1673ffffffffffffffffffffffffffffffffffffffff166108fc849081150290604051600060405180830381858888f19350505050151561058857600080fd5b6000809054906101000a900473ffffffffffffffffffffffffffffffffffffffff1673ffffffffffffffffffffffffffffffffffffffff16ff5b5b50505050505050565b4260035460025401111515156105e157600080fd5b6000809054906101000a900473ffffffffffffffffffffffffffffffffffffffff1673ffffffffffffffffffffffffffffffffffffffff16ff00a165627a7a72305820b531774934e775c9e0b220b0503418b4dc59577067467add51c6c2593caf09c00029",
  "source": "pragma solidity ^0.4.23;\n\ncontract SimpleChannel {\n\n  // // Only one channel may be open for any two participants at any one time\n  // struct Channel {\n  //   address sender;\n  //   address recipient;\n  //   uint startDate;\n  //   uint timeout;\n  //   mapping (bytes32 => address) signatures;\n  // }\n  // mapping (bytes32 => Channel) channels;\n\n  // function OpenChannel(address to, uint timeout) payable public returns (bytes32) {\n  //   require(to != msg.sender);\n\n  //   // Create a channel\n  //   bytes32 id = keccak256(msg.sender, to, now);\n\n  //   // Initialize the channel\n  //   Channel memory _channel;\n  //   _channel.recipient = to;\n  //   _channel.sender = msg.sender;\n  //   _channel.startDate = now;\n  //   _channel.timeout = timeout;\n\n  //   channels[id] = _channel;\n  //   return id;\n  // }\n\n  // // https://ethereum.stackexchange.com/questions/1777/workflow-on-signing-a-string-with-private-key-followed-by-signature-verificatio\n  // // usage: Alice needs to call CloseChannel twice for multi-sig\n  // // once with Bob's signed pair and once with her own.\n  // function CloseChannel(bytes32 id, bytes32 h, uint8 v, bytes32 r, bytes32 s, uint value) public {\n\n  //   address signer;\n  //   bytes32 proof;\n  //   require(channels[id].isValue);\n  //   Channel channel = channels[id];\n  //   address channelSender = channel.sender;\n  //   address channelRecipient = channel.recipient;\n  //   mapping (bytes32 => address) signatures = channel.signatures;\n\n  //   // get signer from signature\n  //   signer = ecrecover(h, v, r, s);\n\n  //   // require signature from valid party\n  //   require(signer == channelSender || signer == channelRecipient);\n\n  //   proof = keccak256(this, value);\n\n  //   // signature is valid but doesn't match the data provided\n  //   require(proof == h);\n\n  //   if (signatures[proof] == 0)\n  //     signatures[proof] = signer;\n  //   else if (signatures[proof] != signer) {\n  //     // channel completed, both signatures provided\n  //     require(channelRecipient.send(value));\n  //     selfdestruct(channelSender);\n  //   }\n\n  // }\n\n  // function ChannelTimeout(bytes32 id) public {\n  //   require(channels[id].isValue);\n  //   Channel channel = channels[id];\n  //   uint startDate = channel.startDate;\n  //   uint channelTimeout = channel.timeout;\n  //   address channelSender = channel.sender;\n\n  //   require(startDate + channelTimeout <= now);\n\n  //   selfdestruct(channelSender);\n  // }\n\n  // function GetChannelId(address from, address to) public constant returns (bytes32) {\n  //   return active_ids[from][to];\n  // }\n\n  // function GetSender(bytes32 id) public constant returns (address) {\n  //   return channels[id].sender;\n  // }\n\n  // function GetRecipient(bytes32 id) public constant returns (address) {\n  //   return channels[id].recipient;\n  // }\n\n  // // Returns true if this is an active channel\n  // function DoesChannelExist(bytes32 id) public constant returns (bool) {\n  //   return channels[id].token != address(0);\n  // }\n  // // Returns true if the channel is closed (or if the channel doesn't exist)\n  // function IsChannelClosed(bytes32 id) public constant returns (bool) {\n  //   return channels[id].closeTime != 0;\n  // }\n\n\n\n\n\n\n\n\n\n\n  // old single channel version...\n  address public channelSender;     // sending money\n  address public channelRecipient;  // receiving money\n  uint public startDate;\n  uint public channelTimeout;\n  mapping (bytes32 => address) signatures;\n\n\n  constructor (address to, uint timeout) payable public {\n    channelRecipient = to;\n    channelSender = msg.sender;\n    startDate = now;\n    channelTimeout = timeout;\n  }\n\n  // https://ethereum.stackexchange.com/questions/1777/workflow-on-signing-a-string-with-private-key-followed-by-signature-verificatio\n  // usage: Alice needs to call CloseChannel twice for multi-sig\n  // once with Bob's signed pair and once with her own.\n  function CloseChannelOld(bytes32 h, uint8 v, bytes32 r, bytes32 s, uint value) public {\n\n    address signer;\n    bytes32 proof;\n\n    // get signer from signature\n    signer = ecrecover(h, v, r, s);\n\n    // require signature from valid party\n    require(signer == channelSender || signer == channelRecipient);\n\n    proof = keccak256(this, value);\n\n    // signature is valid but doesn't match the data provided\n    require(proof == h);\n\n    if (signatures[proof] == 0)\n      signatures[proof] = signer;\n    else if (signatures[proof] != signer) {\n      // channel completed, both signatures provided\n      require(channelRecipient.send(value));\n      selfdestruct(channelSender);\n    }\n\n  }\n\n  function ChannelTimeoutOld() public {\n    require(startDate + channelTimeout <= now);\n\n    selfdestruct(channelSender);\n  }\n\n}\n\n// asthma patients: pollen hurts.\n\n// live demo for pollen\n\n// then, some larger use cases. e.g. marketing automation...\n\n// you can send money to a contract before it's created...\n// send eth to any address you want. contract addrs are really predictable.\n\n\n// expensive to create contracts\n// just have 1 contract that\n// keeps track of multiple channels\n\n// method: 721 non fungible token\n// mapping for all channels, and a array with all channel ids\n// record the demo\n\n",
  "sourcePath": "/Users/allanjiang/Developer/dapps/cs359b-web-workflow-marketplace/contracts/SimpleChannel.sol",
  "compiler": {
    "name": "solc",
    "version": "0.4.23+commit.124ca40d.Emscripten.clang"
  },
  "schemaVersion": "2.0.0",
  "updatedAt": "2018-06-04T06:24:22.547Z"
}