{
  "contractName": "TokenChannels",
  "abi": [
    {
      "constant": false,
      "inputs": [
        {
          "name": "token",
          "type": "address"
        },
        {
          "name": "to",
          "type": "address"
        },
        {
          "name": "amount",
          "type": "uint256"
        },
        {
          "name": "challenge",
          "type": "uint256"
        }
      ],
      "name": "OpenChannel",
      "outputs": [],
      "payable": false,
      "stateMutability": "nonpayable",
      "type": "function"
    },
    {
      "constant": false,
      "inputs": [
        {
          "name": "h",
          "type": "bytes32[4]"
        },
        {
          "name": "v",
          "type": "uint8"
        },
        {
          "name": "value",
          "type": "uint256"
        },
        {
          "name": "nonce",
          "type": "uint256"
        }
      ],
      "name": "CloseChannel",
      "outputs": [],
      "payable": false,
      "stateMutability": "nonpayable",
      "type": "function"
    },
    {
      "constant": false,
      "inputs": [
        {
          "name": "h",
          "type": "bytes32[4]"
        },
        {
          "name": "v",
          "type": "uint8"
        },
        {
          "name": "value",
          "type": "uint256"
        },
        {
          "name": "nonce",
          "type": "uint256"
        }
      ],
      "name": "Challenge",
      "outputs": [],
      "payable": false,
      "stateMutability": "nonpayable",
      "type": "function"
    },
    {
      "constant": false,
      "inputs": [
        {
          "name": "id",
          "type": "bytes32"
        }
      ],
      "name": "Finalize",
      "outputs": [],
      "payable": false,
      "stateMutability": "nonpayable",
      "type": "function"
    },
    {
      "constant": true,
      "inputs": [
        {
          "name": "h",
          "type": "bytes32[4]"
        },
        {
          "name": "v",
          "type": "uint8"
        },
        {
          "name": "value",
          "type": "uint256"
        }
      ],
      "name": "VerifyMsg",
      "outputs": [
        {
          "name": "",
          "type": "bool"
        }
      ],
      "payable": false,
      "stateMutability": "view",
      "type": "function"
    },
    {
      "constant": true,
      "inputs": [
        {
          "name": "from",
          "type": "address"
        },
        {
          "name": "to",
          "type": "address"
        }
      ],
      "name": "GetChannelId",
      "outputs": [
        {
          "name": "",
          "type": "bytes32"
        }
      ],
      "payable": false,
      "stateMutability": "view",
      "type": "function"
    },
    {
      "constant": true,
      "inputs": [
        {
          "name": "id",
          "type": "bytes32"
        }
      ],
      "name": "GetDeposit",
      "outputs": [
        {
          "name": "",
          "type": "uint256"
        }
      ],
      "payable": false,
      "stateMutability": "view",
      "type": "function"
    },
    {
      "constant": true,
      "inputs": [
        {
          "name": "id",
          "type": "bytes32"
        }
      ],
      "name": "GetSender",
      "outputs": [
        {
          "name": "",
          "type": "address"
        }
      ],
      "payable": false,
      "stateMutability": "view",
      "type": "function"
    },
    {
      "constant": true,
      "inputs": [
        {
          "name": "id",
          "type": "bytes32"
        }
      ],
      "name": "GetRecipient",
      "outputs": [
        {
          "name": "",
          "type": "address"
        }
      ],
      "payable": false,
      "stateMutability": "view",
      "type": "function"
    },
    {
      "constant": true,
      "inputs": [
        {
          "name": "id",
          "type": "bytes32"
        }
      ],
      "name": "GetToken",
      "outputs": [
        {
          "name": "",
          "type": "address"
        }
      ],
      "payable": false,
      "stateMutability": "view",
      "type": "function"
    },
    {
      "constant": true,
      "inputs": [
        {
          "name": "id",
          "type": "bytes32"
        }
      ],
      "name": "DoesChannelExist",
      "outputs": [
        {
          "name": "",
          "type": "bool"
        }
      ],
      "payable": false,
      "stateMutability": "view",
      "type": "function"
    },
    {
      "constant": true,
      "inputs": [
        {
          "name": "id",
          "type": "bytes32"
        }
      ],
      "name": "IsChannelClosed",
      "outputs": [
        {
          "name": "",
          "type": "bool"
        }
      ],
      "payable": false,
      "stateMutability": "view",
      "type": "function"
    },
    {
      "constant": true,
      "inputs": [
        {
          "name": "id",
          "type": "bytes32"
        }
      ],
      "name": "ChallengeRemaining",
      "outputs": [
        {
          "name": "",
          "type": "uint256"
        }
      ],
      "payable": false,
      "stateMutability": "view",
      "type": "function"
    }
  ],
  "bytecode": "0x608060405234801561001057600080fd5b50612841806100206000396000f3006080604052600436106100c5576000357c0100000000000000000000000000000000000000000000000000000000900463ffffffff16806312b2f070146100ca5780631c67c01c1461010f5780632460ee73146101585780632f748d7b146101d757806342f462341461021c57806352d9bfbe1461028d57806377c643d214610300578063864c9907146103315780639a2e2d521461037a578063b475be60146103f1578063b9251b5f14610472578063f8af607a146104e3578063ff8635bb14610556575b600080fd5b3480156100d657600080fd5b506100f960048036038101908080356000191690602001909291905050506105c7565b6040518082815260200191505060405180910390f35b34801561011b57600080fd5b5061013e6004803603810190808035600019169060200190929190505050610690565b604051808215151515815260200191505060405180910390f35b34801561016457600080fd5b506101b9600480360381019080803573ffffffffffffffffffffffffffffffffffffffff169060200190929190803573ffffffffffffffffffffffffffffffffffffffff1690602001909291905050506106bb565b60405180826000191660001916815260200191505060405180910390f35b3480156101e357600080fd5b506102066004803603810190808035600019169060200190929190505050610742565b6040518082815260200191505060405180910390f35b34801561022857600080fd5b5061024b600480360381019080803560001916906020019092919050505061076a565b604051808273ffffffffffffffffffffffffffffffffffffffff1673ffffffffffffffffffffffffffffffffffffffff16815260200191505060405180910390f35b34801561029957600080fd5b506102fe6004803603810190808060800190600480602002604051908101604052809291908260046020028082843782019150505050509192919290803560ff16906020019092919080359060200190929190803590602001909291905050506107b2565b005b34801561030c57600080fd5b5061032f6004803603810190808035600019169060200190929190505050610ec9565b005b34801561033d57600080fd5b5061036060048036038101908080356000191690602001909291905050506113eb565b604051808215151515815260200191505060405180910390f35b34801561038657600080fd5b506103ef600480360381019080803573ffffffffffffffffffffffffffffffffffffffff169060200190929190803573ffffffffffffffffffffffffffffffffffffffff1690602001909291908035906020019092919080359060200190929190505050611462565b005b3480156103fd57600080fd5b506104586004803603810190808060800190600480602002604051908101604052809291908260046020028082843782019150505050509192919290803560ff1690602001909291908035906020019092919050505061197c565b604051808215151515815260200191505060405180910390f35b34801561047e57600080fd5b506104a16004803603810190808035600019169060200190929190505050611cc7565b604051808273ffffffffffffffffffffffffffffffffffffffff1673ffffffffffffffffffffffffffffffffffffffff16815260200191505060405180910390f35b3480156104ef57600080fd5b506105546004803603810190808060800190600480602002604051908101604052809291908260046020028082843782019150505050509192919290803560ff1690602001909291908035906020019092919080359060200190929190505050611d0f565b005b34801561056257600080fd5b506105856004803603810190808035600019169060200190929190505050612745565b604051808273ffffffffffffffffffffffffffffffffffffffff1673ffffffffffffffffffffffffffffffffffffffff16815260200191505060405180910390f35b6000806001600084600019166000191681526020019081526020016000206006015414156105f8576000905061068b565b426001600084600019166000191681526020019081526020016000206004015460016000856000191660001916815260200190815260200160002060060154011015610647576000905061068b565b426001600084600019166000191681526020019081526020016000206004015460016000856000191660001916815260200190815260200160002060060154010390505b919050565b6000806001600084600019166000191681526020019081526020016000206006015414159050919050565b6000600260008473ffffffffffffffffffffffffffffffffffffffff1673ffffffffffffffffffffffffffffffffffffffff16815260200190815260200160002060008373ffffffffffffffffffffffffffffffffffffffff1673ffffffffffffffffffffffffffffffffffffffff16815260200190815260200160002054905092915050565b6000600160008360001916600019168152602001908152602001600020600301549050919050565b600060016000836000191660001916815260200190815260200160002060020160009054906101000a900473ffffffffffffffffffffffffffffffffffffffff169050919050565b6107ba61278d565b600080600080600160008a60006004811015156107d357fe5b60200201516000191660001916815260200190815260200160002060030154141515156107ff57600080fd5b6001600089600060048110151561081257fe5b60200201516000191660001916815260200190815260200160002061010060405190810160405290816000820160009054906101000a900473ffffffffffffffffffffffffffffffffffffffff1673ffffffffffffffffffffffffffffffffffffffff1673ffffffffffffffffffffffffffffffffffffffff1681526020016001820160009054906101000a900473ffffffffffffffffffffffffffffffffffffffff1673ffffffffffffffffffffffffffffffffffffffff1673ffffffffffffffffffffffffffffffffffffffff1681526020016002820160009054906101000a900473ffffffffffffffffffffffffffffffffffffffff1673ffffffffffffffffffffffffffffffffffffffff1673ffffffffffffffffffffffffffffffffffffffff1681526020016003820154815260200160048201548152602001600582015481526020016006820154815260200160078201548152505093504284608001518560c001510111151561098857600080fd5b848460a0015110151561099a57600080fd5b836000015173ffffffffffffffffffffffffffffffffffffffff163373ffffffffffffffffffffffffffffffffffffffff161480610a075750836020015173ffffffffffffffffffffffffffffffffffffffff163373ffffffffffffffffffffffffffffffffffffffff16145b1515610a1257600080fd5b6001886001600481101515610a2357fe5b6020020151888a6002600481101515610a3857fe5b60200201518b6003600481101515610a4c57fe5b6020020151604051600081526020016040526040518085600019166000191681526020018460ff1660ff1681526020018360001916600019168152602001826000191660001916815260200194505050505060206040516020810390808403906000865af1158015610ac2573d6000803e3d6000fd5b505050602060405103519250836000015173ffffffffffffffffffffffffffffffffffffffff168373ffffffffffffffffffffffffffffffffffffffff16141515610b0c57600080fd5b876000600481101515610b1b57fe5b60200201518686604051808460001916600019168152602001838152602001828152602001935050505060405180910390209150876001600481101515610b5e57fe5b6020020151600019168260001916141515610b7857600080fd5b83606001518611151515610b8b57600080fd5b836040015190508073ffffffffffffffffffffffffffffffffffffffff1663a9059cbb8560200151886040518363ffffffff167c0100000000000000000000000000000000000000000000000000000000028152600401808373ffffffffffffffffffffffffffffffffffffffff1673ffffffffffffffffffffffffffffffffffffffff16815260200182815260200192505050602060405180830381600087803b158015610c3957600080fd5b505af1158015610c4d573d6000803e3d6000fd5b505050506040513d6020811015610c6357600080fd5b81019080805190602001909291905050501515610c7f57600080fd5b8073ffffffffffffffffffffffffffffffffffffffff1663a9059cbb8560000151888760600151036040518363ffffffff167c0100000000000000000000000000000000000000000000000000000000028152600401808373ffffffffffffffffffffffffffffffffffffffff1673ffffffffffffffffffffffffffffffffffffffff16815260200182815260200192505050602060405180830381600087803b158015610d2c57600080fd5b505af1158015610d40573d6000803e3d6000fd5b505050506040513d6020811015610d5657600080fd5b81019080805190602001909291905050501515610d7257600080fd5b858460e0018181525050848460a001818152505083600160008a6000600481101515610d9a57fe5b60200201516000191660001916815260200190815260200160002060008201518160000160006101000a81548173ffffffffffffffffffffffffffffffffffffffff021916908373ffffffffffffffffffffffffffffffffffffffff16021790555060208201518160010160006101000a81548173ffffffffffffffffffffffffffffffffffffffff021916908373ffffffffffffffffffffffffffffffffffffffff16021790555060408201518160020160006101000a81548173ffffffffffffffffffffffffffffffffffffffff021916908373ffffffffffffffffffffffffffffffffffffffff160217905550606082015181600301556080820151816004015560a0820151816005015560c0820151816006015560e082015181600701559050505050505050505050565b6000806001600084600019166000191681526020019081526020016000206003015414151515610ef857600080fd5b4260016000846000191660001916815260200190815260200160002060040154600160008560001916600019168152602001908152602001600020600601540111151515610f4557600080fd5b60016000836000191660001916815260200190815260200160002060020160009054906101000a900473ffffffffffffffffffffffffffffffffffffffff1690508073ffffffffffffffffffffffffffffffffffffffff1663a9059cbb60016000856000191660001916815260200190815260200160002060010160009054906101000a900473ffffffffffffffffffffffffffffffffffffffff16600160008660001916600019168152602001908152602001600020600701546040518363ffffffff167c0100000000000000000000000000000000000000000000000000000000028152600401808373ffffffffffffffffffffffffffffffffffffffff1673ffffffffffffffffffffffffffffffffffffffff16815260200182815260200192505050602060405180830381600087803b15801561108557600080fd5b505af1158015611099573d6000803e3d6000fd5b505050506040513d60208110156110af57600080fd5b810190808051906020019092919050505015156110cb57600080fd5b8073ffffffffffffffffffffffffffffffffffffffff1663a9059cbb60016000856000191660001916815260200190815260200160002060000160009054906101000a900473ffffffffffffffffffffffffffffffffffffffff166001600086600019166000191681526020019081526020016000206007015460016000876000191660001916815260200190815260200160002060030154036040518363ffffffff167c0100000000000000000000000000000000000000000000000000000000028152600401808373ffffffffffffffffffffffffffffffffffffffff1673ffffffffffffffffffffffffffffffffffffffff16815260200182815260200192505050602060405180830381600087803b1580156111ea57600080fd5b505af11580156111fe573d6000803e3d6000fd5b505050506040513d602081101561121457600080fd5b8101908080519060200190929190505050151561123057600080fd5b6002600060016000856000191660001916815260200190815260200160002060000160009054906101000a900473ffffffffffffffffffffffffffffffffffffffff1673ffffffffffffffffffffffffffffffffffffffff1673ffffffffffffffffffffffffffffffffffffffff168152602001908152602001600020600060016000856000191660001916815260200190815260200160002060010160009054906101000a900473ffffffffffffffffffffffffffffffffffffffff1673ffffffffffffffffffffffffffffffffffffffff1673ffffffffffffffffffffffffffffffffffffffff16815260200190815260200160002060009055600160008360001916600019168152602001908152602001600020600080820160006101000a81549073ffffffffffffffffffffffffffffffffffffffff02191690556001820160006101000a81549073ffffffffffffffffffffffffffffffffffffffff02191690556002820160006101000a81549073ffffffffffffffffffffffffffffffffffffffff02191690556003820160009055600482016000905560058201600090556006820160009055600782016000905550505050565b60008073ffffffffffffffffffffffffffffffffffffffff1660016000846000191660001916815260200190815260200160002060020160009054906101000a900473ffffffffffffffffffffffffffffffffffffffff1673ffffffffffffffffffffffffffffffffffffffff1614159050919050565b600061146c61278d565b600080851415151561147d57600080fd5b3373ffffffffffffffffffffffffffffffffffffffff168673ffffffffffffffffffffffffffffffffffffffff16141515156114b857600080fd5b600060010260001916600260003373ffffffffffffffffffffffffffffffffffffffff1673ffffffffffffffffffffffffffffffffffffffff16815260200190815260200160002060008873ffffffffffffffffffffffffffffffffffffffff1673ffffffffffffffffffffffffffffffffffffffff168152602001908152602001600020546000191614151561154e57600080fd5b338642604051808473ffffffffffffffffffffffffffffffffffffffff1673ffffffffffffffffffffffffffffffffffffffff166c010000000000000000000000000281526014018373ffffffffffffffffffffffffffffffffffffffff1673ffffffffffffffffffffffffffffffffffffffff166c010000000000000000000000000281526014018281526020019350505050604051809103902092508482606001818152505033826000019073ffffffffffffffffffffffffffffffffffffffff16908173ffffffffffffffffffffffffffffffffffffffff168152505085826020019073ffffffffffffffffffffffffffffffffffffffff16908173ffffffffffffffffffffffffffffffffffffffff168152505086826040019073ffffffffffffffffffffffffffffffffffffffff16908173ffffffffffffffffffffffffffffffffffffffff1681525050838260800181815250508690508073ffffffffffffffffffffffffffffffffffffffff166323b872dd3330886040518463ffffffff167c0100000000000000000000000000000000000000000000000000000000028152600401808473ffffffffffffffffffffffffffffffffffffffff1673ffffffffffffffffffffffffffffffffffffffff1681526020018373ffffffffffffffffffffffffffffffffffffffff1673ffffffffffffffffffffffffffffffffffffffff1681526020018281526020019350505050602060405180830381600087803b15801561178257600080fd5b505af1158015611796573d6000803e3d6000fd5b505050506040513d60208110156117ac57600080fd5b810190808051906020019092919050505015156117c857600080fd5b8160016000856000191660001916815260200190815260200160002060008201518160000160006101000a81548173ffffffffffffffffffffffffffffffffffffffff021916908373ffffffffffffffffffffffffffffffffffffffff16021790555060208201518160010160006101000a81548173ffffffffffffffffffffffffffffffffffffffff021916908373ffffffffffffffffffffffffffffffffffffffff16021790555060408201518160020160006101000a81548173ffffffffffffffffffffffffffffffffffffffff021916908373ffffffffffffffffffffffffffffffffffffffff160217905550606082015181600301556080820151816004015560a0820151816005015560c0820151816006015560e0820151816007015590505082600260003373ffffffffffffffffffffffffffffffffffffffff1673ffffffffffffffffffffffffffffffffffffffff16815260200190815260200160002060008873ffffffffffffffffffffffffffffffffffffffff1673ffffffffffffffffffffffffffffffffffffffff168152602001908152602001600020816000191690555050505050505050565b600061198661278d565b60008060006001600089600060048110151561199e57fe5b6020020151600019166000191681526020019081526020016000206003015414156119cc5760009350611cbd565b600160008860006004811015156119df57fe5b60200201516000191660001916815260200190815260200160002061010060405190810160405290816000820160009054906101000a900473ffffffffffffffffffffffffffffffffffffffff1673ffffffffffffffffffffffffffffffffffffffff1673ffffffffffffffffffffffffffffffffffffffff1681526020016001820160009054906101000a900473ffffffffffffffffffffffffffffffffffffffff1673ffffffffffffffffffffffffffffffffffffffff1673ffffffffffffffffffffffffffffffffffffffff1681526020016002820160009054906101000a900473ffffffffffffffffffffffffffffffffffffffff1673ffffffffffffffffffffffffffffffffffffffff1673ffffffffffffffffffffffffffffffffffffffff1681526020016003820154815260200160048201548152602001600582015481526020016006820154815260200160078201548152505092506001876001600481101515611b4e57fe5b602002015187896002600481101515611b6357fe5b60200201518a6003600481101515611b7757fe5b6020020151604051600081526020016040526040518085600019166000191681526020018460ff1660ff1681526020018360001916600019168152602001826000191660001916815260200194505050505060206040516020810390808403906000865af1158015611bed573d6000803e3d6000fd5b505050602060405103519150826000015173ffffffffffffffffffffffffffffffffffffffff168273ffffffffffffffffffffffffffffffffffffffff16141515611c3b5760009350611cbd565b866000600481101515611c4a57fe5b6020020151856040518083600019166000191681526020018281526020019250505060405180910390209050866001600481101515611c8557fe5b6020020151600019168160001916141515611ca35760009350611cbd565b8260600151851115611cb85760009350611cbd565b600193505b5050509392505050565b600060016000836000191660001916815260200190815260200160002060000160009054906101000a900473ffffffffffffffffffffffffffffffffffffffff169050919050565b611d1761278d565b600080600080600160008a6000600481101515611d3057fe5b6020020151600019166000191681526020019081526020016000206003015414151515611d5c57600080fd5b60016000896000600481101515611d6f57fe5b60200201516000191660001916815260200190815260200160002061010060405190810160405290816000820160009054906101000a900473ffffffffffffffffffffffffffffffffffffffff1673ffffffffffffffffffffffffffffffffffffffff1673ffffffffffffffffffffffffffffffffffffffff1681526020016001820160009054906101000a900473ffffffffffffffffffffffffffffffffffffffff1673ffffffffffffffffffffffffffffffffffffffff1673ffffffffffffffffffffffffffffffffffffffff1681526020016002820160009054906101000a900473ffffffffffffffffffffffffffffffffffffffff1673ffffffffffffffffffffffffffffffffffffffff1673ffffffffffffffffffffffffffffffffffffffff168152602001600382015481526020016004820154815260200160058201548152602001600682015481526020016007820154815250509350836020015173ffffffffffffffffffffffffffffffffffffffff163373ffffffffffffffffffffffffffffffffffffffff16141515611f0b57600080fd5b6001886001600481101515611f1c57fe5b6020020151888a6002600481101515611f3157fe5b60200201518b6003600481101515611f4557fe5b6020020151604051600081526020016040526040518085600019166000191681526020018460ff1660ff1681526020018360001916600019168152602001826000191660001916815260200194505050505060206040516020810390808403906000865af1158015611fbb573d6000803e3d6000fd5b505050602060405103519250836000015173ffffffffffffffffffffffffffffffffffffffff168373ffffffffffffffffffffffffffffffffffffffff1614151561200557600080fd5b87600060048110151561201457fe5b6020020151868660405180846000191660001916815260200183815260200182815260200193505050506040518091039020915087600160048110151561205757fe5b602002015160001916826000191614151561207157600080fd5b8360600151861115151561208457600080fd5b6000846080015114156125e357600160008960006004811015156120a457fe5b60200201516000191660001916815260200190815260200160002060020160009054906101000a900473ffffffffffffffffffffffffffffffffffffffff1690508073ffffffffffffffffffffffffffffffffffffffff1663a9059cbb600160008b600060048110151561211457fe5b60200201516000191660001916815260200190815260200160002060010160009054906101000a900473ffffffffffffffffffffffffffffffffffffffff16600160008c600060048110151561216657fe5b602002015160001916600019168152602001908152602001600020600701546040518363ffffffff167c0100000000000000000000000000000000000000000000000000000000028152600401808373ffffffffffffffffffffffffffffffffffffffff1673ffffffffffffffffffffffffffffffffffffffff16815260200182815260200192505050602060405180830381600087803b15801561220a57600080fd5b505af115801561221e573d6000803e3d6000fd5b505050506040513d602081101561223457600080fd5b8101908080519060200190929190505050151561225057600080fd5b8073ffffffffffffffffffffffffffffffffffffffff1663a9059cbb600160008b600060048110151561227f57fe5b60200201516000191660001916815260200190815260200160002060000160009054906101000a900473ffffffffffffffffffffffffffffffffffffffff16600160008c60006004811015156122d157fe5b60200201516000191660001916815260200190815260200160002060070154600160008d600060048110151561230357fe5b60200201516000191660001916815260200190815260200160002060030154036040518363ffffffff167c0100000000000000000000000000000000000000000000000000000000028152600401808373ffffffffffffffffffffffffffffffffffffffff1673ffffffffffffffffffffffffffffffffffffffff16815260200182815260200192505050602060405180830381600087803b1580156123a857600080fd5b505af11580156123bc573d6000803e3d6000fd5b505050506040513d60208110156123d257600080fd5b810190808051906020019092919050505015156123ee57600080fd5b60026000600160008b600060048110151561240557fe5b60200201516000191660001916815260200190815260200160002060000160009054906101000a900473ffffffffffffffffffffffffffffffffffffffff1673ffffffffffffffffffffffffffffffffffffffff1673ffffffffffffffffffffffffffffffffffffffff1681526020019081526020016000206000600160008b600060048110151561249357fe5b60200201516000191660001916815260200190815260200160002060010160009054906101000a900473ffffffffffffffffffffffffffffffffffffffff1673ffffffffffffffffffffffffffffffffffffffff1673ffffffffffffffffffffffffffffffffffffffff168152602001908152602001600020600090556001600089600060048110151561252357fe5b602002015160001916600019168152602001908152602001600020600080820160006101000a81549073ffffffffffffffffffffffffffffffffffffffff02191690556001820160006101000a81549073ffffffffffffffffffffffffffffffffffffffff02191690556002820160006101000a81549073ffffffffffffffffffffffffffffffffffffffff021916905560038201600090556004820160009055600582016000905560068201600090556007820160009055505061273b565b848460a0018181525050858460e0018181525050428460c001818152505083600160008a600060048110151561261557fe5b60200201516000191660001916815260200190815260200160002060008201518160000160006101000a81548173ffffffffffffffffffffffffffffffffffffffff021916908373ffffffffffffffffffffffffffffffffffffffff16021790555060208201518160010160006101000a81548173ffffffffffffffffffffffffffffffffffffffff021916908373ffffffffffffffffffffffffffffffffffffffff16021790555060408201518160020160006101000a81548173ffffffffffffffffffffffffffffffffffffffff021916908373ffffffffffffffffffffffffffffffffffffffff160217905550606082015181600301556080820151816004015560a0820151816005015560c0820151816006015560e082015181600701559050505b5050505050505050565b600060016000836000191660001916815260200190815260200160002060010160009054906101000a900473ffffffffffffffffffffffffffffffffffffffff169050919050565b61010060405190810160405280600073ffffffffffffffffffffffffffffffffffffffff168152602001600073ffffffffffffffffffffffffffffffffffffffff168152602001600073ffffffffffffffffffffffffffffffffffffffff168152602001600081526020016000815260200160008152602001600081526020016000815250905600a165627a7a723058205ccb102767e6b7e05364b6218df667a38800adde8a87bac896353792bcb85f1a0029",
  "source": "// Credit: https://github.com/alex-miller-0/eth-dev-101/blob/master/truffle/contracts/TokenChannelsV2.sol\n/**\n * Version two of the TokenChannels contract\n * Adds nonces to the messages as well as the notion of a challenge period.\n * Either party may challenge the closing channel if they have a message with\n * a higher nonce than the one currently recorded in the channel.\n */\npragma solidity ^0.4.21;\nimport \"./ERC20.sol\";\n\ncontract TokenChannels {\n\n  //============================================================================\n  // GLOBAL VARIABLES\n  //============================================================================\n\n  // Only one channel may be open for any two participants at any one time\n  struct Channel {\n    address sender;\n    address recipient;\n    address token;\n    uint deposit;\n    uint challenge;\n    uint nonce;\n    uint closeTime;\n    uint value;\n  }\n  mapping (address => uint) balances;\n\n  mapping (bytes32 => Channel) channels;\n  mapping (address => mapping(address => bytes32)) active_ids;\n\n\n  //============================================================================\n  // STATE TRANSITION FUNCTIONS\n  //============================================================================\n\n  /**\n   * Open a channel with a recipient. A non-zero message value must be included.\n   *\n   * address token    Address of token contract\n   * address to       Address of recipient\n   * uint amount      Number of token quanta to send\n   */\n  function OpenChannel(address token, address to, uint amount, uint challenge) public {\n    // Sanity checks\n    require(amount != 0);\n    require(to != msg.sender);\n    require(active_ids[msg.sender][to] == bytes32(0));\n\n    // Create a channel\n    bytes32 id = keccak256(msg.sender, to, now);\n\n    // Initialize the channel\n    Channel memory _channel;\n    _channel.deposit = amount;\n    _channel.sender = msg.sender;\n    _channel.recipient = to;\n    _channel.token = token;\n    _channel.challenge = challenge;\n\n    // Make the deposit\n    ERC20 t = ERC20(token);\n    require(t.transferFrom(msg.sender, address(this), amount));\n\n    channels[id] = _channel;\n\n    // Add it to the lookup table\n    active_ids[msg.sender][to] = id;\n  }\n\n\n  /**\n   * Close a channel at any time. May only be called by recipient.\n   * The \"value\" is sent to the recipient and the remainder is refunded to the sender.\n   *\n   * bytes32  h         [ id, msg_hash, r, s ]\n   * uint8    v         Component of signature of \"h\" coming from sender\n   * uint     value     Amount of wei sent\n   * uint     nonce     Number to be hashed with the value to form the message\n   */\n  function CloseChannel(bytes32[4] h, uint8 v, uint256 value, uint256 nonce) public {\n    // h[0]    Channel id\n    // h[1]    Hash of (id, value)\n    // h[2]    r of signature\n    // h[3]    s of signature\n\n    // Grab the channel in question\n    require(channels[h[0]].deposit != 0);\n    Channel memory _channel;\n    _channel = channels[h[0]];\n\n    // Only the recipient can close a channel\n    require(msg.sender == _channel.recipient);\n\n    address signer = ecrecover(h[1], v, h[2], h[3]);\n    require(signer == _channel.sender);\n\n    // Make sure the hash provided is of the channel id and the amount sent\n    bytes32 proof = keccak256(h[0], value, nonce);\n\n    // Ensure the proof matches, send the value, send the remainder, and delete the channel\n    require(proof == h[1]);\n    require(value <= _channel.deposit);\n\n    if (_channel.challenge == 0) {\n      // If there's no challenge period, close out the channel immediately.\n\n      // Pay recipient and refund sender the remainder\n      ERC20 t = ERC20(channels[h[0]].token);\n      require(t.transfer(channels[h[0]].recipient, channels[h[0]].value));\n      require(t.transfer(channels[h[0]].sender, channels[h[0]].deposit-channels[h[0]].value));\n\n      // Delete the channel\n      delete active_ids[channels[h[0]].sender][channels[h[0]].recipient];\n      delete channels[h[0]];\n    } else {\n      // Copy the data to the state and allow challenges\n\n      _channel.nonce = nonce;\n      _channel.value = value;\n      _channel.closeTime = now;\n      channels[h[0]] = _channel;\n    }\n  }\n\n\n  /**\n   * During the challenge period, either party may submit a proof that contains\n   * a higher nonce.\n   *\n   * bytes32  h         [ id, msg_hash, r, s ]\n   * uint8    v         Component of signature of \"h\" coming from sender\n   * uint     value     Amount of wei sent\n   * uint     nonce     Number to be hashed with the value to form the message\n   */\n  function Challenge(bytes32[4] h, uint8 v, uint256 value, uint256 nonce) public {\n    // Grab the channel in question\n    require(channels[h[0]].deposit != 0);\n    Channel memory _channel;\n    _channel = channels[h[0]];\n\n    // Make sure we're still in the challenge period\n    require(_channel.closeTime + _channel.challenge > now);\n\n    // Make sure the nonce is higher\n    require(_channel.nonce < nonce);\n\n    require(msg.sender == _channel.sender || msg.sender == _channel.recipient);\n\n    address signer = ecrecover(h[1], v, h[2], h[3]);\n    require(signer == _channel.sender);\n\n    // Make sure the hash provided is of the channel id and the amount sent\n    bytes32 proof = keccak256(h[0], value, nonce);\n\n    // Ensure the proof matches, send the value, send the remainder, and delete the channel\n    require(proof == h[1]);\n    require(value <= _channel.deposit);\n\n    // Pay recipient and refund sender the remainder\n    ERC20 t = ERC20(_channel.token);\n    require(t.transfer(_channel.recipient, value));\n    require(t.transfer(_channel.sender, _channel.deposit-value));\n\n    // Copy data to the state\n    _channel.value = value;\n    _channel.nonce = nonce;\n    channels[h[0]] = _channel;\n  }\n\n\n  /**\n   * Once past its challenge period, close a channel and disperse the funds.\n   * Anyone can do this.\n   *\n   * bytes32  id    Channel id\n   */\n  function Finalize(bytes32 id) public {\n    // Grab the channel in question\n    require(channels[id].deposit != 0);\n\n    // Make sure we're past the challenge period\n    require(channels[id].closeTime + channels[id].challenge <= now);\n\n    // Pay recipient and refund sender the remainder\n    ERC20 t = ERC20(channels[id].token);\n    require(t.transfer(channels[id].recipient, channels[id].value));\n    require(t.transfer(channels[id].sender, channels[id].deposit-channels[id].value));\n\n    // Delete the channel\n    delete active_ids[channels[id].sender][channels[id].recipient];\n    delete channels[id];\n  }\n\n\n\n  //============================================================================\n  // CONSTANT FUNCTIONS\n  //============================================================================\n\n  /**\n  * Verify that a message sent will allow the channel to close.\n  * Parameters are the same as for CloseChannel\n   */\n  function VerifyMsg(bytes32[4] h, uint8 v, uint256 value) public constant returns (bool) {\n    // h[0]    Channel id\n    // h[1]    Hash of (id, value)\n    // h[2]    r of signature\n    // h[3]    s of signature\n\n    // Grab the channel in question\n    if (channels[h[0]].deposit == 0) { return false; }\n    Channel memory _channel;\n    _channel = channels[h[0]];\n\n    // https://ethereum.stackexchange.com/a/15911/1391\n    // TODO put this logic into JS\n    address signer = ecrecover(h[1], v, h[2], h[3]);\n    if (signer != _channel.sender) { return false; }\n\n    // Make sure the hash provided is of the channel id and the amount sent\n    bytes32 proof = keccak256(h[0], value);\n    // Ensure the proof matches, send the value, send the remainder, and delete the channel\n    if (proof != h[1]) { return false; }\n    else if (value > _channel.deposit) { return false; }\n\n    return true;\n  }\n\n  // GETTERS\n\n  function GetChannelId(address from, address to) public constant returns (bytes32) {\n    return active_ids[from][to];\n  }\n\n  function GetDeposit(bytes32 id) public constant returns (uint) {\n    return channels[id].deposit;\n  }\n\n  function GetSender(bytes32 id) public constant returns (address) {\n    return channels[id].sender;\n  }\n\n  function GetRecipient(bytes32 id) public constant returns (address) {\n    return channels[id].recipient;\n  }\n\n  function GetToken(bytes32 id) public constant returns (address) {\n    return channels[id].token;\n  }\n\n  // Returns true if this is an active channel\n  function DoesChannelExist(bytes32 id) public constant returns (bool) {\n    return channels[id].token != address(0);\n  }\n  // Returns true if the channel is closed (or if the channel doesn't exist)\n  function IsChannelClosed(bytes32 id) public constant returns (bool) {\n    return channels[id].closeTime != 0;\n  }\n\n  // This will return 0 unless the channel is currently in the challenge period\n  function ChallengeRemaining(bytes32 id) public constant returns (uint) {\n    if (channels[id].closeTime == 0) { return 0; }\n    else if (channels[id].closeTime + channels[id].challenge < now) { return 0; }\n    else { return (channels[id].closeTime + channels[id].challenge) - now; }\n  }\n\n}\n",
  "sourcePath": "/Users/allanjiang/Developer/dapps/cs359b-web-workflow-marketplace/contracts/TokenChannels.sol",
  "compiler": {
    "name": "solc",
    "version": "0.4.23+commit.124ca40d.Emscripten.clang"
  },
  "schemaVersion": "2.0.0",
  "updatedAt": "2018-06-06T06:35:04.162Z"
}