{
  "contractName": "WorkflowMarket",
  "abi": [
    {
      "constant": true,
      "inputs": [
        {
          "name": "",
          "type": "uint256"
        }
      ],
      "name": "existingWorkflowIds",
      "outputs": [
        {
          "name": "",
          "type": "bool"
        }
      ],
      "payable": false,
      "stateMutability": "view",
      "type": "function"
    },
    {
      "constant": true,
      "inputs": [],
      "name": "name",
      "outputs": [
        {
          "name": "",
          "type": "string"
        }
      ],
      "payable": false,
      "stateMutability": "view",
      "type": "function"
    },
    {
      "constant": false,
      "inputs": [
        {
          "name": "_spender",
          "type": "address"
        },
        {
          "name": "_value",
          "type": "uint256"
        }
      ],
      "name": "approve",
      "outputs": [
        {
          "name": "success",
          "type": "bool"
        }
      ],
      "payable": false,
      "stateMutability": "nonpayable",
      "type": "function"
    },
    {
      "constant": true,
      "inputs": [],
      "name": "totalSupply",
      "outputs": [
        {
          "name": "",
          "type": "uint256"
        }
      ],
      "payable": false,
      "stateMutability": "view",
      "type": "function"
    },
    {
      "constant": false,
      "inputs": [
        {
          "name": "_from",
          "type": "address"
        },
        {
          "name": "_to",
          "type": "address"
        },
        {
          "name": "_value",
          "type": "uint256"
        }
      ],
      "name": "transferFrom",
      "outputs": [
        {
          "name": "success",
          "type": "bool"
        }
      ],
      "payable": false,
      "stateMutability": "nonpayable",
      "type": "function"
    },
    {
      "constant": true,
      "inputs": [
        {
          "name": "",
          "type": "address"
        }
      ],
      "name": "balances",
      "outputs": [
        {
          "name": "",
          "type": "uint256"
        }
      ],
      "payable": false,
      "stateMutability": "view",
      "type": "function"
    },
    {
      "constant": true,
      "inputs": [
        {
          "name": "_potId",
          "type": "uint256"
        }
      ],
      "name": "seePotDetails",
      "outputs": [
        {
          "name": "",
          "type": "uint256"
        },
        {
          "name": "",
          "type": "uint256"
        },
        {
          "name": "",
          "type": "uint256"
        },
        {
          "name": "",
          "type": "uint256"
        },
        {
          "name": "",
          "type": "uint256"
        },
        {
          "name": "",
          "type": "uint8"
        }
      ],
      "payable": false,
      "stateMutability": "view",
      "type": "function"
    },
    {
      "constant": true,
      "inputs": [],
      "name": "decimals",
      "outputs": [
        {
          "name": "",
          "type": "uint8"
        }
      ],
      "payable": false,
      "stateMutability": "view",
      "type": "function"
    },
    {
      "constant": true,
      "inputs": [],
      "name": "_totalSupply",
      "outputs": [
        {
          "name": "",
          "type": "uint256"
        }
      ],
      "payable": false,
      "stateMutability": "view",
      "type": "function"
    },
    {
      "constant": false,
      "inputs": [
        {
          "name": "_workflowId",
          "type": "uint256"
        },
        {
          "name": "_stars",
          "type": "uint8"
        },
        {
          "name": "_review",
          "type": "string"
        }
      ],
      "name": "rateWorkflow",
      "outputs": [],
      "payable": false,
      "stateMutability": "nonpayable",
      "type": "function"
    },
    {
      "constant": false,
      "inputs": [
        {
          "name": "_potId",
          "type": "uint256"
        },
        {
          "name": "_betFor",
          "type": "uint256"
        },
        {
          "name": "_betAgainst",
          "type": "uint256"
        }
      ],
      "name": "sendBet",
      "outputs": [
        {
          "name": "success",
          "type": "bool"
        }
      ],
      "payable": false,
      "stateMutability": "nonpayable",
      "type": "function"
    },
    {
      "constant": true,
      "inputs": [
        {
          "name": "_owner",
          "type": "address"
        }
      ],
      "name": "workflowBalanceOf",
      "outputs": [
        {
          "name": "",
          "type": "uint256"
        }
      ],
      "payable": false,
      "stateMutability": "view",
      "type": "function"
    },
    {
      "constant": true,
      "inputs": [
        {
          "name": "",
          "type": "uint256"
        }
      ],
      "name": "potIds",
      "outputs": [
        {
          "name": "",
          "type": "uint256"
        }
      ],
      "payable": false,
      "stateMutability": "view",
      "type": "function"
    },
    {
      "constant": true,
      "inputs": [
        {
          "name": "",
          "type": "uint256"
        }
      ],
      "name": "existingPotIds",
      "outputs": [
        {
          "name": "",
          "type": "bool"
        }
      ],
      "payable": false,
      "stateMutability": "view",
      "type": "function"
    },
    {
      "constant": true,
      "inputs": [
        {
          "name": "",
          "type": "uint256"
        }
      ],
      "name": "workflowOwner",
      "outputs": [
        {
          "name": "",
          "type": "address"
        }
      ],
      "payable": false,
      "stateMutability": "view",
      "type": "function"
    },
    {
      "constant": true,
      "inputs": [
        {
          "name": "_who",
          "type": "address"
        }
      ],
      "name": "balanceOf",
      "outputs": [
        {
          "name": "",
          "type": "uint256"
        }
      ],
      "payable": false,
      "stateMutability": "view",
      "type": "function"
    },
    {
      "constant": true,
      "inputs": [],
      "name": "totalPots",
      "outputs": [
        {
          "name": "",
          "type": "uint256"
        }
      ],
      "payable": false,
      "stateMutability": "view",
      "type": "function"
    },
    {
      "constant": true,
      "inputs": [],
      "name": "symbol",
      "outputs": [
        {
          "name": "",
          "type": "string"
        }
      ],
      "payable": false,
      "stateMutability": "view",
      "type": "function"
    },
    {
      "constant": true,
      "inputs": [
        {
          "name": "",
          "type": "uint256"
        }
      ],
      "name": "workflows",
      "outputs": [
        {
          "name": "name",
          "type": "string"
        },
        {
          "name": "author",
          "type": "address"
        },
        {
          "name": "tag",
          "type": "string"
        },
        {
          "name": "price",
          "type": "uint256"
        },
        {
          "name": "totalStars",
          "type": "uint256"
        },
        {
          "name": "totalRatings",
          "type": "uint256"
        },
        {
          "name": "numOneStars",
          "type": "uint256"
        },
        {
          "name": "numTwoStars",
          "type": "uint256"
        },
        {
          "name": "numThreeStars",
          "type": "uint256"
        },
        {
          "name": "numFourStars",
          "type": "uint256"
        },
        {
          "name": "numFiveStars",
          "type": "uint256"
        }
      ],
      "payable": false,
      "stateMutability": "view",
      "type": "function"
    },
    {
      "constant": true,
      "inputs": [],
      "name": "totalWorkflows",
      "outputs": [
        {
          "name": "",
          "type": "uint256"
        }
      ],
      "payable": false,
      "stateMutability": "view",
      "type": "function"
    },
    {
      "constant": true,
      "inputs": [
        {
          "name": "_workflowId",
          "type": "uint256"
        }
      ],
      "name": "ownerOfWorkflow",
      "outputs": [
        {
          "name": "",
          "type": "address"
        }
      ],
      "payable": false,
      "stateMutability": "view",
      "type": "function"
    },
    {
      "constant": true,
      "inputs": [
        {
          "name": "_owner",
          "type": "address"
        }
      ],
      "name": "getAllWorkflows",
      "outputs": [
        {
          "name": "",
          "type": "uint256[]"
        }
      ],
      "payable": false,
      "stateMutability": "view",
      "type": "function"
    },
    {
      "constant": false,
      "inputs": [
        {
          "name": "_to",
          "type": "address"
        },
        {
          "name": "_value",
          "type": "uint256"
        }
      ],
      "name": "transfer",
      "outputs": [
        {
          "name": "success",
          "type": "bool"
        }
      ],
      "payable": false,
      "stateMutability": "nonpayable",
      "type": "function"
    },
    {
      "constant": true,
      "inputs": [
        {
          "name": "",
          "type": "address"
        },
        {
          "name": "",
          "type": "uint256"
        }
      ],
      "name": "ownedWorkflows",
      "outputs": [
        {
          "name": "",
          "type": "uint256"
        }
      ],
      "payable": false,
      "stateMutability": "view",
      "type": "function"
    },
    {
      "constant": true,
      "inputs": [
        {
          "name": "",
          "type": "uint256"
        }
      ],
      "name": "pots",
      "outputs": [
        {
          "name": "",
          "type": "address"
        }
      ],
      "payable": false,
      "stateMutability": "view",
      "type": "function"
    },
    {
      "constant": false,
      "inputs": [
        {
          "name": "_name",
          "type": "string"
        },
        {
          "name": "_tag",
          "type": "string"
        },
        {
          "name": "_price",
          "type": "uint256"
        }
      ],
      "name": "createWorkflow",
      "outputs": [],
      "payable": false,
      "stateMutability": "nonpayable",
      "type": "function"
    },
    {
      "constant": true,
      "inputs": [],
      "name": "totalWorkflowSupply",
      "outputs": [
        {
          "name": "",
          "type": "uint256"
        }
      ],
      "payable": false,
      "stateMutability": "view",
      "type": "function"
    },
    {
      "constant": true,
      "inputs": [
        {
          "name": "_owner",
          "type": "address"
        },
        {
          "name": "_spender",
          "type": "address"
        }
      ],
      "name": "allowance",
      "outputs": [
        {
          "name": "remaining",
          "type": "uint256"
        }
      ],
      "payable": false,
      "stateMutability": "view",
      "type": "function"
    },
    {
      "constant": true,
      "inputs": [
        {
          "name": "_workflowId",
          "type": "uint256"
        }
      ],
      "name": "seeWorkflowDetails",
      "outputs": [
        {
          "name": "",
          "type": "string"
        },
        {
          "name": "",
          "type": "uint256"
        },
        {
          "name": "",
          "type": "address"
        },
        {
          "name": "",
          "type": "string"
        },
        {
          "name": "",
          "type": "uint256"
        },
        {
          "name": "",
          "type": "uint256"
        },
        {
          "name": "",
          "type": "uint256"
        }
      ],
      "payable": false,
      "stateMutability": "view",
      "type": "function"
    },
    {
      "constant": true,
      "inputs": [],
      "name": "getAllPotsOnMarket",
      "outputs": [
        {
          "name": "",
          "type": "uint256[]"
        }
      ],
      "payable": false,
      "stateMutability": "view",
      "type": "function"
    },
    {
      "constant": false,
      "inputs": [
        {
          "name": "_workflowId",
          "type": "uint256"
        },
        {
          "name": "_potSize",
          "type": "uint256"
        },
        {
          "name": "_starsStake",
          "type": "uint256"
        }
      ],
      "name": "createPot",
      "outputs": [
        {
          "name": "success",
          "type": "bool"
        }
      ],
      "payable": false,
      "stateMutability": "nonpayable",
      "type": "function"
    },
    {
      "constant": true,
      "inputs": [
        {
          "name": "",
          "type": "uint256"
        }
      ],
      "name": "potAddresses",
      "outputs": [
        {
          "name": "",
          "type": "address"
        }
      ],
      "payable": false,
      "stateMutability": "view",
      "type": "function"
    },
    {
      "inputs": [],
      "payable": false,
      "stateMutability": "nonpayable",
      "type": "constructor"
    },
    {
      "anonymous": false,
      "inputs": [
        {
          "indexed": true,
          "name": "_address",
          "type": "address"
        },
        {
          "indexed": false,
          "name": "_thumbsup",
          "type": "uint256"
        }
      ],
      "name": "RatingChanged",
      "type": "event"
    },
    {
      "anonymous": false,
      "inputs": [
        {
          "indexed": true,
          "name": "_address",
          "type": "address"
        },
        {
          "indexed": false,
          "name": "_workflowID",
          "type": "uint256"
        },
        {
          "indexed": false,
          "name": "_potSize",
          "type": "uint256"
        }
      ],
      "name": "PotCreated",
      "type": "event"
    },
    {
      "anonymous": false,
      "inputs": [
        {
          "indexed": true,
          "name": "_address",
          "type": "address"
        },
        {
          "indexed": false,
          "name": "_balance",
          "type": "uint256"
        }
      ],
      "name": "BalanceChanged",
      "type": "event"
    },
    {
      "anonymous": false,
      "inputs": [
        {
          "indexed": true,
          "name": "_from",
          "type": "address"
        },
        {
          "indexed": true,
          "name": "_to",
          "type": "address"
        },
        {
          "indexed": false,
          "name": "_value",
          "type": "uint256"
        }
      ],
      "name": "Transfer",
      "type": "event"
    },
    {
      "anonymous": false,
      "inputs": [
        {
          "indexed": true,
          "name": "_owner",
          "type": "address"
        },
        {
          "indexed": true,
          "name": "_spender",
          "type": "address"
        },
        {
          "indexed": false,
          "name": "_value",
          "type": "uint256"
        }
      ],
      "name": "Approval",
      "type": "event"
    },
    {
      "anonymous": false,
      "inputs": [
        {
          "indexed": true,
          "name": "_from",
          "type": "address"
        },
        {
          "indexed": true,
          "name": "_to",
          "type": "address"
        },
        {
          "indexed": false,
          "name": "_tokenId",
          "type": "uint256"
        }
      ],
      "name": "WorkflowTransfer",
      "type": "event"
    },
    {
      "anonymous": false,
      "inputs": [
        {
          "indexed": true,
          "name": "_owner",
          "type": "address"
        },
        {
          "indexed": true,
          "name": "_approved",
          "type": "address"
        },
        {
          "indexed": false,
          "name": "_tokenId",
          "type": "uint256"
        }
      ],
      "name": "WorkflowApproval",
      "type": "event"
    },
    {
      "anonymous": false,
      "inputs": [
        {
          "indexed": true,
          "name": "_owner",
          "type": "address"
        },
        {
          "indexed": true,
          "name": "_operator",
          "type": "address"
        },
        {
          "indexed": false,
          "name": "_approved",
          "type": "bool"
        }
      ],
      "name": "WorkflowApprovalForAll",
      "type": "event"
    },
    {
      "anonymous": false,
      "inputs": [
        {
          "indexed": false,
          "name": "_tokenId",
          "type": "uint256"
        },
        {
          "indexed": false,
          "name": "_owner",
          "type": "address"
        }
      ],
      "name": "WorkflowCreated",
      "type": "event"
    },
    {
      "anonymous": false,
      "inputs": [
        {
          "indexed": false,
          "name": "_tokenId",
          "type": "uint256"
        },
        {
          "indexed": false,
          "name": "_stars",
          "type": "uint256"
        }
      ],
      "name": "WorkflowRated",
      "type": "event"
    },
    {
      "constant": false,
      "inputs": [
        {
          "name": "_amount",
          "type": "uint256"
        }
      ],
      "name": "mint",
      "outputs": [
        {
          "name": "success",
          "type": "bool"
        }
      ],
      "payable": false,
      "stateMutability": "nonpayable",
      "type": "function"
    }
  ],
  "bytecode": "0x60806040526040805190810160405280601281526020017f4175746f6d6174656420576f726b666c6f7700000000000000000000000000008152506006908051906020019062000051929190620001de565b506040805190810160405280600881526020017f576f726b666c6f77000000000000000000000000000000000000000000000000815250600790805190602001906200009f929190620001de565b506040805190810160405280600381526020017f574654000000000000000000000000000000000000000000000000000000000081525060099080519060200190620000ed929190620001de565b506040805190810160405280600d81526020017f576f726b666c6f77546f6b656e00000000000000000000000000000000000000815250600a90805190602001906200013b929190620001de565b5062200b20600b553480156200015057600080fd5b50600b54600c60003373ffffffffffffffffffffffffffffffffffffffff1673ffffffffffffffffffffffffffffffffffffffff1681526020019081526020016000208190555033601360006101000a81548173ffffffffffffffffffffffffffffffffffffffff021916908373ffffffffffffffffffffffffffffffffffffffff1602179055506200028d565b828054600181600116156101000203166002900490600052602060002090601f016020900481019282601f106200022157805160ff191683800117855562000252565b8280016001018555821562000252579182015b828111156200025157825182559160200191906001019062000234565b5b50905062000261919062000265565b5090565b6200028a91905b80821115620002865760008160009055506001016200026c565b5090565b90565b614b89806200029d6000396000f300608060405260043610620001c3576000357c0100000000000000000000000000000000000000000000000000000000900463ffffffff16806303ff390014620001c857806306fdde031462000210578063095ea7b314620002a657806318160ddd146200030e57806323b872dd146200033c57806327e235e314620003c45780632b76d21d146200041e578063313ce567146200048b5780633eaaf86b14620004bf57806349f8172414620004ed5780634d0b826314620005705780635b58a53414620005cc5780635c4e3d5d1462000626578063614b5097146200066a5780636f17a94e14620006b257806370a0823114620007225780638fef278e146200077c57806395d89b4114620007aa57806396a7bfcf1462000840578063972953b614620009c65780639f29487314620009f4578063a0712d681462000a64578063a823d0a91462000aac578063a9059cbb1462000b49578063aac99e3b1462000bb1578063c3c3df4f1462000c15578063cdeef3821462000c85578063d673a6e61462000d41578063dd62ed3e1462000d6f578063e61a357f1462000de9578063eae1d2901462000f53578063ee8ab0c71462000fc4578063fda759621462001020575b600080fd5b348015620001d557600080fd5b50620001f66004803603810190808035906020019092919050505062001090565b604051808215151515815260200191505060405180910390f35b3480156200021d57600080fd5b5062000228620010b0565b6040518080602001828103825283818151815260200191508051906020019080838360005b838110156200026a5780820151818401526020810190506200024d565b50505050905090810190601f168015620002985780820380516001836020036101000a031916815260200191505b509250505060405180910390f35b348015620002b357600080fd5b50620002f4600480360381019080803573ffffffffffffffffffffffffffffffffffffffff1690602001909291908035906020019092919050505062001152565b604051808215151515815260200191505060405180910390f35b3480156200031b57600080fd5b506200032662001244565b6040518082815260200191505060405180910390f35b3480156200034957600080fd5b50620003aa600480360381019080803573ffffffffffffffffffffffffffffffffffffffff169060200190929190803573ffffffffffffffffffffffffffffffffffffffff169060200190929190803590602001909291905050506200124e565b604051808215151515815260200191505060405180910390f35b348015620003d157600080fd5b5062000408600480360381019080803573ffffffffffffffffffffffffffffffffffffffff169060200190929190505050620014c9565b6040518082815260200191505060405180910390f35b3480156200042b57600080fd5b506200044c60048036038101908080359060200190929190505050620014e1565b604051808781526020018681526020018581526020018481526020018381526020018260ff1660ff168152602001965050505050505060405180910390f35b3480156200049857600080fd5b50620004a36200195d565b604051808260ff1660ff16815260200191505060405180910390f35b348015620004cc57600080fd5b50620004d762001962565b6040518082815260200191505060405180910390f35b348015620004fa57600080fd5b506200056e60048036038101908080359060200190929190803560ff169060200190929190803590602001908201803590602001908080601f016020809104026020016040519081016040528093929190818152602001838380828437820191505050505050919291929050505062001968565b005b3480156200057d57600080fd5b50620005b26004803603810190808035906020019092919080359060200190929190803590602001909291905050506200197a565b604051808215151515815260200191505060405180910390f35b348015620005d957600080fd5b5062000610600480360381019080803573ffffffffffffffffffffffffffffffffffffffff16906020019092919050505062001e0d565b6040518082815260200191505060405180910390f35b3480156200063357600080fd5b50620006546004803603810190808035906020019092919050505062001e56565b6040518082815260200191505060405180910390f35b3480156200067757600080fd5b50620006986004803603810190808035906020019092919050505062001e7a565b604051808215151515815260200191505060405180910390f35b348015620006bf57600080fd5b50620006e06004803603810190808035906020019092919050505062001e9a565b604051808273ffffffffffffffffffffffffffffffffffffffff1673ffffffffffffffffffffffffffffffffffffffff16815260200191505060405180910390f35b3480156200072f57600080fd5b5062000766600480360381019080803573ffffffffffffffffffffffffffffffffffffffff16906020019092919050505062001ecd565b6040518082815260200191505060405180910390f35b3480156200078957600080fd5b506200079462001f16565b6040518082815260200191505060405180910390f35b348015620007b757600080fd5b50620007c262001f1c565b6040518080602001828103825283818151815260200191508051906020019080838360005b8381101562000804578082015181840152602081019050620007e7565b50505050905090810190601f168015620008325780820380516001836020036101000a031916815260200191505b509250505060405180910390f35b3480156200084d57600080fd5b506200086e6004803603810190808035906020019092919050505062001fbe565b60405180806020018c73ffffffffffffffffffffffffffffffffffffffff1673ffffffffffffffffffffffffffffffffffffffff168152602001806020018b81526020018a815260200189815260200188815260200187815260200186815260200185815260200184815260200183810383528e818151815260200191508051906020019080838360005b8381101562000916578082015181840152602081019050620008f9565b50505050905090810190601f168015620009445780820380516001836020036101000a031916815260200191505b5083810382528c818151815260200191508051906020019080838360005b838110156200097f57808201518184015260208101905062000962565b50505050905090810190601f168015620009ad5780820380516001836020036101000a031916815260200191505b509d505050505050505050505050505060405180910390f35b348015620009d357600080fd5b50620009de62002170565b6040518082815260200191505060405180910390f35b34801562000a0157600080fd5b5062000a226004803603810190808035906020019092919050505062002176565b604051808273ffffffffffffffffffffffffffffffffffffffff1673ffffffffffffffffffffffffffffffffffffffff16815260200191505060405180910390f35b34801562000a7157600080fd5b5062000a9260048036038101908080359060200190929190505050620021e7565b604051808215151515815260200191505060405180910390f35b34801562000ab957600080fd5b5062000af0600480360381019080803573ffffffffffffffffffffffffffffffffffffffff1690602001909291905050506200242e565b6040518080602001828103825283818151815260200191508051906020019060200280838360005b8381101562000b3557808201518184015260208101905062000b18565b505050509050019250505060405180910390f35b34801562000b5657600080fd5b5062000b97600480360381019080803573ffffffffffffffffffffffffffffffffffffffff1690602001909291908035906020019092919050505062002547565b604051808215151515815260200191505060405180910390f35b34801562000bbe57600080fd5b5062000bff600480360381019080803573ffffffffffffffffffffffffffffffffffffffff16906020019092919080359060200190929190505050620026ae565b6040518082815260200191505060405180910390f35b34801562000c2257600080fd5b5062000c4360048036038101908080359060200190929190505050620026df565b604051808273ffffffffffffffffffffffffffffffffffffffff1673ffffffffffffffffffffffffffffffffffffffff16815260200191505060405180910390f35b34801562000c9257600080fd5b5062000d3f600480360381019080803590602001908201803590602001908080601f0160208091040260200160405190810160405280939291908181526020018383808284378201915050505050509192919290803590602001908201803590602001908080601f01602080910402602001604051908101604052809392919081815260200183838082843782019150505050505091929192908035906020019092919050505062002712565b005b34801562000d4e57600080fd5b5062000d5962002724565b6040518082815260200191505060405180910390f35b34801562000d7c57600080fd5b5062000dd3600480360381019080803573ffffffffffffffffffffffffffffffffffffffff169060200190929190803573ffffffffffffffffffffffffffffffffffffffff1690602001909291905050506200272d565b6040518082815260200191505060405180910390f35b34801562000df657600080fd5b5062000e1760048036038101908080359060200190929190505050620027b4565b60405180806020018881526020018773ffffffffffffffffffffffffffffffffffffffff1673ffffffffffffffffffffffffffffffffffffffff1681526020018060200186815260200185815260200184815260200183810383528a818151815260200191508051906020019080838360005b8381101562000ea757808201518184015260208101905062000e8a565b50505050905090810190601f16801562000ed55780820380516001836020036101000a031916815260200191505b50838103825287818151815260200191508051906020019080838360005b8381101562000f1057808201518184015260208101905062000ef3565b50505050905090810190601f16801562000f3e5780820380516001836020036101000a031916815260200191505b50995050505050505050505060405180910390f35b34801562000f6057600080fd5b5062000f6b620029f6565b6040518080602001828103825283818151815260200191508051906020019060200280838360005b8381101562000fb057808201518184015260208101905062000f93565b505050509050019250505060405180910390f35b34801562000fd157600080fd5b506200100660048036038101908080359060200190929190803590602001909291908035906020019092919050505062002a50565b604051808215151515815260200191505060405180910390f35b3480156200102d57600080fd5b506200104e6004803603810190808035906020019092919050505062002c54565b604051808273ffffffffffffffffffffffffffffffffffffffff1673ffffffffffffffffffffffffffffffffffffffff16815260200191505060405180910390f35b60056020528060005260406000206000915054906101000a900460ff1681565b600a8054600181600116156101000203166002900480601f0160208091040260200160405190810160405280929190818152602001828054600181600116156101000203166002900480156200114a5780601f106200111e576101008083540402835291602001916200114a565b820191906000526020600020905b8154815290600101906020018083116200112c57829003601f168201915b505050505081565b600081600d60003373ffffffffffffffffffffffffffffffffffffffff1673ffffffffffffffffffffffffffffffffffffffff16815260200190815260200160002060008573ffffffffffffffffffffffffffffffffffffffff1673ffffffffffffffffffffffffffffffffffffffff168152602001908152602001600020819055508273ffffffffffffffffffffffffffffffffffffffff163373ffffffffffffffffffffffffffffffffffffffff167f8c5be1e5ebec7d5bd14f71427d1e84f3dd0314c0f7b2291e5b200ac8c7c3b925846040518082815260200191505060405180910390a36001905092915050565b6000600b54905090565b600081600d60008673ffffffffffffffffffffffffffffffffffffffff1673ffffffffffffffffffffffffffffffffffffffff16815260200190815260200160002060003373ffffffffffffffffffffffffffffffffffffffff1673ffffffffffffffffffffffffffffffffffffffff16815260200190815260200160002054101580156200131c575081600c60008673ffffffffffffffffffffffffffffffffffffffff1673ffffffffffffffffffffffffffffffffffffffff1681526020019081526020016000205410155b8015620013295750600082115b15156200133557600080fd5b81600c60008673ffffffffffffffffffffffffffffffffffffffff1673ffffffffffffffffffffffffffffffffffffffff1681526020019081526020016000206000828254039250508190555081600c60008573ffffffffffffffffffffffffffffffffffffffff1673ffffffffffffffffffffffffffffffffffffffff1681526020019081526020016000206000828254019250508190555081600d60008673ffffffffffffffffffffffffffffffffffffffff1673ffffffffffffffffffffffffffffffffffffffff16815260200190815260200160002060003373ffffffffffffffffffffffffffffffffffffffff1673ffffffffffffffffffffffffffffffffffffffff168152602001908152602001600020600082825403925050819055508273ffffffffffffffffffffffffffffffffffffffff168473ffffffffffffffffffffffffffffffffffffffff167fddf252ad1be2c89b69c2b068fc378daa952ba7f163c4a11628f55a4df523b3ef846040518082815260200191505060405180910390a3600190509392505050565b600c6020528060005260406000206000915090505481565b600080600080600080600115156011600089815260200190815260200160002060009054906101000a900460ff1615151415156200151e57600080fd5b86600e600089815260200190815260200160002060009054906101000a900473ffffffffffffffffffffffffffffffffffffffff1673ffffffffffffffffffffffffffffffffffffffff1663df6465d06040518163ffffffff167c0100000000000000000000000000000000000000000000000000000000028152600401602060405180830381600087803b158015620015b757600080fd5b505af1158015620015cc573d6000803e3d6000fd5b505050506040513d6020811015620015e357600080fd5b8101908080519060200190929190505050600e60008a815260200190815260200160002060009054906101000a900473ffffffffffffffffffffffffffffffffffffffff1673ffffffffffffffffffffffffffffffffffffffff166368b6d55d6040518163ffffffff167c0100000000000000000000000000000000000000000000000000000000028152600401602060405180830381600087803b1580156200168c57600080fd5b505af1158015620016a1573d6000803e3d6000fd5b505050506040513d6020811015620016b857600080fd5b8101908080519060200190929190505050600e60008b815260200190815260200160002060009054906101000a900473ffffffffffffffffffffffffffffffffffffffff1673ffffffffffffffffffffffffffffffffffffffff1663247d139f6040518163ffffffff167c0100000000000000000000000000000000000000000000000000000000028152600401602060405180830381600087803b1580156200176157600080fd5b505af115801562001776573d6000803e3d6000fd5b505050506040513d60208110156200178d57600080fd5b8101908080519060200190929190505050600e60008c815260200190815260200160002060009054906101000a900473ffffffffffffffffffffffffffffffffffffffff1673ffffffffffffffffffffffffffffffffffffffff166392a2605b6040518163ffffffff167c0100000000000000000000000000000000000000000000000000000000028152600401602060405180830381600087803b1580156200183657600080fd5b505af11580156200184b573d6000803e3d6000fd5b505050506040513d60208110156200186257600080fd5b8101908080519060200190929190505050600e60008d815260200190815260200160002060009054906101000a900473ffffffffffffffffffffffffffffffffffffffff1673ffffffffffffffffffffffffffffffffffffffff1663653721476040518163ffffffff167c0100000000000000000000000000000000000000000000000000000000028152600401602060405180830381600087803b1580156200190b57600080fd5b505af115801562001920573d6000803e3d6000fd5b505050506040513d60208110156200193757600080fd5b810190808051906020019092919050505095509550955095509550955091939550919395565b601281565b600b5481565b6200197583838362002c87565b505050565b60008060008414806200198d5750600083145b15156200199957600080fd5b600083850114158015620019d15750600115156011600087815260200190815260200160002060009054906101000a900460ff161515145b801562001ab557506000600e600087815260200190815260200160002060009054906101000a900473ffffffffffffffffffffffffffffffffffffffff1673ffffffffffffffffffffffffffffffffffffffff1663653721476040518163ffffffff167c0100000000000000000000000000000000000000000000000000000000028152600401602060405180830381600087803b15801562001a7357600080fd5b505af115801562001a88573d6000803e3d6000fd5b505050506040513d602081101562001a9f57600080fd5b810190808051906020019092919050505060ff16145b151562001ac157600080fd5b828401600c60003373ffffffffffffffffffffffffffffffffffffffff1673ffffffffffffffffffffffffffffffffffffffff168152602001908152602001600020541015151562001b1257600080fd5b600e600086815260200190815260200160002060009054906101000a900473ffffffffffffffffffffffffffffffffffffffff169050600084111562001cac5783600c60003373ffffffffffffffffffffffffffffffffffffffff1673ffffffffffffffffffffffffffffffffffffffff168152602001908152602001600020541015151562001ba157600080fd5b8073ffffffffffffffffffffffffffffffffffffffff1663f231a4f63386866040518463ffffffff167c0100000000000000000000000000000000000000000000000000000000028152600401808473ffffffffffffffffffffffffffffffffffffffff1673ffffffffffffffffffffffffffffffffffffffff1681526020018381526020018281526020019350505050600060405180830381600087803b15801562001c4d57600080fd5b505af115801562001c62573d6000803e3d6000fd5b5050505062001ca5600e600087815260200190815260200160002060009054906101000a900473ffffffffffffffffffffffffffffffffffffffff168562002547565b5062001e01565b82600c60003373ffffffffffffffffffffffffffffffffffffffff1673ffffffffffffffffffffffffffffffffffffffff168152602001908152602001600020541015151562001cfb57600080fd5b8073ffffffffffffffffffffffffffffffffffffffff1663f231a4f63386866040518463ffffffff167c0100000000000000000000000000000000000000000000000000000000028152600401808473ffffffffffffffffffffffffffffffffffffffff1673ffffffffffffffffffffffffffffffffffffffff1681526020018381526020018281526020019350505050600060405180830381600087803b15801562001da757600080fd5b505af115801562001dbc573d6000803e3d6000fd5b5050505062001dff600e600087815260200190815260200160002060009054906101000a900473ffffffffffffffffffffffffffffffffffffffff168462002547565b505b60019150509392505050565b6000600260008373ffffffffffffffffffffffffffffffffffffffff1673ffffffffffffffffffffffffffffffffffffffff168152602001908152602001600020549050919050565b60128181548110151562001e6657fe5b906000526020600020016000915090505481565b60116020528060005260406000206000915054906101000a900460ff1681565b60046020528060005260406000206000915054906101000a900473ffffffffffffffffffffffffffffffffffffffff1681565b6000600c60008373ffffffffffffffffffffffffffffffffffffffff1673ffffffffffffffffffffffffffffffffffffffff168152602001908152602001600020549050919050565b60105481565b60098054600181600116156101000203166002900480601f01602080910402602001604051908101604052809291908181526020018280546001816001161561010002031660029004801562001fb65780601f1062001f8a5761010080835404028352916020019162001fb6565b820191906000526020600020905b81548152906001019060200180831162001f9857829003601f168201915b505050505081565b6008602052806000526040600020600091509050806000018054600181600116156101000203166002900480601f0160208091040260200160405190810160405280929190818152602001828054600181600116156101000203166002900480156200206e5780601f1062002042576101008083540402835291602001916200206e565b820191906000526020600020905b8154815290600101906020018083116200205057829003601f168201915b5050505050908060010160009054906101000a900473ffffffffffffffffffffffffffffffffffffffff1690806002018054600181600116156101000203166002900480601f016020809104026020016040519081016040528092919081815260200182805460018160011615610100020316600290048015620021365780601f106200210a5761010080835404028352916020019162002136565b820191906000526020600020905b8154815290600101906020018083116200211857829003601f168201915b50505050509080600301549080600501549080600601549080600701549080600801549080600901549080600a01549080600b015490508b565b60005481565b6000600115156005600084815260200190815260200160002060009054906101000a900460ff161515141515620021ac57600080fd5b6004600083815260200190815260200160002060009054906101000a900473ffffffffffffffffffffffffffffffffffffffff169050919050565b60003373ffffffffffffffffffffffffffffffffffffffff16601360009054906101000a900473ffffffffffffffffffffffffffffffffffffffff1673ffffffffffffffffffffffffffffffffffffffff16141515620022d5576040517f08c379a000000000000000000000000000000000000000000000000000000000815260040180806020018281038252602e8152602001807f4f6e6c79207468652063726561746f72206f662074686520636f6e747261637481526020017f2063616e20757365204d696e742100000000000000000000000000000000000081525060400191505060405180910390fd5b81600b6000828254019250508190555081600c6000601360009054906101000a900473ffffffffffffffffffffffffffffffffffffffff1673ffffffffffffffffffffffffffffffffffffffff1673ffffffffffffffffffffffffffffffffffffffff16815260200190815260200160002060008282540192505081905550601360009054906101000a900473ffffffffffffffffffffffffffffffffffffffff1673ffffffffffffffffffffffffffffffffffffffff167fa448afda7ea1e3a7a10fcab0c29fe9a9dd85791503bf0171f281521551c7ec05600c6000601360009054906101000a900473ffffffffffffffffffffffffffffffffffffffff1673ffffffffffffffffffffffffffffffffffffffff1673ffffffffffffffffffffffffffffffffffffffff168152602001908152602001600020546040518082815260200191505060405180910390a260019050919050565b6060600060606000600260008673ffffffffffffffffffffffffffffffffffffffff1673ffffffffffffffffffffffffffffffffffffffff16815260200190815260200160002054925082604051908082528060200260200182016040528015620024a85781602001602082028038833980820191505090505b509150600090505b828110156200253c57600160008673ffffffffffffffffffffffffffffffffffffffff1673ffffffffffffffffffffffffffffffffffffffff168152602001908152602001600020818154811015156200250657fe5b906000526020600020015482828151811015156200252057fe5b90602001906020020181815250508080600101915050620024b0565b819350505050919050565b600081600c60003373ffffffffffffffffffffffffffffffffffffffff1673ffffffffffffffffffffffffffffffffffffffff1681526020019081526020016000205410158015620025995750600082115b1515620025a557600080fd5b81600c60003373ffffffffffffffffffffffffffffffffffffffff1673ffffffffffffffffffffffffffffffffffffffff1681526020019081526020016000206000828254039250508190555081600c60008573ffffffffffffffffffffffffffffffffffffffff1673ffffffffffffffffffffffffffffffffffffffff168152602001908152602001600020600082825401925050819055508273ffffffffffffffffffffffffffffffffffffffff163373ffffffffffffffffffffffffffffffffffffffff167fddf252ad1be2c89b69c2b068fc378daa952ba7f163c4a11628f55a4df523b3ef846040518082815260200191505060405180910390a36001905092915050565b600160205281600052604060002081815481101515620026ca57fe5b90600052602060002001600091509150505481565b600e6020528060005260406000206000915054906101000a900473ffffffffffffffffffffffffffffffffffffffff1681565b6200271f838383620030bf565b505050565b60008054905090565b6000600d60008473ffffffffffffffffffffffffffffffffffffffff1673ffffffffffffffffffffffffffffffffffffffff16815260200190815260200160002060008373ffffffffffffffffffffffffffffffffffffffff1673ffffffffffffffffffffffffffffffffffffffff16815260200190815260200160002054905092915050565b60606000806060600080600060011515600560008a815260200190815260200160002060009054906101000a900460ff161515141515620027f457600080fd5b6008600089815260200190815260200160002060000188600860008b815260200190815260200160002060010160009054906101000a900473ffffffffffffffffffffffffffffffffffffffff16600860008c8152602001908152602001600020600201600860008d815260200190815260200160002060030154600860008e815260200190815260200160002060050154600860008f815260200190815260200160002060060154868054600181600116156101000203166002900480601f016020809104026020016040519081016040528092919081815260200182805460018160011615610100020316600290048015620029365780601f106200290a5761010080835404028352916020019162002936565b820191906000526020600020905b8154815290600101906020018083116200291857829003601f168201915b50505050509650838054600181600116156101000203166002900480601f016020809104026020016040519081016040528092919081815260200182805460018160011615610100020316600290048015620029d65780601f10620029aa57610100808354040283529160200191620029d6565b820191906000526020600020905b815481529060010190602001808311620029b857829003601f168201915b505050505093509650965096509650965096509650919395979092949650565b6060601280548060200260200160405190810160405280929190818152602001828054801562002a4657602002820191906000526020600020905b81548152602001906001019080831162002a31575b5050505050905090565b6000803373ffffffffffffffffffffffffffffffffffffffff166004600087815260200190815260200160002060009054906101000a900473ffffffffffffffffffffffffffffffffffffffff1673ffffffffffffffffffffffffffffffffffffffff1614151562002ac157600080fd5b8260086000878152602001908152602001600020600501541015151562002ae757600080fd5b60105490508085858562002afa62003512565b80858152602001848152602001838152602001828152602001945050505050604051809103906000f08015801562002b36573d6000803e3d6000fd5b50600e600083815260200190815260200160002060006101000a81548173ffffffffffffffffffffffffffffffffffffffff021916908373ffffffffffffffffffffffffffffffffffffffff16021790555060016011600083815260200190815260200160002060006101000a81548160ff02191690831515021790555060128190806001815401808255809150509060018203906000526020600020016000909192909190915055506010600081548092919060010191905055503373ffffffffffffffffffffffffffffffffffffffff167ff615a4f86e7672d1d9169781ec31297de88207d3083e615062f01087c93f8b3b8686604051808381526020018281526020019250505060405180910390a260019150509392505050565b600f6020528060005260406000206000915054906101000a900473ffffffffffffffffffffffffffffffffffffffff1681565b62002c9162003523565b600115156005600086815260200190815260200160002060009054906101000a900460ff16151514151562002cc557600080fd5b60018360ff16148062002cdb575060028360ff16145b8062002cea575060038360ff16145b8062002cf9575060048360ff16145b8062002d08575060058360ff16145b151562002d1457600080fd5b3373ffffffffffffffffffffffffffffffffffffffff166008600086815260200190815260200160002060010160009054906101000a900473ffffffffffffffffffffffffffffffffffffffff1673ffffffffffffffffffffffffffffffffffffffff161415151562002d8657600080fd5b6060604051908101604052808460ff1681526020018381526020013373ffffffffffffffffffffffffffffffffffffffff16815250905060086000858152602001908152602001600020600401819080600181540180825580915050906001820390600052602060002090600302016000909192909190915060008201518160000160006101000a81548160ff021916908360ff160217905550602082015181600101908051906020019062002e3e9291906200355e565b5060408201518160020160006101000a81548173ffffffffffffffffffffffffffffffffffffffff021916908373ffffffffffffffffffffffffffffffffffffffff160217905550505050600860008581526020019081526020016000206006016000815480929190600101919050555060018360ff16141562002f0e576008600085815260200190815260200160002060070160008154809291906001019190505550600860008581526020019081526020016000206005016000815480929190600101919050555062003077565b60028360ff16141562002f6c5760086000858152602001908152602001600020600801600081548092919060010191905055506002600860008681526020019081526020016000206005016000828254019250508190555062003076565b60038360ff16141562002fca5760086000858152602001908152602001600020600901600081548092919060010191905055506003600860008681526020019081526020016000206005016000828254019250508190555062003075565b60048360ff161415620030285760086000858152602001908152602001600020600a01600081548092919060010191905055506004600860008681526020019081526020016000206005016000828254019250508190555062003074565b60086000858152602001908152602001600020600b0160008154809291906001019190505550600560086000868152602001908152602001600020600501600082825401925050819055505b5b5b5b7f5c2a7f97f2866b66a71fce6a539d171c501d51e052df0f7354fe8306691f0d208484604051808381526020018260ff1681526020019250505060405180910390a150505050565b600080549050620030d1338262003281565b60016005600083815260200190815260200160002060006101000a81548160ff0219169083151502179055508360086000838152602001908152602001600020600001908051906020019062003129929190620035e5565b50336008600083815260200190815260200160002060010160006101000a81548173ffffffffffffffffffffffffffffffffffffffff021916908373ffffffffffffffffffffffffffffffffffffffff16021790555082600860008381526020019081526020016000206002019080519060200190620031ab929190620035e5565b50816008600083815260200190815260200160002060030181905550600060086000838152602001908152602001600020600501819055506000600860008381526020019081526020016000206006018190555060008081548092919060010191905055507f6ebf46b5e3b7890d724b64573ee28d4b1358a3439ba3f4ed9d4889b090b3999a8133604051808381526020018273ffffffffffffffffffffffffffffffffffffffff1673ffffffffffffffffffffffffffffffffffffffff1681526020019250505060405180910390a150505050565b600260008373ffffffffffffffffffffffffffffffffffffffff1673ffffffffffffffffffffffffffffffffffffffff16815260200190815260200160002054600160008473ffffffffffffffffffffffffffffffffffffffff1673ffffffffffffffffffffffffffffffffffffffff1681526020019081526020016000208054905014156200337a57600160008373ffffffffffffffffffffffffffffffffffffffff1673ffffffffffffffffffffffffffffffffffffffff16815260200190815260200160002081908060018154018082558091505090600182039060005260206000200160009091929091909150555062003416565b80600160008473ffffffffffffffffffffffffffffffffffffffff1673ffffffffffffffffffffffffffffffffffffffff168152602001908152602001600020600260008573ffffffffffffffffffffffffffffffffffffffff1673ffffffffffffffffffffffffffffffffffffffff168152602001908152602001600020548154811015156200340757fe5b90600052602060002001819055505b816004600083815260200190815260200160002060006101000a81548173ffffffffffffffffffffffffffffffffffffffff021916908373ffffffffffffffffffffffffffffffffffffffff160217905550600260008373ffffffffffffffffffffffffffffffffffffffff1673ffffffffffffffffffffffffffffffffffffffff168152602001908152602001600020546003600083815260200190815260200160002081905550600260008373ffffffffffffffffffffffffffffffffffffffff1673ffffffffffffffffffffffffffffffffffffffff168152602001908152602001600020600081548092919060010191905055505050565b6040516114c9806200369583390190565b606060405190810160405280600060ff16815260200160608152602001600073ffffffffffffffffffffffffffffffffffffffff1681525090565b828054600181600116156101000203166002900490600052602060002090601f016020900481019282601f10620035a157805160ff1916838001178555620035d2565b82800160010185558215620035d2579182015b82811115620035d1578251825591602001919060010190620035b4565b5b509050620035e191906200366c565b5090565b828054600181600116156101000203166002900490600052602060002090601f016020900481019282601f106200362857805160ff191683800117855562003659565b8280016001018555821562003659579182015b82811115620036585782518255916020019190600101906200363b565b5b5090506200366891906200366c565b5090565b6200369191905b808211156200368d57600081600090555060010162003673565b5090565b90560060806040526040805190810160405280600381526020017f5746540000000000000000000000000000000000000000000000000000000000815250600090805190602001906200005192919062000148565b506040805190810160405280600d81526020017f576f726b666c6f77546f6b656e00000000000000000000000000000000000000815250600190805190602001906200009f92919062000148565b5062200b20600255348015620000b457600080fd5b50604051608080620014c983398101806040528101908080519060200190929190805190602001909291908051906020019092919080519060200190929190505050836005819055508260068190555081600781905550806008819055506000600c819055506000600e819055506000600f60006101000a81548160ff021916908360ff16021790555050505050620001f7565b828054600181600116156101000203166002900490600052602060002090601f016020900481019282601f106200018b57805160ff1916838001178555620001bc565b82800160010185558215620001bc579182015b82811115620001bb5782518255916020019190600101906200019e565b5b509050620001cb9190620001cf565b5090565b620001f491905b80821115620001f0576000816000905550600101620001d6565b5090565b90565b6112c280620002076000396000f300608060405260043610610133576000357c0100000000000000000000000000000000000000000000000000000000900463ffffffff16806306fdde0314610138578063095ea7b3146101c857806318160ddd1461022d5780631b06c4cb1461025857806323b872dd14610299578063247d139f1461031e57806327e235e314610349578063313ce567146103a05780633eaaf86b146103d15780634d8c8f71146103fc578063561a277114610427578063568ff6f114610452578063653721471461049357806368b6d55d146104c457806370a08231146104ef57806392a2605b1461054657806395d89b41146105715780639b4d83fd14610601578063a9059cbb1461066e578063dd62ed3e146106d3578063df6465d01461074a578063f231a4f614610775578063f241f9ba146107cc575b600080fd5b34801561014457600080fd5b5061014d610839565b6040518080602001828103825283818151815260200191508051906020019080838360005b8381101561018d578082015181840152602081019050610172565b50505050905090810190601f1680156101ba5780820380516001836020036101000a031916815260200191505b509250505060405180910390f35b3480156101d457600080fd5b50610213600480360381019080803573ffffffffffffffffffffffffffffffffffffffff169060200190929190803590602001909291905050506108d7565b604051808215151515815260200191505060405180910390f35b34801561023957600080fd5b506102426109c9565b6040518082815260200191505060405180910390f35b34801561026457600080fd5b50610283600480360381019080803590602001909291905050506109d3565b6040518082815260200191505060405180910390f35b3480156102a557600080fd5b50610304600480360381019080803573ffffffffffffffffffffffffffffffffffffffff169060200190929190803573ffffffffffffffffffffffffffffffffffffffff169060200190929190803590602001909291905050506109f6565b604051808215151515815260200191505060405180910390f35b34801561032a57600080fd5b50610333610c6e565b6040518082815260200191505060405180910390f35b34801561035557600080fd5b5061038a600480360381019080803573ffffffffffffffffffffffffffffffffffffffff169060200190929190505050610c74565b6040518082815260200191505060405180910390f35b3480156103ac57600080fd5b506103b5610c8c565b604051808260ff1660ff16815260200191505060405180910390f35b3480156103dd57600080fd5b506103e6610c91565b6040518082815260200191505060405180910390f35b34801561040857600080fd5b50610411610c97565b6040518082815260200191505060405180910390f35b34801561043357600080fd5b5061043c610c9d565b6040518082815260200191505060405180910390f35b34801561045e57600080fd5b5061047d60048036038101908080359060200190929190505050610ca3565b6040518082815260200191505060405180910390f35b34801561049f57600080fd5b506104a8610cc6565b604051808260ff1660ff16815260200191505060405180910390f35b3480156104d057600080fd5b506104d9610cd9565b6040518082815260200191505060405180910390f35b3480156104fb57600080fd5b50610530600480360381019080803573ffffffffffffffffffffffffffffffffffffffff169060200190929190505050610cdf565b6040518082815260200191505060405180910390f35b34801561055257600080fd5b5061055b610d28565b6040518082815260200191505060405180910390f35b34801561057d57600080fd5b50610586610d2e565b6040518080602001828103825283818151815260200191508051906020019080838360005b838110156105c65780820151818401526020810190506105ab565b50505050905090810190601f1680156105f35780820380516001836020036101000a031916815260200191505b509250505060405180910390f35b34801561060d57600080fd5b5061062c60048036038101908080359060200190929190505050610dcc565b604051808273ffffffffffffffffffffffffffffffffffffffff1673ffffffffffffffffffffffffffffffffffffffff16815260200191505060405180910390f35b34801561067a57600080fd5b506106b9600480360381019080803573ffffffffffffffffffffffffffffffffffffffff16906020019092919080359060200190929190505050610e0a565b604051808215151515815260200191505060405180910390f35b3480156106df57600080fd5b50610734600480360381019080803573ffffffffffffffffffffffffffffffffffffffff169060200190929190803573ffffffffffffffffffffffffffffffffffffffff169060200190929190505050610f6f565b6040518082815260200191505060405180910390f35b34801561075657600080fd5b5061075f610ff6565b6040518082815260200191505060405180910390f35b34801561078157600080fd5b506107ca600480360381019080803573ffffffffffffffffffffffffffffffffffffffff1690602001909291908035906020019092919080359060200190929190505050610ffc565b005b3480156107d857600080fd5b506107f760048036038101908080359060200190929190505050611258565b604051808273ffffffffffffffffffffffffffffffffffffffff1673ffffffffffffffffffffffffffffffffffffffff16815260200191505060405180910390f35b60018054600181600116156101000203166002900480601f0160208091040260200160405190810160405280929190818152602001828054600181600116156101000203166002900480156108cf5780601f106108a4576101008083540402835291602001916108cf565b820191906000526020600020905b8154815290600101906020018083116108b257829003601f168201915b505050505081565b600081600460003373ffffffffffffffffffffffffffffffffffffffff1673ffffffffffffffffffffffffffffffffffffffff16815260200190815260200160002060008573ffffffffffffffffffffffffffffffffffffffff1673ffffffffffffffffffffffffffffffffffffffff168152602001908152602001600020819055508273ffffffffffffffffffffffffffffffffffffffff163373ffffffffffffffffffffffffffffffffffffffff167f8c5be1e5ebec7d5bd14f71427d1e84f3dd0314c0f7b2291e5b200ac8c7c3b925846040518082815260200191505060405180910390a36001905092915050565b6000600254905090565b600d818154811015156109e257fe5b906000526020600020016000915090505481565b600081600460008673ffffffffffffffffffffffffffffffffffffffff1673ffffffffffffffffffffffffffffffffffffffff16815260200190815260200160002060003373ffffffffffffffffffffffffffffffffffffffff1673ffffffffffffffffffffffffffffffffffffffff1681526020019081526020016000205410158015610ac3575081600360008673ffffffffffffffffffffffffffffffffffffffff1673ffffffffffffffffffffffffffffffffffffffff1681526020019081526020016000205410155b8015610acf5750600082115b1515610ada57600080fd5b81600360008673ffffffffffffffffffffffffffffffffffffffff1673ffffffffffffffffffffffffffffffffffffffff1681526020019081526020016000206000828254039250508190555081600360008573ffffffffffffffffffffffffffffffffffffffff1673ffffffffffffffffffffffffffffffffffffffff1681526020019081526020016000206000828254019250508190555081600460008673ffffffffffffffffffffffffffffffffffffffff1673ffffffffffffffffffffffffffffffffffffffff16815260200190815260200160002060003373ffffffffffffffffffffffffffffffffffffffff1673ffffffffffffffffffffffffffffffffffffffff168152602001908152602001600020600082825403925050819055508273ffffffffffffffffffffffffffffffffffffffff168473ffffffffffffffffffffffffffffffffffffffff167fddf252ad1be2c89b69c2b068fc378daa952ba7f163c4a11628f55a4df523b3ef846040518082815260200191505060405180910390a3600190509392505050565b600c5481565b60036020528060005260406000206000915090505481565b601281565b60025481565b60055481565b60085481565b600b81815481101515610cb257fe5b906000526020600020016000915090505481565b600f60009054906101000a900460ff1681565b60075481565b6000600360008373ffffffffffffffffffffffffffffffffffffffff1673ffffffffffffffffffffffffffffffffffffffff168152602001908152602001600020549050919050565b600e5481565b60008054600181600116156101000203166002900480601f016020809104026020016040519081016040528092919081815260200182805460018160011615610100020316600290048015610dc45780601f10610d9957610100808354040283529160200191610dc4565b820191906000526020600020905b815481529060010190602001808311610da757829003601f168201915b505050505081565b600a81815481101515610ddb57fe5b906000526020600020016000915054906101000a900473ffffffffffffffffffffffffffffffffffffffff1681565b600081600360003373ffffffffffffffffffffffffffffffffffffffff1673ffffffffffffffffffffffffffffffffffffffff1681526020019081526020016000205410158015610e5b5750600082115b1515610e6657600080fd5b81600360003373ffffffffffffffffffffffffffffffffffffffff1673ffffffffffffffffffffffffffffffffffffffff1681526020019081526020016000206000828254039250508190555081600360008573ffffffffffffffffffffffffffffffffffffffff1673ffffffffffffffffffffffffffffffffffffffff168152602001908152602001600020600082825401925050819055508273ffffffffffffffffffffffffffffffffffffffff163373ffffffffffffffffffffffffffffffffffffffff167fddf252ad1be2c89b69c2b068fc378daa952ba7f163c4a11628f55a4df523b3ef846040518082815260200191505060405180910390a36001905092915050565b6000600460008473ffffffffffffffffffffffffffffffffffffffff1673ffffffffffffffffffffffffffffffffffffffff16815260200190815260200160002060008373ffffffffffffffffffffffffffffffffffffffff1673ffffffffffffffffffffffffffffffffffffffff16815260200190815260200160002054905092915050565b60065481565b60008183011415801561102157506000600f60009054906101000a900460ff1660ff16145b151561102c57600080fd5b600754600e54600c548385010101111515156110d6576040517f08c379a00000000000000000000000000000000000000000000000000000000081526004018080602001828103825260238152602001807f5468652062657420657863656564732072656d61696e696e6720706f7420736981526020017f7a6521000000000000000000000000000000000000000000000000000000000081525060400191505060405180910390fd5b600082111561119b5781600c6000828254019250508190555060098390806001815401808255809150509060018203906000526020600020016000909192909190916101000a81548173ffffffffffffffffffffffffffffffffffffffff021916908373ffffffffffffffffffffffffffffffffffffffff160217905550507fac7ba36fe6c4c7a9dd581814563bf9c3e83cbf25f9971fe6378954bce56ab45660055483604051808381526020018281526020019250505060405180910390a1611253565b80600e60008282540192505081905550600a8390806001815401808255809150509060018203906000526020600020016000909192909190916101000a81548173ffffffffffffffffffffffffffffffffffffffff021916908373ffffffffffffffffffffffffffffffffffffffff160217905550507fac7ba36fe6c4c7a9dd581814563bf9c3e83cbf25f9971fe6378954bce56ab45660055482604051808381526020018281526020019250505060405180910390a15b505050565b60098181548110151561126757fe5b906000526020600020016000915054906101000a900473ffffffffffffffffffffffffffffffffffffffff16815600a165627a7a723058208dbbaf1785f4d45a4f6a289e50d7bbd07a71c6fbe72ccf07cc6862b3f1cefda00029a165627a7a72305820b2c3916aafa585fce61855b9dc057bb38d6a82a4869d629aa690a19c7b8fe1720029",
  "source": "pragma solidity ^0.4.23;\n\nimport \"./WorkflowToken.sol\";\nimport \"./Workflows.sol\";\nimport \"./Reputation.sol\";\n\ncontract WorkflowMarket is Reputation {\n    address creator;\n    event RatingChanged(address indexed _address, uint256 _thumbsup);\n\n    constructor() public {\n        balances[msg.sender] = _totalSupply;        // Give the creator initially all the tokens\n        creator = msg.sender; // Set the creator of the contract\n    }\n\n    function mint(uint256 _amount) public returns (bool success) {\n        // Check if the caller of mint is the creator\n        require(creator == msg.sender, \"Only the creator of the contract can use Mint!\");\n        _totalSupply += _amount;\n        balances[creator] += _amount;\n\n        emit BalanceChanged(creator, balances[creator]);\n        return true;\n    }\n}\n",
  "sourcePath": "/Users/allanjiang/Developer/dapps/cs359b-web-workflow-marketplace/contracts/WorkflowMarket.sol",
  "compiler": {
    "name": "solc",
    "version": "0.4.23+commit.124ca40d.Emscripten.clang"
  },
  "schemaVersion": "2.0.0",
  "updatedAt": "2018-06-06T06:35:03.813Z"
}