{
  "contractName": "Workflows",
  "abi": [
    {
      "constant": true,
      "inputs": [
        {
          "name": "",
          "type": "uint256"
        }
      ],
      "name": "existingWorkflowIds",
      "outputs": [
        {
          "name": "",
          "type": "bool"
        }
      ],
      "payable": false,
      "stateMutability": "view",
      "type": "function"
    },
    {
      "constant": true,
      "inputs": [],
      "name": "name",
      "outputs": [
        {
          "name": "",
          "type": "string"
        }
      ],
      "payable": false,
      "stateMutability": "view",
      "type": "function"
    },
    {
      "constant": true,
      "inputs": [
        {
          "name": "_owner",
          "type": "address"
        }
      ],
      "name": "workflowBalanceOf",
      "outputs": [
        {
          "name": "",
          "type": "uint256"
        }
      ],
      "payable": false,
      "stateMutability": "view",
      "type": "function"
    },
    {
      "constant": true,
      "inputs": [
        {
          "name": "",
          "type": "uint256"
        }
      ],
      "name": "workflowOwner",
      "outputs": [
        {
          "name": "",
          "type": "address"
        }
      ],
      "payable": false,
      "stateMutability": "view",
      "type": "function"
    },
    {
      "constant": true,
      "inputs": [],
      "name": "symbol",
      "outputs": [
        {
          "name": "",
          "type": "string"
        }
      ],
      "payable": false,
      "stateMutability": "view",
      "type": "function"
    },
    {
      "constant": true,
      "inputs": [
        {
          "name": "",
          "type": "uint256"
        }
      ],
      "name": "workflows",
      "outputs": [
        {
          "name": "name",
          "type": "string"
        },
        {
          "name": "author",
          "type": "address"
        },
        {
          "name": "tag",
          "type": "string"
        },
        {
          "name": "price",
          "type": "uint256"
        },
        {
          "name": "totalStars",
          "type": "uint256"
        },
        {
          "name": "totalRatings",
          "type": "uint256"
        },
        {
          "name": "numOneStars",
          "type": "uint256"
        },
        {
          "name": "numTwoStars",
          "type": "uint256"
        },
        {
          "name": "numThreeStars",
          "type": "uint256"
        },
        {
          "name": "numFourStars",
          "type": "uint256"
        },
        {
          "name": "numFiveStars",
          "type": "uint256"
        }
      ],
      "payable": false,
      "stateMutability": "view",
      "type": "function"
    },
    {
      "constant": true,
      "inputs": [],
      "name": "totalWorkflows",
      "outputs": [
        {
          "name": "",
          "type": "uint256"
        }
      ],
      "payable": false,
      "stateMutability": "view",
      "type": "function"
    },
    {
      "constant": true,
      "inputs": [
        {
          "name": "_workflowId",
          "type": "uint256"
        }
      ],
      "name": "ownerOfWorkflow",
      "outputs": [
        {
          "name": "",
          "type": "address"
        }
      ],
      "payable": false,
      "stateMutability": "view",
      "type": "function"
    },
    {
      "constant": true,
      "inputs": [
        {
          "name": "_owner",
          "type": "address"
        }
      ],
      "name": "getAllWorkflows",
      "outputs": [
        {
          "name": "",
          "type": "uint256[]"
        }
      ],
      "payable": false,
      "stateMutability": "view",
      "type": "function"
    },
    {
      "constant": true,
      "inputs": [
        {
          "name": "",
          "type": "address"
        },
        {
          "name": "",
          "type": "uint256"
        }
      ],
      "name": "ownedWorkflows",
      "outputs": [
        {
          "name": "",
          "type": "uint256"
        }
      ],
      "payable": false,
      "stateMutability": "view",
      "type": "function"
    },
    {
      "constant": true,
      "inputs": [],
      "name": "totalWorkflowSupply",
      "outputs": [
        {
          "name": "",
          "type": "uint256"
        }
      ],
      "payable": false,
      "stateMutability": "view",
      "type": "function"
    },
    {
      "anonymous": false,
      "inputs": [
        {
          "indexed": true,
          "name": "_from",
          "type": "address"
        },
        {
          "indexed": true,
          "name": "_to",
          "type": "address"
        },
        {
          "indexed": false,
          "name": "_tokenId",
          "type": "uint256"
        }
      ],
      "name": "WorkflowTransfer",
      "type": "event"
    },
    {
      "anonymous": false,
      "inputs": [
        {
          "indexed": true,
          "name": "_owner",
          "type": "address"
        },
        {
          "indexed": true,
          "name": "_approved",
          "type": "address"
        },
        {
          "indexed": false,
          "name": "_tokenId",
          "type": "uint256"
        }
      ],
      "name": "WorkflowApproval",
      "type": "event"
    },
    {
      "anonymous": false,
      "inputs": [
        {
          "indexed": true,
          "name": "_owner",
          "type": "address"
        },
        {
          "indexed": true,
          "name": "_operator",
          "type": "address"
        },
        {
          "indexed": false,
          "name": "_approved",
          "type": "bool"
        }
      ],
      "name": "WorkflowApprovalForAll",
      "type": "event"
    },
    {
      "anonymous": false,
      "inputs": [
        {
          "indexed": false,
          "name": "_tokenId",
          "type": "uint256"
        },
        {
          "indexed": false,
          "name": "_owner",
          "type": "address"
        }
      ],
      "name": "WorkflowCreated",
      "type": "event"
    },
    {
      "anonymous": false,
      "inputs": [
        {
          "indexed": false,
          "name": "_tokenId",
          "type": "uint256"
        },
        {
          "indexed": false,
          "name": "_stars",
          "type": "uint256"
        }
      ],
      "name": "WorkflowRated",
      "type": "event"
    },
    {
      "constant": false,
      "inputs": [
        {
          "name": "_name",
          "type": "string"
        },
        {
          "name": "_tag",
          "type": "string"
        },
        {
          "name": "_price",
          "type": "uint256"
        }
      ],
      "name": "createWorkflow",
      "outputs": [],
      "payable": false,
      "stateMutability": "nonpayable",
      "type": "function"
    },
    {
      "constant": false,
      "inputs": [
        {
          "name": "_workflowId",
          "type": "uint256"
        },
        {
          "name": "_stars",
          "type": "uint8"
        },
        {
          "name": "_review",
          "type": "string"
        }
      ],
      "name": "rateWorkflow",
      "outputs": [],
      "payable": false,
      "stateMutability": "nonpayable",
      "type": "function"
    },
    {
      "constant": true,
      "inputs": [
        {
          "name": "_workflowId",
          "type": "uint256"
        }
      ],
      "name": "seeWorkflowDetails",
      "outputs": [
        {
          "name": "",
          "type": "string"
        },
        {
          "name": "",
          "type": "uint256"
        },
        {
          "name": "",
          "type": "address"
        },
        {
          "name": "",
          "type": "string"
        },
        {
          "name": "",
          "type": "uint256"
        },
        {
          "name": "",
          "type": "uint256"
        },
        {
          "name": "",
          "type": "uint256"
        }
      ],
      "payable": false,
      "stateMutability": "view",
      "type": "function"
    }
  ],
  "bytecode": "0x60806040526040805190810160405280601281526020017f4175746f6d6174656420576f726b666c6f7700000000000000000000000000008152506006908051906020019062000051929190620000b4565b506040805190810160405280600881526020017f576f726b666c6f77000000000000000000000000000000000000000000000000815250600790805190602001906200009f929190620000b4565b50348015620000ad57600080fd5b5062000163565b828054600181600116156101000203166002900490600052602060002090601f016020900481019282601f10620000f757805160ff191683800117855562000128565b8280016001018555821562000128579182015b82811115620001275782518255916020019190600101906200010a565b5b5090506200013791906200013b565b5090565b6200016091905b808211156200015c57600081600090555060010162000142565b5090565b90565b611a6a80620001736000396000f3006080604052600436106100d0576000357c0100000000000000000000000000000000000000000000000000000000900463ffffffff16806303ff3900146100d557806306fdde031461011a57806349f81724146101aa5780635b58a5341461022a5780636f17a94e1461028157806395d89b41146102ee57806396a7bfcf1461037e578063972953b6146104fb5780639f29487314610526578063a823d0a914610593578063aac99e3b1461062b578063cdeef3821461068c578063d673a6e614610745578063e61a357f14610770575b600080fd5b3480156100e157600080fd5b50610100600480360381019080803590602001909291905050506108d1565b604051808215151515815260200191505060405180910390f35b34801561012657600080fd5b5061012f6108f1565b6040518080602001828103825283818151815260200191508051906020019080838360005b8381101561016f578082015181840152602081019050610154565b50505050905090810190601f16801561019c5780820380516001836020036101000a031916815260200191505b509250505060405180910390f35b3480156101b657600080fd5b5061022860048036038101908080359060200190929190803560ff169060200190929190803590602001908201803590602001908080601f016020809104026020016040519081016040528093929190818152602001838380828437820191505050505050919291929050505061098f565b005b34801561023657600080fd5b5061026b600480360381019080803573ffffffffffffffffffffffffffffffffffffffff16906020019092919050505061099f565b6040518082815260200191505060405180910390f35b34801561028d57600080fd5b506102ac600480360381019080803590602001909291905050506109e8565b604051808273ffffffffffffffffffffffffffffffffffffffff1673ffffffffffffffffffffffffffffffffffffffff16815260200191505060405180910390f35b3480156102fa57600080fd5b50610303610a1b565b6040518080602001828103825283818151815260200191508051906020019080838360005b83811015610343578082015181840152602081019050610328565b50505050905090810190601f1680156103705780820380516001836020036101000a031916815260200191505b509250505060405180910390f35b34801561038a57600080fd5b506103a960048036038101908080359060200190929190505050610ab9565b60405180806020018c73ffffffffffffffffffffffffffffffffffffffff1673ffffffffffffffffffffffffffffffffffffffff168152602001806020018b81526020018a815260200189815260200188815260200187815260200186815260200185815260200184815260200183810383528e818151815260200191508051906020019080838360005b8381101561044f578082015181840152602081019050610434565b50505050905090810190601f16801561047c5780820380516001836020036101000a031916815260200191505b5083810382528c818151815260200191508051906020019080838360005b838110156104b557808201518184015260208101905061049a565b50505050905090810190601f1680156104e25780820380516001836020036101000a031916815260200191505b509d505050505050505050505050505060405180910390f35b34801561050757600080fd5b50610510610c63565b6040518082815260200191505060405180910390f35b34801561053257600080fd5b5061055160048036038101908080359060200190929190505050610c69565b604051808273ffffffffffffffffffffffffffffffffffffffff1673ffffffffffffffffffffffffffffffffffffffff16815260200191505060405180910390f35b34801561059f57600080fd5b506105d4600480360381019080803573ffffffffffffffffffffffffffffffffffffffff169060200190929190505050610cd9565b6040518080602001828103825283818151815260200191508051906020019060200280838360005b838110156106175780820151818401526020810190506105fc565b505050509050019250505060405180910390f35b34801561063757600080fd5b50610676600480360381019080803573ffffffffffffffffffffffffffffffffffffffff16906020019092919080359060200190929190505050610ded565b6040518082815260200191505060405180910390f35b34801561069857600080fd5b50610743600480360381019080803590602001908201803590602001908080601f0160208091040260200160405190810160405280939291908181526020018383808284378201915050505050509192919290803590602001908201803590602001908080601f016020809104026020016040519081016040528093929190818152602001838380828437820191505050505050919291929080359060200190929190505050610e1d565b005b34801561075157600080fd5b5061075a610e2d565b6040518082815260200191505060405180910390f35b34801561077c57600080fd5b5061079b60048036038101908080359060200190929190505050610e36565b60405180806020018881526020018773ffffffffffffffffffffffffffffffffffffffff1673ffffffffffffffffffffffffffffffffffffffff1681526020018060200186815260200185815260200184815260200183810383528a818151815260200191508051906020019080838360005b8381101561082957808201518184015260208101905061080e565b50505050905090810190601f1680156108565780820380516001836020036101000a031916815260200191505b50838103825287818151815260200191508051906020019080838360005b8381101561088f578082015181840152602081019050610874565b50505050905090810190601f1680156108bc5780820380516001836020036101000a031916815260200191505b50995050505050505050505060405180910390f35b60056020528060005260406000206000915054906101000a900460ff1681565b60068054600181600116156101000203166002900480601f0160208091040260200160405190810160405280929190818152602001828054600181600116156101000203166002900480156109875780601f1061095c57610100808354040283529160200191610987565b820191906000526020600020905b81548152906001019060200180831161096a57829003601f168201915b505050505081565b61099a83838361106f565b505050565b6000600260008373ffffffffffffffffffffffffffffffffffffffff1673ffffffffffffffffffffffffffffffffffffffff168152602001908152602001600020549050919050565b60046020528060005260406000206000915054906101000a900473ffffffffffffffffffffffffffffffffffffffff1681565b60078054600181600116156101000203166002900480601f016020809104026020016040519081016040528092919081815260200182805460018160011615610100020316600290048015610ab15780601f10610a8657610100808354040283529160200191610ab1565b820191906000526020600020905b815481529060010190602001808311610a9457829003601f168201915b505050505081565b6008602052806000526040600020600091509050806000018054600181600116156101000203166002900480601f016020809104026020016040519081016040528092919081815260200182805460018160011615610100020316600290048015610b655780601f10610b3a57610100808354040283529160200191610b65565b820191906000526020600020905b815481529060010190602001808311610b4857829003601f168201915b5050505050908060010160009054906101000a900473ffffffffffffffffffffffffffffffffffffffff1690806002018054600181600116156101000203166002900480601f016020809104026020016040519081016040528092919081815260200182805460018160011615610100020316600290048015610c295780601f10610bfe57610100808354040283529160200191610c29565b820191906000526020600020905b815481529060010190602001808311610c0c57829003601f168201915b50505050509080600301549080600501549080600601549080600701549080600801549080600901549080600a01549080600b015490508b565b60005481565b6000600115156005600084815260200190815260200160002060009054906101000a900460ff161515141515610c9e57600080fd5b6004600083815260200190815260200160002060009054906101000a900473ffffffffffffffffffffffffffffffffffffffff169050919050565b6060600060606000600260008673ffffffffffffffffffffffffffffffffffffffff1673ffffffffffffffffffffffffffffffffffffffff16815260200190815260200160002054925082604051908082528060200260200182016040528015610d525781602001602082028038833980820191505090505b509150600090505b82811015610de257600160008673ffffffffffffffffffffffffffffffffffffffff1673ffffffffffffffffffffffffffffffffffffffff16815260200190815260200160002081815481101515610dae57fe5b90600052602060002001548282815181101515610dc757fe5b90602001906020020181815250508080600101915050610d5a565b819350505050919050565b600160205281600052604060002081815481101515610e0857fe5b90600052602060002001600091509150505481565b610e28838383611494565b505050565b60008054905090565b60606000806060600080600060011515600560008a815260200190815260200160002060009054906101000a900460ff161515141515610e7557600080fd5b6008600089815260200190815260200160002060000188600860008b815260200190815260200160002060010160009054906101000a900473ffffffffffffffffffffffffffffffffffffffff16600860008c8152602001908152602001600020600201600860008d815260200190815260200160002060030154600860008e815260200190815260200160002060050154600860008f815260200190815260200160002060060154868054600181600116156101000203166002900480601f016020809104026020016040519081016040528092919081815260200182805460018160011615610100020316600290048015610fb35780601f10610f8857610100808354040283529160200191610fb3565b820191906000526020600020905b815481529060010190602001808311610f9657829003601f168201915b50505050509650838054600181600116156101000203166002900480601f01602080910402602001604051908101604052809291908181526020018280546001816001161561010002031660029004801561104f5780601f106110245761010080835404028352916020019161104f565b820191906000526020600020905b81548152906001019060200180831161103257829003601f168201915b505050505093509650965096509650965096509650919395979092949650565b6110776118de565b600115156005600086815260200190815260200160002060009054906101000a900460ff1615151415156110aa57600080fd5b60018360ff1614806110bf575060028360ff16145b806110cd575060038360ff16145b806110db575060048360ff16145b806110e9575060058360ff16145b15156110f457600080fd5b3373ffffffffffffffffffffffffffffffffffffffff166008600086815260200190815260200160002060010160009054906101000a900473ffffffffffffffffffffffffffffffffffffffff1673ffffffffffffffffffffffffffffffffffffffff161415151561116557600080fd5b6060604051908101604052808460ff1681526020018381526020013373ffffffffffffffffffffffffffffffffffffffff16815250905060086000858152602001908152602001600020600401819080600181540180825580915050906001820390600052602060002090600302016000909192909190915060008201518160000160006101000a81548160ff021916908360ff160217905550602082015181600101908051906020019061121b929190611919565b5060408201518160020160006101000a81548173ffffffffffffffffffffffffffffffffffffffff021916908373ffffffffffffffffffffffffffffffffffffffff160217905550505050600860008581526020019081526020016000206006016000815480929190600101919050555060018360ff1614156112e9576008600085815260200190815260200160002060070160008154809291906001019190505550600860008581526020019081526020016000206005016000815480929190600101919050555061144c565b60028360ff1614156113455760086000858152602001908152602001600020600801600081548092919060010191905055506002600860008681526020019081526020016000206005016000828254019250508190555061144b565b60038360ff1614156113a15760086000858152602001908152602001600020600901600081548092919060010191905055506003600860008681526020019081526020016000206005016000828254019250508190555061144a565b60048360ff1614156113fd5760086000858152602001908152602001600020600a016000815480929190600101919050555060046008600086815260200190815260200160002060050160008282540192505081905550611449565b60086000858152602001908152602001600020600b0160008154809291906001019190505550600560086000868152602001908152602001600020600501600082825401925050819055505b5b5b5b7f5c2a7f97f2866b66a71fce6a539d171c501d51e052df0f7354fe8306691f0d208484604051808381526020018260ff1681526020019250505060405180910390a150505050565b6000805490506114a43382611650565b60016005600083815260200190815260200160002060006101000a81548160ff021916908315150217905550836008600083815260200190815260200160002060000190805190602001906114fa929190611999565b50336008600083815260200190815260200160002060010160006101000a81548173ffffffffffffffffffffffffffffffffffffffff021916908373ffffffffffffffffffffffffffffffffffffffff1602179055508260086000838152602001908152602001600020600201908051906020019061157a929190611999565b50816008600083815260200190815260200160002060030181905550600060086000838152602001908152602001600020600501819055506000600860008381526020019081526020016000206006018190555060008081548092919060010191905055507f6ebf46b5e3b7890d724b64573ee28d4b1358a3439ba3f4ed9d4889b090b3999a8133604051808381526020018273ffffffffffffffffffffffffffffffffffffffff1673ffffffffffffffffffffffffffffffffffffffff1681526020019250505060405180910390a150505050565b600260008373ffffffffffffffffffffffffffffffffffffffff1673ffffffffffffffffffffffffffffffffffffffff16815260200190815260200160002054600160008473ffffffffffffffffffffffffffffffffffffffff1673ffffffffffffffffffffffffffffffffffffffff16815260200190815260200160002080549050141561174757600160008373ffffffffffffffffffffffffffffffffffffffff1673ffffffffffffffffffffffffffffffffffffffff1681526020019081526020016000208190806001815401808255809150509060018203906000526020600020016000909192909190915055506117e2565b80600160008473ffffffffffffffffffffffffffffffffffffffff1673ffffffffffffffffffffffffffffffffffffffff168152602001908152602001600020600260008573ffffffffffffffffffffffffffffffffffffffff1673ffffffffffffffffffffffffffffffffffffffff168152602001908152602001600020548154811015156117d357fe5b90600052602060002001819055505b816004600083815260200190815260200160002060006101000a81548173ffffffffffffffffffffffffffffffffffffffff021916908373ffffffffffffffffffffffffffffffffffffffff160217905550600260008373ffffffffffffffffffffffffffffffffffffffff1673ffffffffffffffffffffffffffffffffffffffff168152602001908152602001600020546003600083815260200190815260200160002081905550600260008373ffffffffffffffffffffffffffffffffffffffff1673ffffffffffffffffffffffffffffffffffffffff168152602001908152602001600020600081548092919060010191905055505050565b606060405190810160405280600060ff16815260200160608152602001600073ffffffffffffffffffffffffffffffffffffffff1681525090565b828054600181600116156101000203166002900490600052602060002090601f016020900481019282601f1061195a57805160ff1916838001178555611988565b82800160010185558215611988579182015b8281111561198757825182559160200191906001019061196c565b5b5090506119959190611a19565b5090565b828054600181600116156101000203166002900490600052602060002090601f016020900481019282601f106119da57805160ff1916838001178555611a08565b82800160010185558215611a08579182015b82811115611a075782518255916020019190600101906119ec565b5b509050611a159190611a19565b5090565b611a3b91905b80821115611a37576000816000905550600101611a1f565b5090565b905600a165627a7a72305820f1a45da59c764e88f5090970f1ecbafcc181691c04e3db73317b9ae2788c19ca0029",
  "source": "pragma solidity ^0.4.23;\n\nimport \"./ERC721.sol\";\n\ncontract Workflows is ERC721 {\n    string public name = \"Automated Workflow\";\n    string public symbol = \"Workflow\";\n\n    struct Rating {\n        uint8 stars; //from 1 to 5\n        string review;\n        address reviewer;\n    }\n\n    struct Workflow {\n        // Metadata\n        string name;\n        address author;\n        string tag;\n        uint256 price;\n        // Array of Rating struct\n        Rating[] ratings;\n        // Total number of stars\n        uint256 totalStars;\n        // Total number of ratings\n        uint256 totalRatings;\n        // Number of one, two, ..., five stars \n        uint256 numOneStars;\n        uint256 numTwoStars;\n        uint256 numThreeStars;\n        uint256 numFourStars;\n        uint256 numFiveStars;\n    }\n\n    // Map workflow ids to Workflow struct containing the workflow's data\n    mapping (uint256 => Workflow) public workflows;\n\n    // @notice Create a new workflow\n    // @param _name The name of the workflow to be created\n    // @param _tag The tag of the workflow to be created\n    // @param _price The price of the workflow to be created\n    function createWorkflow(string _name, string _tag, uint256 _price) public {\n        _createWorkflow(_name, _tag, _price);\n    }\n\n    // @notice Create a new workflow\n    // @param _name The name of the workflow to be created\n    // @param _tag The tag of the workflow to be created\n    // @param _price The price of the workflow to be created\n    function _createWorkflow(string _name, string _tag, uint256 _price) internal {\n        uint256 _workflowId = totalWorkflows;\n        _addTokenTo(msg.sender, _workflowId);\n        existingWorkflowIds[_workflowId] = true;\n        workflows[_workflowId].name = _name;\n        workflows[_workflowId].author = msg.sender;\n        workflows[_workflowId].tag = _tag;\n        workflows[_workflowId].price = _price;\n        workflows[_workflowId].totalStars = 0;\n        workflows[_workflowId].totalRatings = 0;\n        totalWorkflows++;\n        \n        emit WorkflowCreated(_workflowId, msg.sender);\n    }\n\n    // @notice Rate a new workflow\n    // @param _workflowId The Id of the workflow to be rated\n    // @param _stars The stars to be given to selected workflow\n    // @param _review The review to be given to the selected workflow\n    function rateWorkflow(uint256 _workflowId, uint8 _stars, string _review) public {\n        _rateWorkflow(_workflowId, _stars, _review);\n    }\n\n    // @notice Rate a new workflow\n    // @param _workflowId The Id of the workflow to be rated\n    // @param _stars The stars to be given to selected workflow\n    // @param _review The review to be given to the selected workflow\n    function _rateWorkflow(uint256 _workflowId, uint8 _stars, string _review) internal {\n        // Require that _workflowId exists\n        require(existingWorkflowIds[_workflowId] == true);\n        // Require that the stars are 1-5\n        require(_stars == 1 || _stars == 2 || _stars == 3 || _stars == 4 || _stars == 5);\n        // Author cannot rate his/her own workflow\n        require(workflows[_workflowId].author != msg.sender);\n        \n        Rating memory rating = Rating({\n            stars: _stars,\n            review: _review,\n            reviewer: msg.sender\n        });\n        workflows[_workflowId].ratings.push(rating);\n        workflows[_workflowId].totalRatings++;\n\n        if (_stars == 1) {\n            workflows[_workflowId].numOneStars++;\n            workflows[_workflowId].totalStars++;\n        } else if (_stars == 2) {\n            workflows[_workflowId].numTwoStars++;\n            workflows[_workflowId].totalStars += 2;\n        } else if (_stars == 3) {\n            workflows[_workflowId].numThreeStars++;\n            workflows[_workflowId].totalStars += 3;\n        } else if (_stars == 4) {\n            workflows[_workflowId].numFourStars++;\n            workflows[_workflowId].totalStars += 4;\n        } else {\n            workflows[_workflowId].numFiveStars++;\n            workflows[_workflowId].totalStars += 5;\n        }\n\n        emit WorkflowRated(_workflowId, _stars);\n    }\n\n    // @notice Examine the details of a selected workflow\n    // @param _workflowId The Id of the workflow to be examined\n    function seeWorkflowDetails(uint256 _workflowId) public view \n        returns (string, uint256, address, string, uint256, uint256, uint256) {\n        // Require that _workflowId exists\n        require(existingWorkflowIds[_workflowId] == true);\n        return (workflows[_workflowId].name, _workflowId, workflows[_workflowId].author, \n            workflows[_workflowId].tag, workflows[_workflowId].price, \n            workflows[_workflowId].totalStars, workflows[_workflowId].totalRatings);\n    }\n\n}",
  "sourcePath": "/Users/allanjiang/Developer/dapps/cs359b-web-workflow-marketplace/contracts/Workflows.sol",
  "compiler": {
    "name": "solc",
    "version": "0.4.23+commit.124ca40d.Emscripten.clang"
  },
  "schemaVersion": "2.0.0",
  "updatedAt": "2018-06-04T06:24:17.821Z"
}